:1000000000800020BD010000F1210000B5210000AA
:10001000B5210000B5210000B5210000B521000088
:10002000B5210000B5210000B5210000F12100003C
:10003000F1210000B5210000F1210000A521000000
:10004000F1210000F1210000F1210000F121000068
:10005000F1210000F1210000F1210000F121000058
:10006000F1210000F1210000F1210000F121000048
:10007000F1210000F1210000F1210000F121000038
:10008000F1210000F1210000F1210000F121000028
:10009000F1210000F1210000F1210000F121000018
:1000A000F1210000F1210000F1210000F121000008
:1000B000F1210000F1210000F1210000F1210000F8
:1000C000F1210000F1210000F1210000F1210000E8
:1000D000F1210000F1210000F1210000F1210000D8
:1000E000F1210000F1210000F1210000F1210000C8
:1000F000F121000095260000F12100008D2B000069
:10010000F1210000A92F0000F1210000F1210000E1
:10011000F1210000F1210000F1210000F121000097
:10012000F1210000F1210000F1210000F121000087
:10013000F1210000F1210000F1210000F121000077
:10014000F1210000F1210000F1210000F121000067
:10015000191D0000311D0000491D0000611D000037
:10016000F121000099120000F1210000F1210000AE
:10017000F1210000F1210000F1210000F121000037
:10018000F1210000F1210000F1210000F121000027
:10019000F1210000F1210000F1210000F121000017
:1001A000F1210000F1210000F1210000F121000007
:1001B000F1210000F1210000F121000010B56B4B8E
:1001C0004CF220521A804DF628121A8000BF00BF50
:1001D00002F012F84FF01062654B1A60654A08335E
:1001E0001A60654A04331A60A3F530432C3B1B6840
:1001F00013F4807F06D10022604B1A604FF4A8529E
:10020000043B1A605E4B1B7813F0080F04D05C4B64
:100210001A7842F008021A702A225A4B1A705A4B66
:100220005A4A9A420DD2131D594CE41A24F0030481
:1002300004340023104657495A581A500433A34235
:10024000FAD1554B554A9A4280F08C80131F54497D
:10025000C91A21F003011A1D1144002243F8042F8A
:100260008B42FBD17EE05A581A500433B3F5DE7F3F
:10027000F9D14C4B80214C4A03F8011B9342FBD12E
:100280004A4B4B4A1A600A224A4B1A702422A3F6A0
:10029000FF731A70A022013B1A7006331A7812F00D
:1002A000020FFBD0444B1A7812F0100FFBD1424BD7
:1002B0001A7802F00C02082AFAD103223F4B1A7076
:1002C000462201331A7001331A7812F0200FFBD046
:1002D000394B1A7812F0400FFBD04FF08272384B36
:1002E0001A60092204331A602022364B1A70063332
:1002F0001A7802F00C020C2AFAD1334A334B1A60F6
:10030000334A344B1A60002204331A600722083B38
:100310001A60314A03F551631A6062B600F07EFE3E
:10032000164B1B6813F0010F05D02C4800F0E6FCBB
:100330002B4A2C4B1A602C4B1B7813F0400F0AD021
:10034000284B1A68264B9A4205D1244800F0D6FC67
:100350000022244B1A6003F0DFFC01F053FF01F090
:10036000D9FDFEE70023124820497CE70E20054016
:1003700030800440823F04000100002B14D0034071
:1003800002D0074000E007409C90FF1F6087FF1FDE
:100390009F90FF1F244900009094FF1FA090FF1F13
:1003A0008B94FF1F00E400E05FE400E008ED00E054
:1003B0000082FF1F005006400640064004400640F1
:1003C0004480044000400640C01005000480044002
:1003D000BFD4010014E000E000002020A2F0A655E8
:1003E000A5C3945A1CE0034000F007400000000041
:1003F000FFFFFFFFFFFFFFFFFFFFFFFFFFFFFFFF0D
:10040000FFFFFFFFFFFFFFFFFFFFFFFFFEFFFFFFFD
:1004100010B5054C237833B9044B13B10448AFF33E
:1004200000800123237010BDA090FF1F000000007A
:100430002449000008B5064B1BB106480649AFF336
:1004400000800648036813B1054B03B1984708BD07
:100450000000000024490000A490FF1F9C90FF1F93
:100460000000000008B50122034B1A7000F0A0FD47
:10047000024B186008BD00BFF490FF1FF090FF1FF3
:100480002DE9F04F87B07E4B1B78002B00F0EC80FD
:100490007C4BD3E90001CDE902017B4BD3E900237A
:1004A00003F070F90022002302F0BAFF06460F465F
:1004B000DFF8FCA1DAE90045744BD3E90001002222
:1004C000734B03F05FF9734BD3E9002303F05AF940
:1004D000714BD3E9002303F055F922462B4603F074
:1004E00051F902460B462046294603F04BF93246A5
:1004F0003B4602F095FFCDE90401684BD3E9006764
:10050000204629465AA3D3E9002303F03BF980464D
:100510008946304639460022614B03F033F954A333
:10052000D3E9002303F02EF951A3D3E9002303F00C
:1005300029F902460B464046494602F071FF002267
:10054000584B03F01FF9DFF878B1DBE9002302F024
:1005500067FF80468946CBE90089DDE90401DDE9D2
:10056000022303F039FA02460B463046394602F0C0
:1005700057FF00224A4B03F005F93DA3D3E90023BE
:1005800003F000F902460B462046294602F048FFD8
:1005900004460D46CAE9004540464946424BD3E968
:1005A000002303F07FFB002836D020462946002296
:1005B000002303F077FB00282ED0204629463B4B32
:1005C000D3E9002303F0DEF804460D4600224FF085
:1005D000404303F067FB10B9CAE9004509E0204633
:1005E000294625A3D3E9002303F0CCF8304BC3E917
:1005F00000012F4BD3E9000100222E4B03F052FBE8
:1006000010B100221E4B1A7000F0D2FC2A4B186069
:1006100000F0CEFC294B1860294BD3E900010022E1
:10062000002303F03FFB98B10024264D264F244EB3
:100630002B685B68284639460122984701342046DA
:1006400003F03AF8D6E9002303F00EFB0028EFD1BF
:100650001C4C174BD3E9002302210091204601F0E6
:10066000AFFC204601F05EFC07B0BDE8F08F00BF94
:100670007B14AE47E17A843F9A9999999999E93F19
:10068000BC90FF1F9887FF1F9087FF1FA887FF1F41
:100690000000E0BFA087FF1FE890FF1FD890FF1F5A
:1006A0000000E03F000059406887FF1F8087FF1F60
:1006B0008887FF1F0000F0BFE090FF1FF090FF1F32
:1006C0007887FF1F9092FF1F6C460000AFF30080F9
:1006D00010B5044601F014FC204610BD08B50920F1
:1006E000002100F04BFB09200949032200F0BEFA6B
:1006F0000C2000F00BF92820012100F03FFB0C201A
:1007000000F00CFB03480449044A01F0E1FB08BD7A
:1007100065040000C090FF1F81040000BF2709008E
:1007200008B5154B1B7813F0FF0F15D000220023DE
:100730001249C1E900230022114B1249C1E90023EB
:10074000114BD3E900231149C1E900230122104BC9
:100750001A700022084B1A7000F02AFC0D4B1B681F
:10076000C01AB0F5FA6F4FF0280034BF40F6FF71A1
:10077000002100F025FB08BDF490FF1FD890FF1F5B
:10078000000018C08887FF1F6887FF1F7887FF1F3A
:10079000BC90FF1FF090FF1F38B5114BD3E9004507
:1007A000204629460CA3D3E9002302F0EBFF0246C2
:1007B0000B462046294602F0E5FF0A4BC3E900013B
:1007C000094800230370802343730849084A03F053
:1007D00093FA38BDAFF30080182D4454FB21094033
:1007E0007087FF1FE890FF1FC090FF1FD106000019
:1007F0006087FF1FAFF3008060223A4B1A70E1223E
:1008000001331A70384B1B78082B10D1212203F1C9
:10081000804303F56C331A60132334490B6001F5F0
:10082000FF2101F2FC710A60314A13601FE00A2BBC
:100830000DD139222F4B1A6013232C490B6001F57F
:10084000FF2101F2FC710A60294A13600FE00C2BB2
:100850000CBF35225D22274B1A60122323490B60FF
:1008600001F5FF2101F2FC710A60214A1360224B5D
:100870001B7833B10123214A136002F50022136073
:1008800005E000231D4A136002F5002213601C4B93
:100890001B78012B06D880231A4A136002F5002228
:1008A00013601AE0042B06D88423164A136002F55D
:1008B0000022136011E0082B06D88523114A13602B
:1008C00002F50022136008E0102B94BF86238723D3
:1008D0000C4A136002F50022136001220A4B1A70C1
:1008E000704700BF00400740B087FF1F0CB00340B7
:1008F0000CB00B4008B00340F790FF1F20B003403E
:10090000B187FF1F24B00340F690FF1F08B50C28E5
:1009100004D9102828BF1020102307E00A2804D883
:10092000092834BF08230A2300E00C23DAB2101A86
:100930000849087008490978994209D0064B1A708D
:10094000064B1B7813B10022054B1A60FFF754FFCA
:1009500008BD00BFF590FF1FB087FF1FF690FF1F77
:1009600024B00340094B1A6842F480521A60084BC5
:100970001B781BB18022074B1A7002E0C022054B86
:100980001A7080F30C00044B188070472C800440D0
:10099000F790FF1F21C00C4000C00C4010B5154B54
:1009A0001C681C6014F4805F05D0134BDB6813B126
:1009B000114BDB68984714F4005F05D00E4B1B69A0
:1009C00013B10D4B1B69984714F0200F05D00A4B4B
:1009D0001B6E13B1084B1B6E984714F0100F07D015
:1009E000054BD3F884301BB1034BD3F884309847C0
:1009F00010BD00BFA0900440F890FF1F10B5274B1A
:100A00001C681C6014F4803F05D0254B1B6813B193
:100A1000234B1B68984714F4003F05D0204B5B68BC
:100A200013B11F4B5B68984714F0010F05D01C4BA6
:100A30001B6C13B11A4B1B6C984714F0020F05D0B6
:100A4000174B5B6C13B1164B5B6C984714F0080F97
:100A500005D0134B9B6C13B1114B9B6C984714F052
:100A6000040F05D00E4BDB6C13B10D4BDB6C9847BC
:100A700014F4002F05D00A4B5B6E13B1084B5B6E6C
:100A8000984714F4802F07D0054BD3F880301BB162
:100A9000034BD3F88030984710BD00BFA0A004409E
:100AA000F890FF1F10B5384B1C681C6014F0080F3D
:100AB00005D0364B5B6A13B1344B5B6A984714F030
:100AC000100F05D0314B9B6A13B1304B9B6A98478E
:100AD00014F0400F05D02D4BDB6A13B12B4BDB6AB2
:100AE000984714F0800F05D0284B1B6B13B1274B90
:100AF0001B6B984714F0200F05D0244B5B6B13B190
:100B0000224B5B6B984714F0010F05D01F4BDB6B3A
:100B100013B11E4BDB6B984714F0020F05D01B4B33
:100B20009B6D13B1194B9B6D984714F0040F05D0C2
:100B3000164BDB6D13B1154BDB6D984714F4007F3A
:100B400005D0124BDB6E13B1104BDB6E984714F4DB
:100B5000807F05D00D4B1B6F13B10C4B1B6F98475B
:100B600014F4806F05D0094B5B6F13B1074B5B6FBB
:100B7000984714F4006F05D0044B9B6F13B1034BDF
:100B80009B6F984710BD00BFA0B00440F890FF1FB6
:100B900010B5264B1C681C6014F0010F05D0244BC7
:100BA0009B6813B1224B9B68984714F0800F05D0C7
:100BB0001F4B5B6913B11E4B5B69984714F0100F14
:100BC00005D01B4B9B6913B1194B9B69984714F0D7
:100BD000040F05D0164BDB6913B1154BDB69984741
:100BE00014F0080F05D0124B1B6A13B1104B1B6A8F
:100BF000984714F0020F05D00D4B9B6B13B10C4BB3
:100C00009B6B984714F0200F05D0094B1B6D13B157
:100C1000074B1B6D984714F0400F05D0044B5B6DDC
:100C200013B1034B5B6D984710BD00BFA0C00440DB
:100C3000F890FF1F10B50B4B1C681C6014F0020FDE
:100C400005D0094B9B6E13B1074B9B6E984714F070
:100C5000010F05D0044BDB6F13B1034BDB6F9847DB
:100C600010BD00BFA0D00440F890FF1F30B4212871
:100C700031D8042A2FD8DFE802F00709050B03005A
:100C80000B2406E00A2404E0082402E00C2400E01F
:100C90000924124B03EBC0035A68114B114DC3F8E2
:100CA0009C51114DC3F8A051104DC3F8A451104DE3
:100CB000C3F8A8510F4DC3F8AC5172B6136823F4B2
:100CC000702313600C4D45F8201043F0807343EA05
:100CD0000444146062B630BC704700BF7046000028
:100CE0000082FF1F9D090000FD090000A50A000009
:100CF000910B0000350C0000F890FF1F044B002200
:100D00001A6004490A60044A106010221A60704791
:100D100014D0034004D0034000D0034018B1102881
:100D200028BF102000E00120014B1870704700BF61
:100D3000B287FF1F21281ED80F4B53F8303093F88D
:100D4000802212F0FF0F08D019B1012283F8802011
:100D50007047012283F800217047074B03EBC00066
:100D6000436821B11A6842F003021A6070471A689A
:100D700022F002021A6070477046000021281CD839
:100D80000E4B03EBC0035B68012908D10B4A52F8F4
:100D9000302082F880124FF4A2721A607047074A1E
:100DA00052F83020002082F8800219B94FF4807286
:100DB0001A60704740F203121A60704770460000D4
:100DC00010B5044628280FD15D4B1B780B2B03D898
:100DD000C3F10C03994003E00C2B84BF0C3B194179
:100DE0000846FFF7BFFD10BD554B1B78012202FAE4
:100DF00003F0002908DC20460021FFF79BFF204676
:100E00000121FFF7BBFF10BD0A46884208D82046E3
:100E10000121FFF78FFF20460121FFF7AFFF10BD33
:100E2000E01EC0B2012806D84648006800FB011247
:100E300022FA03F310E0202C01D0192C06D14248ED
:100E4000006800FB022222FA03F305E03F48006835
:100E500000FB011222FA03F3E01E1D2864D8DFE82C
:100E600000F0474E402B63631D2463636363636339
:100E700063636332390F16635C6363636363635553
:100E8000334A136040F24442324B1A6010BD324A7A
:100E9000136040F24442314B1A6010BD304A136077
:100EA00040F244422F4B1A6010BD2F4A136040F2AB
:100EB00044422E4B1A6010BD2D4A136040F244424A
:100EC0002C4B1A6010BD2C4A136040F244422B4B4D
:100ED0001A6010BD2A4A136040F24442294B1A603E
:100EE00010BD294A136040F24442284B1A6010BDDD
:100EF000274A13604FF45172264B1A6010BD264AE0
:100F000013604FF45172254B1A6010BD244A1360D0
:100F10004FF45172234B1A6010BD234A13604FF4F3
:100F20005172224B1A6010BD20467F29D4BF002188
:100F30000121FFF7FFFE20460121FFF71FFF10BD33
:100F4000B287FF1F0890034008800B4008800340D1
:100F50001080034004B004401880034008B00440EF
:100F6000208003400CB004402880034010B00440AF
:100F70003080034010C004403880034014C0044057
:100F80004080034018C00440488003401CC0044017
:100F90001090034030900440189003403490044077
:100FA00010800B4048A0044018800B404CA0044027
:100FB00072B60C4B1B680C4A12680C49096862B681
:100FC00011F0806F02D0322B88BF0132C3F5EA33B3
:100FD000BF330749A1FB03039B094FF47A7000FB61
:100FE0000230704718E000E08091FF1F04ED00E040
:100FF0008988888838B50546FFF7DAFF044665B169
:10100000FFF7D6FF001BB0F57A7F03D3013D04D074
:1010100004F57A7401F0A4F8F2E738BD10B5254B59
:101020004FF400021A604FF080721A604FF00072A5
:101030001A604FF080621A604FF000621A60002060
:101040001D4B18604EF6FF710433196028231B4AAC
:1010500013600832136008321360083213600832DC
:1010600013600832136008321360083213600922DB
:10107000134C226004F58054043420600434216051
:101080000434236008342360143C226004F5FE24F9
:10109000043420600B4801600B490B6008310B6081
:1010A0000A4B1A60FFF7A8FB0420FFF7A3FF00F02C
:1010B0006BFC10BD08E100E0048003400C8003409D
:1010C0000080034008800B400C800B4000800B40E8
:1010D00030B40E4B1B7843F002020D4C04EBC204FB
:1010E00060600C48007800280CBF8824C82444EABB
:1010F0000141074D45F8321080F00100054A10709B
:1011000083F00103014A137030BC7047EC91FF1F5C
:101110000080FF1F6592FF1F10B4431E032B11D8E0
:1011200072B60A4A52F8230050B14268074941F8A2
:101130002320074A32F813400188611A22F813105D
:1011400062B600E000205DF8044B7047DC91FF1FA1
:101150007C94FF1F013803280DD872B6074B53F853
:1011600020302BB1002001305B68002BFBD100E068
:10117000002062B670470020704700BF3092FF1F0A
:1011800038B572B601231B491B4C5A1812F8012CB2
:1011900012F0080F24D09A0054F832506DB9164B53
:1011A00003EBC20108304860144943F83210144B75
:1011B0001A78013A1A7062B638BD42F0010254F84A
:1011C00032506DB90C4B03EBC201083048600D4939
:1011D00043F832100A4B1A78013A1A7062B638BDD9
:1011E0000133052BD1D162B60022054B1A7000F0F5
:1011F0002FFC38BDA84700000080FF1F880040007A
:101200005A92FF1FC800400010B4431E032B37D86A
:10121000400140F010001C4A104472B61B4AD25CD8
:10122000032A09D8DFE802F019021B050830022260
:1012300016E00830042213E0154A52F823201AB9A8
:10124000134A42F8231003E0124A52F82320516057
:10125000104A42F8231062B612E0032200E0052291
:101260000A4CE25401F10803436000F00803002B2C
:101270000CBF8823C8230A8843EA0243036062B68E
:101280005DF8044B704700BF0080FF1F9891FF1F5F
:101290003092FF1F4092FF1F2DE9F84FA34CDFF85B
:1012A000E092DFF8E0A2DFF8E0B22578EDB215F0C9
:1012B000040F1DD09E4B1B7813F0FF0F16D09D4BD3
:1012C0001B7803F0FF022BB1531EDBB2994A137057
:1012D00003B900BE984B1B7803F0FF0233B1531ED5
:1012E000DBB2954A13700BB900F0F2FC04232370B3
:1012F00015F0080F00F0DC8299F80030DBB21D0910
:1013000040F01D828D4D9E0805EBC6035A6855F8C6
:101310003630C3F38303013B0C2B00F20C82DFE871
:1013200013F0C701C7010A020A020A020A020A02EE
:101330000A02E4010A020A020A020D008049136847
:101340000B6052684A607F4A45F8362000227E4989
:101350000A607A490A618A6101217C4A11709BB254
:1013600040F28162934218D8B3F5D06F2ED2B3F514
:10137000817F00F01E8106D8802B00F0C980822B6F
:1013800000F0CC8062E140F20232934200F026810C
:10139000B3F5A06F00F05E8158E142F22102934262
:1013A00000F0828107D8B3F5086F00F0AB80B3F589
:1013B000106F11D04AE142F22122934200F04181A4
:1013C00042F22132934200F045813FE1604B5D687B
:1013D000002D40F0188130E1594B9A78544B1A7027
:1013E000564D05F180062B6A13F0800F03D0686A12
:1013F000083800F02DFB0835B542F4D1DFF88C81B8
:1014000000263746534AB05828B1456800F020FB03
:101410000DB12846F9E700234E4973504E4AB350A8
:101420004E4BF05828B1456800F012FB0DB128462C
:10143000F9E7002349497350494AB35028F8023F5D
:10144000484BFB5C023B032B0AD8DFE803F00206A3
:1014500002060022434BDA5502E00122414BDA55E5
:1014600001370436102ECDD100223F4B1A700125D2
:101470003E4EDFF81C81314F05EB080313F8013CA9
:1014800006F8043B13F0080F2DD000F0C1FA48B164
:10149000A90007EB451200F108035360344A47F8EE
:1014A000312007E0AB00002247F833202E4B1A789A
:1014B00001321A7000F0ACFA58B1AB0043F00103EE
:1014C00007EBC30100F108024A601E4A47F83320C7
:1014D00009E0AB0043F00103002247F83320224B20
:1014E0001A7801321A70AA0042F00201002347F86C
:1014F000313042F0030247F8323001351D4B9E4235
:10150000BAD116E20A4B1B781B4D2B700127A6E0BF
:10151000194D00232B706B700227A0E0084B9B88AD
:10152000042B37D90F22154B1A70BDE080200740DD
:101530006492FF1FED91FF1F6692FF1F0080FF1F47
:101540005092FF1FC80040008491FF1F6592FF1F4B
:10155000AC470000DC91FF1F8891FF1F3092FF1FF6
:101560004092FF1F9891FF1F5A92FF1FC42007400F
:1015700088004000D42007405C92FF1FC020074035
:101580009020074094200740982007407A94FF1F3E
:10159000A84700009E4A0021117051709D4A12F820
:1015A000233013F0020F58D0994D01232B700227DE
:1015B00055E0994B9B8803F07F02042A02DC964A8F
:1015C00052881AB10F22934B1A706DE0914A12F8AB
:1015D000231021F0020102F82310AAE18E4B9B8810
:1015E00003F07F02042A02DC8B4A52881AB10F22D0
:1015F000884B1A7058E0874A12F8231041F0020114
:1016000002F8231095E1844B5E889F88834BA3F1F9
:101610000C02114633F80C0CB04209D133F80A0C15
:10162000B84205D1360A032E0CBF2F78178916E071
:101630000D690C330C32002DEBD10F22754B1A7053
:1016400032E0754B9A78764B1A7072E10F22714B2B
:101650001A7029E000273D4601E002276C4D6E4BD1
:10166000DB889F4228BF1F46402F34BF3E4640269E
:1016700028463146FFF72CFD3544BF1B03D13F2ED2
:1016800000F25C8110E0402F34BF3E4640262846E1
:101690003146FFF71DFD3544BF1B01D13F2E03D955
:1016A000604B1D60604B1F8001238AF8003042E0D0
:1016B000594B198842F22103994212D15B4BD81D34
:1016C00012F8011B03F8011F8342F9D1584B1B6824
:1016D000862B02D10F22574B1A7000200146FFF7CC
:1016E000F7FC554B45F8363025E04E4B1E68BEB131
:1016F0004D4FB7F80080B8F1400F34BF4546402544
:1017000030462946FFF7E4FCC5EB08039BB23B805B
:101710000BB9402D01D1354400E00025414B1D603F
:101720003D4B1B88B3F5A06F05D13B4B00225A708F
:101730009B788BF8003001238AF80030B5E03F4EEB
:101740009F0806EBC708D8F80420A2F10800013D65
:10175000EDB213F0080F47D000F07AF9384B53F888
:1017600025304BB35A68364941F8252003F1080269
:10177000C8F80420334A525D032A12D8DFE802F089
:1017800002060A0E03212F4A51550AE002212D4A72
:10179000515506E005212B4A515502E00421294A02
:1017A000515518F0080F0CBF8822C8221B8842EA46
:1017B000034346F8373078E0224B5B5D032B0BD8B0
:1017C000DFE803F07373020600221E4B5A556CE0EB
:1017D00001221C4B5A5568E018F0080F0CBF02227A
:1017E0000322184B5A5560E056F837301B0C22F88C
:1017F000083C002B51D0002322F8063C42F8043C60
:10180000114B53F825300BBB0F4B43F8250021E05B
:101810005C92FF1FC02007405092FF1FB847000096
:101820007492FF1F8491FF1F5892FF1F8394FF1F24
:101830008494FF1FED91FF1FC80040000080FF1F30
:101840003092FF1F9891FF1FDC91FF1F3F4B53F811
:10185000253058603D4B43F825003D4B33F81510BB
:1018600032F8082C0A4423F8152000F0D1F860B1B2
:1018700000F10803C8F8043018F0080F354B364A59
:1018800008BF134646F837300FE0002346F83730DC
:10189000324B1A7801321A7007E018F0080F2D4BFE
:1018A0002D4A08BF134646F8373008232370FCE45E
:1018B00015F0010F22D02A4902230B700022294B78
:1018C0001A70294B24481860284C5C60986028489E
:1018D000D8601A619A610D20264B1870FF232648A4
:1018E00003700838037018300270244A13709F2266
:1018F000234B1A7001230B70BDE8F88F15F0800F91
:1019000005D00D221B4B1A708022403B1A7015F037
:10191000020F06D0184B1A78D2B21A700222083B76
:101920001A7015F0100F0ED01022164B1A70BDE869
:10193000F88F00200146FFF7CBFBB5E628460021D3
:10194000FFF7C6FBB0E6BDE8F88F00BF8891FF1F28
:101950007C94FF1FC8004000880040005A92FF1F7F
:1019600094200740EC91FF1F0080FF1F9C91FF1FF8
:10197000F091FF1FC0200740882007408C200740BF
:10198000842007408020074008B501F06DFB00234C
:101990001B491A465A50C81842600833882BF9D19F
:1019A000184B1A6842F480221A60154BC3F30721C2
:1019B000154A1170C3F30741143211701B0E043223
:1019C0001370FF23343A137008321370783A13708F
:1019D00001238432137000216C3211707C3A137031
:1019E00070220A4B1A704FF40072A3F241331A604E
:1019F000102203F1C04303F5C8231A7008BD00BFCD
:101A00000080FF1F348004409C20074049E400E030
:101A100072B60D4B1A68B2FA82F30B2B02D962B67A
:101A2000002070474FF00041D94022EA01020649E8
:101A30000A6062B6054903EBC303DB00C818002245
:101A4000CA504260704700BFB487FF1F0084FF1F69
:101A500008B50F4BC31A0F4AA2FB03131B090B2B2C
:101A600014D80D4A12783AB10C4A127812F0FF0FCE
:101A700002D0FFF785FB08BD72B6094A4FF000415E
:101A800021FA03F311681943116062B608BD00BF63
:101A90000084FF1F398EE3385A92FF1F6492FF1FA4
:101AA000B487FF1F10B5134B1B6853B9124B1B783B
:101AB00013F0FF0F18D00320FFF72EFB0D4B18601B
:101AC000A8B10C4B186843885A1C03441C7A03883D
:101AD0009A4206D3FFF7BCFF0022064B1A6020464D
:101AE00010BD4280204610BD4FF0FF3010BD4FF0BA
:101AF000FF3010BD7092FF1F6492FF1F08B50D4BA1
:101B00001B6883B90C4B1B7813F0FF0F08D0032020
:101B1000FFF702FB074B186028B94FF0FF3008BDF4
:101B20004FF0FF3008BD034B1B685A881344187AE6
:101B300008BD00BF7092FF1F6492FF1F044B98887E
:101B4000044B1B681BB11A885B88D31A1844704772
:101B50007C94FF1F7092FF1F2DE9F047044601227D
:101B6000374B1A700E46002964D0DFF8E080DFF8AA
:101B7000E0909A46334FD8F8003083BB99F8003094
:101B800013F0FF0F06D100222D4B1A704FF0FF30DB
:101B9000BDE8F0874DF2E9050420FFF7DBFA0728DE
:101BA0000AD801238AF80030FFF732FFC8F8000096
:101BB000A8B900238AF80030013D01D03B7833B149
:101BC0000122204B1A704FF0FF30BDE8F08700F083
:101BD000C7FA99F8003013F0FF0FDDD1D3E70023E7
:101BE0003B70D8F800104A88C2F14005AE4238BFB9
:101BF000354602F108030B442A444A80761B3DB166
:101C0000254414F8012B03F8012BAC42F9D100E074
:101C100025464B883F2B07D940230B800420FFF734
:101C2000F3FA0023C8F800300522074B1A700EB1F2
:101C30002C46A0E70020024B1870BDE8F08700BFDB
:101C40006792FF1F6C92FF1F6692FF1F6892FF1F33
:101C50006492FF1F00B583B002AB03F8010D184674
:101C60000121FFF779FF03B05DF804FB10B5144BB9
:101C70001B7813F0FF0F21D00122124B1A70124B68
:101C8000196851B10024114B1C704B880B80042043
:101C9000FFF7BAFA0C4B1C600DE0FFF7B9FE0146E6
:101CA00030B10022094B1A700420FFF7ADFA02E0B0
:101CB0000122064B1A700022024B1A7010BD00BFA1
:101CC0006492FF1F6792FF1F6892FF1F6692FF1FBB
:101CD00008B50E4B1B7813F0FF0F16D10C4B19688B
:101CE00041B14B880B800420FFF78EFA0022084B8D
:101CF0001A6008BDFFF78CFE014618B10420FFF7FB
:101D000083FA08BD0122034B1A7008BD6792FF1FBA
:101D10006892FF1F6692FF1F08B50122024B1A60EE
:101D2000024B1B68984708BD0C7103408092FF1F4F
:101D300008B50122024B1A60024B5B68984708BD48
:101D40001C7103408092FF1F08B50122024B1A60EC
:101D5000024B9B68984708BD2C7103408092FF1F7F
:101D600008B50122024B1A60024BDB68984708BD98
:101D70003C7103408092FF1F054B1A6842F4000239
:101D80001A600022034B1A600122034B1A7070473D
:101D90003C800440007003407C92FF1F0122064BF0
:101DA0001A6003F588333C331A6822F400021A6083
:101DB0000022024B1A707047007003407C92FF1F94
:101DC00010B442781401164B23444360154B23444E
:101DD00083600369144C44F82230836800221A603F
:101DE00043681960836803221A6043784433DBB286
:101DF000037303F1604303F56443427B1A70027B73
:101E000053119B0003F1604303F5614302F01F028D
:101E1000012101FA02F21A605DF8044B704700BF1D
:101E200000710340087103408092FF1F70B50446A3
:101E30000D46134B1B780BB9FFF79EFF114B1B7818
:101E40008BB1104B5B7843B10E4B9B7843B10D4B7C
:101E5000DB789BB903231E4607E001231E4604E0FE
:101E600002231E4601E000263346637020462946C1
:101E7000FFF7A6FF0120034B985570BD002070BDF1
:101E80007C92FF1F7892FF1F10B5836800221A60B2
:101E9000037B5C1103F01F03012101FA03F30A49DC
:101EA00041F82430094B41785A541B7853B9074BF9
:101EB0005B783BB9054B9B7823B9044BDB780BB9B6
:101EC000FFF76CFF10BD00BF80E100E07892FF1FBC
:101ED00070B504460E46154603781BB1FFF7D4FFD4
:101EE00000232370266120462946FFF79FFF10B18B
:101EF0000123237001E000232370207870BD00BF10
:101F000010B5044603780BB1FFF7BEFF0023237022
:101F100010BD00BF08B5FEF7E1FBFEF701FC00F0C5
:101F20001FF9FAE700B583B0054B1B88ADF8043004
:101F300003685B6801A90222984703B05DF804FBBF
:101F400080470000F0B58BB0164622B903681B68C5
:101F5000C9B298472FE0012A08BF0A2621B93022CA
:101F60008DF82520212417E021243746B1FBF6F512
:101F700006FB1515EDB22246092D94BF30353735D5
:101F8000EDB20DF1280E724402F8245CB1FBF7F1BA
:101F900011B1013CE4B2E9E733B1013CE4B20AAB70
:101FA00023442D2203F8242C03685B6801A92144F3
:101FB000C4F1220298470BB0F0BD00BFFFFFFFFF46
:101FC0002DE9F04F85B0814616461F469DF83880B2
:101FD000104619460022002301F046FE28B107F101
:101FE00000431F464FF0010A01E04FF0000AB8F12C
:101FF000000F6ED04FF0000B0022414B3EA5D5E9FB
:1020000000451046194622462B4601F0BBFB02460E
:102010000B460BF1010B5FFA8BF18845F1D82AE0F2
:102020003E462046294652465B4601F0ABFB04463D
:102030000D4601F041FEC0B2771CFFB204AB1E4456
:1020400000F1300306F8083C01F036FB02460B466F
:102050002046294601F0E2F904460D464745DFD106
:1020600001E04FF00108D9F800305B68484602A94A
:10207000424698473CE03046394601F0D1F90446E3
:102080000D4601F019FE064601F006FB02460B461E
:102090002046294601F0C2F904460D46484631461D
:1020A0000A225346FFF74EFF01902E238DF8083089
:1020B000B8F1070F34BF43460723002BD1D003F1FB
:1020C00001085FFA88F801264FF0000ADFF834B003
:1020D000A7E7304639460022094B01F0A1F901F08B
:1020E000EBFD014648460A225346FFF72BFF0190BD
:1020F000019805B0BDE8F08F9A9999999999B93FDF
:102100000000E03F0000244008B5FFF717FD08BDC0
:1021100008B5FFF7C7FC08BD08B5FFF7EFFC08BD21
:1021200008B5FFF7A3FD08BD08B50846FFF792FD07
:1021300008BD00BF08B508461146FFF70DFD08BDF4
:10214000704700BF044B00221A714FF47A719960F6
:102150001A73024A1A6070479092FF1F904700005E
:1021600008B50F4B1B78CBB901220D4B1A70FFF746
:10217000E5FC08B1FFF7E4FF00F028FA08B101F030
:102180002DF800F09FFC08B101F0AEF800F0BCFEA5
:1021900008B101F02FF90022014B1A7008BD00BFF1
:1021A000A092FF1F024B1A6801321A60704700BFED
:1021B0008091FF1F08B50D4C236813F4802F01D0C8
:1021C000FFF76AF8236813F4806F01D000F062FA19
:1021D000236813F4006F01D000F0D8FC236813F4D7
:1021E000805FE9D000F0E0FEE6E700BF3480044005
:1021F00008B5FFF7DFFF00BF1022014B1A807047C0
:1022000000200540704700BF024A13681844106060
:1022100018467047B887FF1FEFF31383ABB9EFF38E
:102220001083ABB9EFF3058323B10F2B05D9094A0E
:10223000985C03E04FF4807000E00020EFF311831E
:102240003BB1834238BF184670474FF0FF307047AC
:1022500000207047F0E300E030B40023B0FBF2F45C
:1022600002FB14041D46092C94BF30343734E4B209
:10227000CC54B0FBF2F008B10133EFE70D4400227B
:102280006A70934207DD885CCC5C8C54C854013280
:10229000013B9A42F7DB084630BC7047194B1A687D
:1022A00042F480621A600023174A1370174A1370B1
:1022B000174A1370174A1370174A137040F21332FB
:1022C000164B1A604FF4517204331A60C0F3443253
:1022D000134B1A70C0F347125A7000F01F00987227
:1022E00004229A700221D9745A7588221A743C22E9
:1022F000DA7040220B4B1A704FF40052A3F22933CC
:102300001A607047348004402493FF1FA292FF1F7D
:102310002C93FF1F2593FF1FA192FF1F40A0044095
:1023200000A006402DE400E0164B9B7803F0EC0380
:1023300000F00302134310F0040F18BF43F0100322
:10234000104A937000F00F03042B04D113469279C6
:1023500042F040029A710B4B5A7902F0EF0210F0F2
:10236000100F18BF42F01002064B5A719B7903F010
:10237000EF0310F0200F18BF43F01003014A9371D0
:10238000704700BF00A0064010B5114B1B6813F446
:10239000806F1CD00F4B1B7813F0FF0F06D00D4C35
:1023A000FFF7DEFE237813F0FF0FF9D14FF4005250
:1023B000094B1A600023094AD37040F203120849FE
:1023C0000A6004310A60074A1370074A137010BD8F
:1023D00034800440A192FF1F84E100E000A0064089
:1023E00040A004402493FF1FA292FF1F10B5044693
:1023F000094A137813F0FF0FFBD120460121FEF7A5
:10240000BDFC20460021FEF795FC044B53F8342018
:10241000034B1A6010BD00BFA192FF1F7046000061
:102420002893FF1F2DE9F04107461F4B1B6813F44B
:10243000806F37D01D4B1B680BB101221A701C4BEB
:102440001C780134402C28BF00241A4D1A4EDFF8A6
:102450006C8017E0FFF7E0FE40280FDC337913F0C3
:10246000800F0FD02B780133402B28BF002318F8A2
:102470000320D2B2F271DBB22B7003E0FF2801DD42
:10248000FFF76EFE2B78DBB29C42E3D0FFB20B4B22
:102490001F5501220A4B1A70E4B2054B1C70BC2276
:1024A000054BDA70BDE8F081348004402893FF1FAB
:1024B0002C93FF1F2593FF1F00A00640A492FF1F2F
:1024C000A192FF1F2DE9F84F0746284B1B6813F414
:1024D000806F49D0264B1B680BB101221A7007EBA5
:1024E000010B5F453DD2DFF89890224EDFF88C80DB
:1024F000DFF890A099F800400134402C28BF002458
:102500003578EDB2A54220D1BC2388F80330FFF71F
:1025100083FE402811DC98F8043013F0800F10D0AF
:1025200033780133402B28BF00231AF80320D2B29E
:1025300088F80720DBB2337003E0FF2801DDFFF7E6
:102540000FFE3378DBB29D42E1D017F8013B0AF869
:1025500004300122084B1A70E4B289F800405F454C
:10256000C8D1BC22054BDA70BDE8F88F3480044036
:102570002893FF1F2593FF1FA192FF1F00A0064075
:102580002C93FF1FA492FF1F10B5064B1B7813F06E
:10259000FF0F06D0034CFFF7E3FD237813F0FF0F86
:1025A000F9D110BDA192FF1F064B1B78DBB2064A82
:1025B0001278D2B293422CBF3F3202F1FF32D01ACE
:1025C000704700BF2C93FF1F2593FF1F054B187802
:1025D000C0B2054B1B78DBB2984238BF4030C01AFE
:1025E000704700BF2493FF1FA292FF1F0A4B1A7867
:1025F000D2B20A4B1B78DBB29A4209D00133402B8E
:1026000028BF0023064AD05CDBB2044A137070472F
:102610004FF0FF30704700BF2493FF1FA292FF1FAF
:10262000E492FF1F094B1A78D2B2094B1B78DBB238
:102630009A4207D00133402B28BF0023054AD05CC3
:10264000C0B270474FF0FF30704700BF2493FF1FA8
:10265000A292FF1FE492FF1F0A4B1B6813F4806FC6
:102660000FD0094BDA7802F0CB02DA7040225A74AC
:10267000DA7842F03402DA70044B1A78D2B2044BA2
:102680001A7070473480044000A00640A292FF1FD9
:102690002493FF1F70B4364B1B7913F0300F25D0F5
:1026A00072B6334B9B7D03F0FF022BB9304BDA79C6
:1026B00040225A7462B619E062B62E4B1978C9B23C
:1026C0002D4B1D78EDB22A4C2C4EE379D8B24B1C21
:1026D000402B28BF0023AB421CBFF0541946531EA9
:1026E00013F0FF02F1D1C9B2224B1970204BDA78F6
:1026F000D2B212F0800F27D01B7913F0800F23D0B5
:102700001F4B1C78E4B21F4B1B78DBB29C4210D0ED
:1027100017491D4D01E0A3420BD00133402B28BFC8
:1027200000230879E85CC0B2C871087DC0B20728F0
:10273000F1D9DBB213490B700D4B1B7913F0800FED
:1027400002D07C210A4BD97012F0400F0ED0084BFA
:102750001B7913F0400F09D000220C4B1A700C4B60
:102760001B6803B11A703C22014BDA7070BC7047D1
:1027700000A006402493FF1FA292FF1FE492FF1FB8
:102780002C93FF1F2593FF1FA492FF1FA192FF1FF1
:102790002893FF1F194B1A6842F400621A60002345
:1027A000174A1370174A1370174A1370174A137099
:1027B000174A137040F21332164B1A604FF45172DD
:1027C00004331A60C0F34432134B1A70C0F347123B
:1027D0005A7000F01F00987204229A700221D97476
:1027E0005A7588221A743C22DA7040220B4B1A70F8
:1027F0004FF40042A3F22B331A6070473480044038
:102800009893FF1F2E93FF1FA093FF1F9993FF1F05
:102810002D93FF1F0CB0044000B006402FE400E0F1
:10282000164B9B7803F0EC0300F00302134310F007
:10283000040F18BF43F01003104A937000F00F0309
:10284000042B04D11346927942F040029A710B4B4B
:102850005A7902F0EF0210F0100F18BF42F0100288
:10286000064B5A719B7903F0EF0310F0200F18BF4D
:1028700043F01003014A9371704700BF00B0064057
:1028800010B5114B1B6813F4006F1CD00F4B1B7855
:1028900013F0FF0F06D00D4CFFF762FC237813F006
:1028A000FF0FF9D14FF40042094B1A600023094A87
:1028B000D37040F2031208490A6004310A60074AE3
:1028C0001370074A137010BD348004402D93FF1F0E
:1028D00084E100E000B006400CB004409893FF1F74
:1028E0002E93FF1F10B50446094A137813F0FF0F0B
:1028F000FBD120460121FEF741FA20460021FEF7D8
:1029000019FA044B53F83420034B1A6010BD00BF72
:102910002D93FF1F704600009C93FF1F2DE9F0418F
:1029200007461F4B1B6813F4006F37D01D4B1B6805
:102930000BB101221A701C4B1C780134282C28BFC3
:1029400000241A4D1A4EDFF86C8017E0FFF764FC84
:1029500040280FDC337913F0800F0FD02B78013330
:10296000282B28BF002318F80320D2B2F271DBB263
:102970002B7003E0FF2801DDFFF7F2FB2B78DBB2C1
:102980009C42E3D0FFB20B4B1F5501220A4B1A7039
:10299000E4B2054B1C70BC22054BDA70BDE8F08137
:1029A000348004409C93FF1FA093FF1F9993FF1F47
:1029B00000B006403093FF1F2D93FF1F2DE9F84F05
:1029C0000746284B1B6813F4006F49D0264B1B6841
:1029D0000BB101221A7007EB010B5F453DD2DFF806
:1029E0009890224EDFF88C80DFF890A099F8004094
:1029F0000134282C28BF00243578EDB2A54220D11F
:102A0000BC2388F80330FFF707FC402811DC98F856
:102A1000043013F0800F10D033780133282B28BFF7
:102A200000231AF80320D2B288F80720DBB23370F3
:102A300003E0FF2801DDFFF793FB3378DBB29D4213
:102A4000E1D017F8013B0AF804300122084B1A7054
:102A5000E4B289F800405F45C8D1BC22054BDA706A
:102A6000BDE8F88F348004409C93FF1F9993FF1FAB
:102A70002D93FF1F00B00640A093FF1F3093FF1F50
:102A800010B5064B1B7813F0FF0F06D0034CFFF771
:102A900067FB237813F0FF0FF9D110BD2D93FF1FB3
:102AA000064B1B78DBB2064A1278D2B293422CBF97
:102AB000273202F1FF32D01A704700BFA093FF1FE8
:102AC0009993FF1F054B1878C0B2054B1B78DBB2FA
:102AD000984238BF4030C01A704700BF9893FF1F1C
:102AE0002E93FF1F0A4B1A78D2B20A4B1B78DBB227
:102AF0009A4209D00133402B28BF0023064AD05CFC
:102B0000DBB2044A137070474FF0FF30704700BFCC
:102B10009893FF1F2E93FF1F5893FF1F094B1A789E
:102B2000D2B2094B1B78DBB29A4207D00133402B5B
:102B300028BF0023054AD05CC0B270474FF0FF3079
:102B4000704700BF9893FF1F2E93FF1F5893FF1FDE
:102B50000A4B1B6813F4006F0FD0094BDA7802F0B0
:102B6000CB02DA7040225A74DA7842F03402DA701A
:102B7000044B1A78D2B2044B1A7070473480044068
:102B800000B006402E93FF1F9893FF1F70B4364B82
:102B90001B7913F0300F25D072B6334B9B7D03F0B9
:102BA000FF022BB9304BDA7940225A7462B619E031
:102BB00062B62E4B1978C9B22D4B1D78EDB22A4C56
:102BC0002C4EE379D8B24B1C402B28BF0023AB42DC
:102BD0001CBFF0541946531E13F0FF02F1D1C9B2C5
:102BE000224B1970204BDA78D2B212F0800F27D026
:102BF0001B7913F0800F23D01F4B1C78E4B21F4BBE
:102C00001B78DBB29C4210D017491D4D01E0A34256
:102C10000BD00133282B28BF00230879E85CC0B211
:102C2000C871087DC0B20728F1D9DBB213490B7017
:102C30000D4B1B7913F0800F02D07C210A4BD97009
:102C400012F0400F0ED0084B1B7913F0400F09D043
:102C500000220C4B1A700C4B1B6803B11A703C22FB
:102C6000014BDA7070BC704700B006409893FF1FAC
:102C70002E93FF1F5893FF1FA093FF1F9993FF1FD1
:102C80003093FF1F2D93FF1F9C93FF1F174B1A6854
:102C900042F480521A600023154A1370154A1370CB
:102CA000154A1370154A1370154A137040F2133108
:102CB000144A11604FF4517104321160C0F3443171
:102CC000114A1170C0F34711517000F01F0090724B
:102CD000937013742C23D37040220C4B1A704FF452
:102CE0000032A3F22D331A60704700BF34800440D5
:102CF0000C94FF1FA293FF1F1494FF1F0D94FF1F3E
:102D0000A193FF1F08C0044000C0064031E400E06A
:102D1000164B9B7803F0EC0300F00302134310F012
:102D2000040F18BF43F01003104A937000F00F0314
:102D3000042B04D11346927942F040029A710B4B56
:102D40005A7902F0EF0210F0100F18BF42F0100293
:102D5000064B5A719B7903F0EF0310F0200F18BF58
:102D600043F01003014A9371704700BF00C0064052
:102D700010B5114B1B6813F4805F1CD00F4B1B78F0
:102D800013F0FF0F06D00D4CFFF7EAF9237813F08C
:102D9000FF0FF9D14FF40032094B1A600023094AA2
:102DA000D37040F2031208490A6004310A60074AEE
:102DB0001370074A137010BD34800440A193FF1FA5
:102DC00084E100E000C0064008C004400C94FF1FEE
:102DD000A293FF1F10B50446094A137813F0FF0FA2
:102DE000FBD120460121FDF7C9FF20460021FDF758
:102DF000A1FF044B53F83420034B1A6010BD00BFF1
:102E0000A193FF1F704600001094FF1F2DE9F041B1
:102E100007461F4B1B6813F4805F37D01D4B1B68A0
:102E20000BB101221A701C4B1C780134282C28BFCE
:102E300000241A4D1A4EDFF86C8017E0FFF7ECF90A
:102E400040280FDC337913F0800F0FD02B7801333B
:102E5000282B28BF002318F80320D2B2F271DBB26E
:102E60002B7003E0FF2801DDFFF77AF92B78DBB246
:102E70009C42E3D0FFB20B4B1F5501220A4B1A7044
:102E8000E4B2054B1C70AC22054BDA70BDE8F08152
:102E9000348004401094FF1F1494FF1F0D94FF1FF3
:102EA00000C00640A493FF1FA193FF1F38B505463D
:102EB0000C4629B115F8010BFFF7A8FF013CF9D129
:102EC00038BD00BF10B5064B1B7813F0FF0F06D0BE
:102ED000034CFFF745F9237813F0FF0FF9D110BD2C
:102EE000A193FF1F064B1B78DBB2064A1278D2B2C1
:102EF00093422CBF273202F1FF32D01A704700BF35
:102F00001494FF1F0D94FF1F054B1878C0B2054B9A
:102F10001B78DBB2984238BF4030C01A704700BF00
:102F20000C94FF1FA293FF1F0A4B1A78D2B20A4BD0
:102F30001B78DBB29A4209D00133402B28BF002313
:102F4000064AD05CDBB2044A137070474FF0FF3082
:102F5000704700BF0C94FF1FA293FF1FCC93FF1F6D
:102F6000094B1A78D2B2094B1B78DBB29A4207D0D0
:102F70000133402B28BF0023054AD05CC0B2704704
:102F80004FF0FF30704700BF0C94FF1FA293FF1F4C
:102F9000CC93FF1F024B1A78D2B2024B1A707047C3
:102FA000A293FF1F0C94FF1F264B1B7913F0200FD9
:102FB00012D0244BDB79D9B2234B1B780133402B41
:102FC00028BF0023214A1278D2B29A4204D0204A64
:102FD000D154DBB21C4A13701A4BDB78DBB213F00E
:102FE000800F1CD0174A127912F0800F17D0194A9F
:102FF0001178C9B2184A1278D2B2914203D16C2129
:10300000104AD1700BE00132282A28BF0022134950
:10301000885CC0B20B49C871D2B20F490A7013F074
:10302000400F0ED0074B1B7913F0400F09D0002240
:103030000B4B1A700B4B1B6803B11A702C22014BFF
:10304000DA70704700C006400C94FF1FA293FF1F68
:10305000CC93FF1F1494FF1F0D94FF1FA493FF1F19
:10306000A193FF1F1094FF1F00B585B072B61B4BD4
:1030700070221A7041211A4A11700F21013A117001
:1030800080221A701A46137813F0800FFBD0154B6C
:10309000186862B6144B98429CBF00EB8000400059
:1030A00001A90A22FFF7D8F89DF804307BB908E09F
:1030B00001A9595C31B19180023201330A2BF7D159
:1030C00000E0002301335B00084A137003E0074A65
:1030D00053800123ECE705B05DF804FB00000240DB
:1030E00007000240080002407F9698004888FF1FB2
:1030F00008B503681B68C9B2984708BD08B50368DE
:103100001B68C9B2984708BD08B503681B68C9B2F7
:10311000984708BD08B503681B68C9B2984708BD41
:1031200008B5044800EB5100B0FBF1F0FFF7B6F82A
:1031300008BD00BF001C4E0E10B51446054800EB3C
:103140005100B0FBF1F0FFF7A9F82046FFF7ECF8CB
:1031500010BD00BF001C4E0E08B5FFF715F908BDE5
:1031600008B50846FFF742F908BD00BF08B5FFF7EC
:103170002DFA08BD08B5FFF755FA08BD08B5FFF7E9
:1031800035FA08BD08B5FFF7FFF908BD08B5FFF728
:1031900063FA08BD08B5FFF707FA08BD08B5084689
:1031A000FFF740F9012008BD08B50846FFF73AF9D6
:1031B000012008BD10B5144608461146FFF782F9F4
:1031C000204610BD38B50D46084601F087F8044684
:1031D00028462146FFF776F9204638BD704700BFE4
:1031E000044B00221A714FF47A7199601A73024AE3
:1031F0001A6070471894FF1F0848000008B503685C
:103200001B68C9B2984708BD08B503681B68C9B2F6
:10321000984708BD08B503681B68C9B2984708BD40
:1032200008B503681B68C9B2984708BD08B50448CB
:1032300000EB5100B0FBF1F0FFF7ACFA08BD00BFA6
:10324000001C4E0E10B51446054800EB5100B0FBB3
:10325000F1F0FFF79FFA2046FFF7E2FA10BD00BF3A
:10326000001C4E0E08B5FFF70BFB08BD08B508465D
:10327000FFF738FB08BD00BF08B5FFF723FC08BD0A
:1032800008B5FFF74BFC08BD08B5FFF72BFC08BDE0
:1032900008B5FFF7F5FB08BD08B5FFF759FC08BDF9
:1032A00008B5FFF7FDFB08BD08B50846FFF736FB7C
:1032B000012008BD08B50846FFF730FB012008BD16
:1032C00010B5144608461146FFF778FB204610BD9E
:1032D00038B50D46084601F001F804462846214657
:1032E000FFF76CFB204638BD704700BF044B00223F
:1032F0001A714FF47A7199601A73024A1A60704712
:103300002894FF1F5848000008B503681B68C9B21D
:10331000984708BD08B503681B68C9B2984708BD3F
:1033200008B503681B68C9B2984708BD08B50368AB
:103330001B68C9B2984708BD08B5044800EB5100A6
:10334000B0FBF1F0FFF7A2FC08BD00BF000E27079D
:1033500010B51446054800EB5100B0FBF1F0FFF743
:1033600095FC2046FFF7D4FC10BD00BF000E2707D8
:1033700008B5FFF7FDFC08BD08B50846FFF72AFDB4
:1033800008BD00BF08B5FFF7BFFD08BD08B5FFF7D2
:10339000E7FD08BD08B5FFF7C7FD08BD08B5FFF795
:1033A00091FD08BD08B5FFF7F5FD08BD08B5FFF7AD
:1033B00099FD08BD08B50846FFF728FD012008BDA6
:1033C00008B50846FFF722FD012008BD10B51446D8
:1033D00008461146FFF76AFD204610BD38B50D4678
:1033E000084600F07BFF044628462146FFF75EFDB5
:1033F000204638BD704700BF044B00221A714FF4BD
:103400007A7199601A73024A1A6070473894FF1FE4
:10341000A848000081F0004102E000BF83F00043B3
:1034200030B54FEA41044FEA430594EA050F08BF5F
:1034300090EA020F1FBF54EA000C55EA020C7FEA23
:10344000645C7FEA655C00F0E2804FEA5454D4EBA0
:103450005555B8BF6D420CDD2C4480EA020281EA6A
:10346000030382EA000083EA010180EA020281EAA2
:103470000303362D88BF30BD11F0004F4FEA0131F4
:103480004FF4801C4CEA113102D0404261EB410103
:1034900013F0004F4FEA03334CEA133302D0524289
:1034A00063EB430394EA050F00F0A780A4F1010445
:1034B000D5F1200E0DDB02FA0EFC22FA05F280187F
:1034C00041F1000103FA0EF2801843FA05F3594165
:1034D0000EE0A5F120050EF1200E012A03FA0EFCE4
:1034E00028BF4CF0020C43FA05F3C01851EBE3710E
:1034F00001F0004507D54FF0000EDCF1000C7EEB2B
:1035000000006EEB0101B1F5801F1BD3B1F5001F68
:103510000CD349085FEA30004FEA3C0C04F1010487
:103520004FEA445212F5800F80F09A80BCF1004FB0
:1035300008BF5FEA500C50F1000041EB045141EA32
:10354000050130BD5FEA4C0C404141EB010111F433
:10355000801FA4F10104E9D191F0000F04BF0146DE
:103560000020B1FA81F308BF2033A3F10B03B3F1BC
:1035700020020CDA0C3208DD02F1140CC2F10C024C
:1035800001FA0CF021FA02F10CE002F11402D8BFAA
:10359000C2F1200C01FA02F120FA0CFCDCBF41EA76
:1035A0000C019040E41AA2BF01EB0451294330BD45
:1035B0006FEA04041F3C1CDA0C340EDC04F1140422
:1035C000C4F1200220FA04F001FA02F340EA0300F9
:1035D00021FA04F345EA030130BDC4F10C04C4F13F
:1035E000200220FA02F001FA04F340EA030029461F
:1035F00030BD21FA04F0294630BD94F0000F83F469
:10360000801306BF81F480110134013D4EE77FEA4B
:10361000645C18BF7FEA655C29D094EA050F08BF97
:1036200090EA020F05D054EA000C04BF1946104678
:1036300030BD91EA030F1EBF0021002030BD5FEABC
:10364000545C05D14000494128BF41F0004130BDE4
:1036500014F580043CBF01F5801130BD01F0004538
:1036600045F0FE4141F470014FF0000030BD7FEAAB
:10367000645C1ABF194610467FEA655C1CBF0B46A6
:10368000024650EA013406BF52EA033591EA030FBD
:1036900041F4002130BD00BF90F0000F04BF0021B5
:1036A000704730B54FF4806404F132044FF00005E8
:1036B0004FF0000150E700BF90F0000F04BF002161
:1036C000704730B54FF4806404F1320410F00045C7
:1036D00048BF40424FF000013EE700BF42004FEAC2
:1036E000E2014FEA31014FEA02701FBF12F07F433F
:1036F00093F07F4F81F06051704792F0000F14BF3C
:1037000093F07F4F704730B54FF4607401F000457F
:1037100021F0004120E700BF50EA010208BF7047D6
:1037200030B54FF000050AE050EA010208BF7047CB
:1037300030B511F0004502D5404261EB41014FF434
:10374000806404F132045FEA915C3FF4DCAE4FF038
:1037500003025FEADC0C18BF03325FEADC0C18BF1F
:10376000033202EBDC02C2F1200300FA03FC20FA70
:1037700002F001FA03FE40EA0E0021FA02F11444BD
:10378000C1E600BF70B54FF0FF0C4CF4E06C1CEAD2
:1037900011541DBF1CEA135594EA0C0F95EA0C0F47
:1037A00000F0DEF82C4481EA030621EA4C5123EABA
:1037B0004C5350EA013518BF52EA033541F48011E9
:1037C00043F4801338D0A0FB02CE4FF00005E1FB9C
:1037D00002E506F00042E0FB03E54FF00006E1FBE6
:1037E00003569CF0000F18BF4EF0010EA4F1FF0429
:1037F000B6F5007F64F5407404D25FEA4E0E6D4169
:1038000046EB060642EAC62141EA55514FEAC52079
:1038100040EA5E504FEACE2EB4F1FD0C88BFBCF5F5
:10382000E06F1ED8BEF1004F08BF5FEA500E50F1A6
:10383000000041EB045170BD06F0004646EA01016C
:1038400040EA020081EA0301B4EB5C04C2BFD4EB9E
:103850000C0541EA045170BD41F480114FF0000E97
:10386000013C00F3AB8014F1360FDEBF002001F005
:10387000004170BDC4F10004203C35DA0C341BDC7F
:1038800004F11404C4F1200500FA05F320FA04F051
:1038900001FA05F240EA020001F0004221F0004185
:1038A00010EBD37021FA04F642EB06015EEA430EF8
:1038B00008BF20EAD37070BDC4F10C04C4F1200528
:1038C00000FA04F320FA05F001FA04F240EA0200DB
:1038D00001F0004110EBD37041F100015EEA430EAC
:1038E00008BF20EAD37070BDC4F1200500FA05F2CC
:1038F0004EEA020E20FA04F301FA05F243EA02034B
:1039000021FA04F001F0004121FA04F220EA020059
:1039100000EBD3705EEA430E08BF20EAD37070BD9F
:1039200094F0000F0FD101F00046400041EB01017F
:1039300011F4801F08BF013CF7D041EA060195F061
:10394000000F18BF704703F00046520043EB03031B
:1039500013F4801F08BF013DF7D043EA0603704708
:1039600094EA0C0F0CEA135518BF95EA0C0F0CD013
:1039700050EA410618BF52EA4306D1D181EA030159
:1039800001F000414FF0000070BD50EA410606BF53
:103990001046194652EA430619D094EA0C0F02D198
:1039A00050EA013613D195EA0C0F05D152EA0336DD
:1039B0001CBF104619460AD181EA030101F00041FB
:1039C00041F0FE4141F470014FF0000070BD41F044
:1039D000FE4141F4780170BD70B54FF0FF0C4CF41E
:1039E000E06C1CEA11541DBF1CEA135594EA0C0F3D
:1039F00095EA0C0F00F0A7F8A4EB050481EA030E8A
:103A000052EA03354FEA013100F088804FEA033370
:103A10004FF0805545EA131343EA12634FEA02223E
:103A200045EA111545EA10654FEA00260EF00041FF
:103A30009D4208BF964244F1FD0404F5407402D251
:103A40005B084FEA3202B61A65EB03055B084FEAE2
:103A500032024FF480104FF4002CB6EB020E75EBDF
:103A6000030E22BFB61A754640EA0C005B084FEA07
:103A70003202B6EB020E75EB030E22BFB61A754684
:103A800040EA5C005B084FEA3202B6EB020E75EBCF
:103A9000030E22BFB61A754640EA9C005B084FEA47
:103AA0003202B6EB020E75EB030E22BFB61A754654
:103AB00040EADC0055EA060E18D04FEA051545EA43
:103AC00016754FEA06164FEAC30343EA52734FEAEC
:103AD000C2025FEA1C1CC0D111F4801F0BD141EA65
:103AE00000014FF000004FF0004CB6E711F4801FCA
:103AF00004BF01430020B4F1FD0C88BFBCF5E06FAA
:103B00003FF6AFAEB5EB030C04BFB6EB020C5FEAB9
:103B1000500C50F1000041EB045170BD0EF0004E0E
:103B20004EEA113114EB5C04C2BFD4EB0C0541EA40
:103B3000045170BD41F480114FF0000E013C90E63D
:103B400045EA060E8DE60CEA135594EA0C0F08BF01
:103B500095EA0C0F3FF43BAF94EA0C0F0AD150EA00
:103B600001347FF434AF95EA0C0F7FF425AF104693
:103B700019462CE795EA0C0F06D152EA03353FF4BB
:103B8000FDAE1046194622E750EA410618BF52EA38
:103B900043067FF4C5AE50EA41047FF40DAF52EA0C
:103BA00043057FF4EBAE12E74FF0FF3C06E000BFA9
:103BB0004FF0010C02E000BF4FF0010C4DF804CDB6
:103BC0004FEA410C7FEA6C5C4FEA430C18BF7FEA76
:103BD0006C5C1BD001B050EA410C0CBF52EA430CA4
:103BE00091EA030F02BF90EA020F0020704710F124
:103BF000000F91EA030F58BF994208BF90422CBFB3
:103C0000D8176FEAE37040F0010070474FEA410CAB
:103C10007FEA6C5C02D150EA013C07D14FEA430CC9
:103C20007FEA6C5CD6D152EA033CD3D05DF8040B3A
:103C3000704700BF8446104662468C46194663466C
:103C400000E000BF01B5FFF7B7FF002848BF10F143
:103C5000000F01BD4DF808EDFFF7F4FF0CBF012088
:103C600000205DF808FB00BF4DF808EDFFF7EAFF04
:103C700034BF012000205DF808FB00BF4DF808EDBF
:103C8000FFF7E0FF94BF012000205DF808FB00BFB4
:103C90004DF808EDFFF7CEFF94BF012000205DF83E
:103CA00008FB00BF4DF808EDFFF7C4FF34BF01204B
:103CB00000205DF808FB00BF4A0011D212F5001287
:103CC00011D20DD56FF47873B3EB62520ED44FEA74
:103CD000C12343F0004343EA505323FA02F07047F4
:103CE0004FF00000704750EA013002D14FF0FF3032
:103CF00070474FF00000704703460846194600F031
:103D000001B800BF10B40C461346014622460220FB
:103D10005DF8044B00F012BB70B50F4E0F4D761BD3
:103D2000B61007D0043D0024013455F8043F9847ED
:103D3000A642F9D10A4E0B4D761B00F0DDFDB61000
:103D400008D0043D0024013455F8043F9847A642AA
:103D5000F9D170BD70BD00BF0449000004490000E6
:103D60002049000004490000024B0146186800F099
:103D700003B800BF888CFF1F2DE9F04F01F10B0540
:103D8000162D83B0064627D935F0070527D4A9425A
:103D900025D8304600F08CFAB5F5FC7F26D2C14F0D
:103DA0004FEAD50C07EBCC03DC689C4200F0D281D3
:103DB0006368E268A16823F00303234430465D682A
:103DC000CA6045F0010591605D6000F073FA083447
:103DD000204603B0BDE8F08F1025A942D9D90024B0
:103DE0000C232046336003B0BDE8F08F5FEA552C0A
:103DF00000F08A80BCF1040F00F260814FEA951C4C
:103E00000CF1380C4FEA4C01A64F07EB8101CC684E
:103E1000A14205D10CE0002B7ADAE468A14207D078
:103E2000626822F00302531B0F2BF4DD0CF1FF3C00
:103E30000CF1010C9B4B3C6903F1080E744500F03A
:103E40007E81616821F003014A1B0F2A00F364811F
:103E5000002AC3F814E0C3F810E06ADAB1F5007F75
:103E600080F03A81C90803EBC1004FEAA1085A6803
:103E70008168A1604FF0010909FA08F848EA0202D6
:103E8000E0605A608460CC604FEAAC030120984047
:103E900090425BD8024206D12CF0030C4000024253
:103EA0000CF1040CFAD007EBCC084446E146E36879
:103EB0009C4207D145E1002A80F25681DB689C4292
:103EC00000F03F81596821F003014A1B0F2AF2DDFF
:103ED0001C46D3F80CC054F8088F591945F0010955
:103EE00042F00105C3F804903046C8F80CC0CCF885
:103EF000088079613961C1F80CE0C1F808E04D60D3
:103F00008A5000F0D7F963E77E214FF03F0C7BE742
:103F10002244E3685068A16840F00105CB60304658
:103F20009960556000F0C6F90834204603B0BDE83A
:103F3000F08F214430464B6843F001034B6000F0A2
:103F4000B9F90834204603B0BDE8F08FBC68636857
:103F500023F00309A94504D3C5EB09030F2B00F394
:103F60009180514B514A19681368013305EB010ADE
:103F700004EB090B00F061810AF5805A0AF10F0A7F
:103F80002AF47F6A2AF00F0A30465146019200F067
:103F900093F9B0F1FF3F8046019A00F0008183451C
:103FA00000F2FA80DFF810C1DCF80030C34553445A
:103FB000CCF8003000F04A8112683C4901321BBF46
:103FC000CBEB080B5B44C1F80080CCF8003018F054
:103FD000070300F01381C3F10802C3F58053904436
:103FE0000833C244CAF30B0ACAEB030A51463046EF
:103FF000CDF804C000F060F9431CDDF804C000F007
:104000003581C8EB0002524442F00102DCF8003076
:10401000C7F808805344BC42C8F80420CCF80030EC
:10402000DFF894A015D0B9F10F0F40F2EA80616873
:10403000A9F10C0222F0070201F0010EA1180520DF
:1040400042EA0E0E0F2AC4F804E04860886000F2CD
:104050001181174ABC6811688B4288BF1360154AEA
:1040600011688B4288BF1360626822F00302954298
:10407000C5EB020301D80F2B04DC304600F01AF91F
:104080000024A5E6621943F0010345F001056560CF
:104090003046BA60536000F00DF90834204603B092
:1040A000BDE8F08F8C8CFF1F5094FF1F9890FF1F6E
:1040B0004C94FF1F4894FF1F5494FF1FBCF1140F32
:1040C00061D9BCF1540F00F28F804FEA153C0CF11E
:1040D0006E0C4FEA4C0197E64B0A042B58D9142B6F
:1040E00000F2AE8003F15B02500007EB8000DFF8C6
:1040F000BC818368834200F08A805A6822F0030200
:10410000914202D29B689842F7D1D9687A68E160FF
:10411000A3608C60DC60B7E6611942F0010745F0EE
:1041200001056560304659611961C1F80CE0C1F8BC
:1041300008E04F608A50083400F0BCF848E65A683E
:10414000A2E609F1010919F0030F04F108047FF454
:10415000AEAE2DE004F108036469A34208BF0CF180
:10416000020C3FF467AE23E619441C464868DB683E
:1041700054F8082F40F001054D603046D3609A6036
:1041800000F098F824E60CF15B0C4FEA4C013BE69A
:104190008A0938325000A8E7BC423FF403AFBC683C
:1041A000626822F0030262E7D8F8008098457BD16C
:1041B0001CF0030FA8F108030CF1FF3CF4D17B685D
:1041C00023EA00037B60400098423FF6BFAE002820
:1041D0003FF4BCAE0342CC467FF465AE40000342E0
:1041E0000CF1040CFAD05EE6BCF5AA7F1AD84FEAAF
:1041F000D53C0CF1770C4FEA4C0105E64FF48053A7
:10420000EFE60123C8F80430444600222FE791105E
:104210000120D8F8042000FA01F10A43C8F804206C
:10422000194674E740F254539C451BD84FEA954C0D
:104230000CF17C0C4FEA4C01E6E50AF1100AA3E60A
:10424000542B1FD80A0B6E3250004EE7CBF30B01F4
:1042500000297FF4B1AE0AEB0901BA6841F001010F
:104260005160F6E6FC214FF07E0CCDE501224FF0C7
:10427000000ACBE604F10801304600F029F9DAF82B
:104280000030E6E6B3F5AA7F03D8CA0B77325000B8
:104290002BE740F25452934203D88A0C7C325000F0
:1042A00023E7FC207E2220E77B688CE78C8CFF1FB5
:1042B000704700BF704700BF38B5074C0023054664
:1042C00008462360FDF7A0FF431C00D038BD2368DB
:1042D000002BFBD02B6038BD8C94FF1F20F0030116
:1042E00010F00300C0F1000051F8043B00F1040C91
:1042F0004FEACC0C6FF000021CBF22FA0CF2134301
:104300004FF0010C4CEA0C2C4CEA0C4CA3EB0C02C9
:1043100022EA030212EACC1204BF51F8043B043033
:10432000F4D013F0FF0F1FBF013013F47F4F0130A3
:1043300013F47F0F18BF0130704700BFF0B5274C52
:104340002668D6F8484185B00746002C41D06568FC
:104350001F2D1EDD224818B94FF0FF3005B0F0BD0B
:104360004FF4C870039102920193FFF7FDFC03998B
:10437000029A019B04460028EED0D6F848512560E9
:10438000002060600546C6F84841C4F88801C4F8BA
:104390008C013FB9AB1C00200135656044F8231047
:1043A00005B0F0BD04EB85004FF0010CC0F888208B
:1043B000D4F888610CFA05F21643022FC4F888611C
:1043C000C0F80831E6D1D4F88C311A43C4F88C21F6
:1043D000E0E706F5A674C6F84841B8E7F4480000DF
:1043E000693D0000024B13B1024800F005B8704768
:1043F000000000000544000001460020024603467C
:10440000FFF79CBF38B5094D094C641BA41018BFB9
:1044100005EB840505D0013C55F8043D9847002C78
:10442000F9D1BDE8384000F07BBA00BF00000000C1
:1044300000000000F8B5234D0F460446FFF738FF93
:10444000AB685E6826F00306F11B01F6EF7121F4FC
:104450007F6121F00F01A1F58057B7F5805F07DB81
:1044600020460021FFF728FFAB683344984204D070
:104470002046FFF71FFF0020F8BD20467942FFF7D6
:104480001BFF01300DD0104BAA681968F61B46F0CF
:1044900001062046C91B56601960FFF70BFF01207B
:1044A000F8BD20460021FFF707FFAB68C21A0F2AAC
:1044B000DEDD064D04492D6842F00102401B5A60C2
:1044C0000860D5E78C8CFF1F5494FF1F9890FF1F46
:1044D0002DE9F0410D460646002955D0FFF7E8FECC
:1044E00055F8041CDFF874C121F00103A5F108049C
:1044F000E218DCF808005768904227F0030769D0FB
:1045000011F00101576032D00021D0194068C00776
:1045100006D43B44906800294ED0D268C2609060B7
:1045200043F001026260E350E1B9B3F5007F2DD39F
:104530005A0A042A6AD89809383041000CEB810CD9
:104540004649DCF80820624566D0516821F0030135
:104550008B4202D292689445F7D1D368E360A2609F
:104560009C60D4603046BDE8F041FFF7A3BE55F82B
:10457000085C641B0CF10808A06840452B4443D03C
:10458000E568C560A860C0E7BDE8F081DB080CEB1A
:10459000C3020125DCF804009168A1609B1005FAB4
:1045A00003F31843E260CCF8040094603046CC601A
:1045B000BDE8F041FFF77EBE294DA842ADD143F0E2
:1045C0000102CCF81440CCF81040E060A0606260BA
:1045D000E350C7E71F44CB0707D455F8083CE41A5B
:1045E0001F44A268E368D3609A601E4B1B6847F0C3
:1045F00001029F426260CCF80840B3D31A4B3046A8
:104600001968FFF717FFADE701217EE7142A0CD8E0
:1046100002F15B00410091E74B688010012505FA2B
:1046200000F003434B60134698E7542A03D8180B55
:104630006E30410082E7B2F5AA7F03D8D80B7730FD
:1046400041007BE740F254518A4203D8980C7C30F9
:10465000410073E7FC217E2070E700BF8C8CFF1FB8
:10466000948CFF1F9490FF1F5094FF1F7800FFFF52
:104670004008FE4340A004404408FE4344A00440D8
:104680000018FE4300C004403000FE433090044058
:104690003400FE43349004401C18FE431CC0044008
:1046A0001018FE4310C004400818FE4308C0044020
:1046B0000C18FE430CC004400C10FE430CB0044028
:1046C0001010FE4310B004401810FE4318B0044010
:1046D0001C10FE431CB004401410FE4314B00440F0
:1046E0000418FE4304C004400010FE4300B0044020
:1046F0000008FE4300A004400408FE4304A0044058
:104700000C08FE430CA004400808FE4308A0044027
:104710001418FE4314C004401818FE4318C0044087
:104720000410FE4304B004400810FE4308B00440E7
:104730001400FE43149004404C08FE434CA0044077
:104740000420FE4304D004402410FE4324B004405F
:104750002010FE4320B004402810FE4328B004403F
:104760002C10FE432CB004400020FE4300D0044037
:104770004808FE4348A004401000FE431090044047
:104780000D0A0000FFFFFFFF000000000000000016
:10479000292100003521000009210000112100001D
:1047A0001921000021210000001519150001000049
:1047B000BC87FF1F1200000000020000E887FF1FF7
:1047C00043000000000300004488FF1F00000000B9
:1047D00001030904D087FF1F000000000203090441
:1047E0002C88FF1F00000000030309044888FF1FF6
:1047F00000000000000000000000000000000000B9
:1048000000000000000000009D310000B5310000F4
:104810006D3100007D3100007531000085310000F0
:1048200021310000393100005931000061310000B0
:104830008D31000095310000F1300000FD300000A6
:104840000931000015310000C5310000A931000018
:104850000000000000000000A9320000C13200008A
:10486000793200008932000081320000913200006C
:104870002D32000045320000653200006D3200002C
:1048800099320000A1320000FD3100000932000021
:104890001532000021320000D1320000B532000094
:1048A0000000000000000000B5330000CD33000020
:1048B00085330000953300008D3300009D330000E8
:1048C00039330000513300007133000079330000A8
:1048D000A5330000AD33000009330000153300009C
:1048E000213300002D330000DD330000C133000010
:1048F000430000006088FF1FF8B500BFF8BC08BC8B
:104900009E467047E543000035040000990700000B
:1049100045210000E1310000ED320000F9330000D4
:04492000F8B500BF27
:1049240000000000000000000000000000005940EA
:10493400000000000000F03F0000000000005940AB
:104944009A9999999999E9BF00000000000008C05C
:1049540000000000000059400000000000408F40AB
:1049640014AE47E17A14DE3F333333333333F33F4A
:104974000A040800FFFFFFFF9094FF1F12010002CA
:1049840002000040C016830400010102030100007C
:1049940018035400650065006E007300790064001C
:1049A400750069006E006F0009024300020100C037
:1049B400320904000001020201000524001001056F
:1049C40024010101042402060524060001070582CE
:1049D4000310004009040100020A00000007050357
:1049E4000240000007058402400000001603550041
:1049F400530042002000530065007200690061000A
:104A04006C000000040309040C0300000000000013
:104A14000000000000000000000000000000000092
:104A2400000000004C8BFF1FB48BFF1F1C8CFF1F6A
:104A34000000000000000000000000000000000072
:104A44000000000000000000000000000000000062
:104A540000000000F048000000000000000000001A
:104A64000000000000000000000000000000000042
:104A74000000000000000000000000000000000032
:104A84000000000000000000000000000000000022
:104A94000000000000000000000000000000000012
:104AA4000000000000000000000000000000000002
:104AB40000000000000000000000000000000000F2
:104AC40000000000000000000100000000000000E1
:104AD4000E33CDAB34126DE6ECDE05000B000000A6
:104AE40000000000000000000000000000000000C2
:104AF40000000000000000000000000000000000B2
:104B040000000000000000000000000000000000A1
:104B14000000000000000000000000000000000091
:104E440000000000000000006088FF1F0000000058
:104E5400000000008C8CFF1F8C8CFF1F948CFF1FA4
:104E6400948CFF1F9C8CFF1F9C8CFF1FA48CFF1F26
:104E7400A48CFF1FAC8CFF1FAC8CFF1FB48CFF1FD6
:104E8400B48CFF1FBC8CFF1FBC8CFF1FC48CFF1F86
:104E9400C48CFF1FCC8CFF1FCC8CFF1FD48CFF1F36
:104EA400D48CFF1FDC8CFF1FDC8CFF1FE48CFF1FE6
:104EB400E48CFF1FEC8CFF1FEC8CFF1FF48CFF1F96
:104EC400F48CFF1FFC8CFF1FFC8CFF1F048DFF1F45
:104ED400048DFF1F0C8DFF1F0C8DFF1F148DFF1FF2
:104EE400148DFF1F1C8DFF1F1C8DFF1F248DFF1FA2
:104EF400248DFF1F2C8DFF1F2C8DFF1F348DFF1F52
:104F0400348DFF1F3C8DFF1F3C8DFF1F448DFF1F01
:104F1400448DFF1F4C8DFF1F4C8DFF1F548DFF1FB1
:104F2400548DFF1F5C8DFF1F5C8DFF1F648DFF1F61
:104F3400648DFF1F6C8DFF1F6C8DFF1F748DFF1F11
:104F4400748DFF1F7C8DFF1F7C8DFF1F848DFF1FC1
:104F5400848DFF1F8C8DFF1F8C8DFF1F948DFF1F71
:104F6400948DFF1F9C8DFF1F9C8DFF1FA48DFF1F21
:104F7400A48DFF1FAC8DFF1FAC8DFF1FB48DFF1FD1
:104F8400B48DFF1FBC8DFF1FBC8DFF1FC48DFF1F81
:104F9400C48DFF1FCC8DFF1FCC8DFF1FD48DFF1F31
:104FA400D48DFF1FDC8DFF1FDC8DFF1FE48DFF1FE1
:104FB400E48DFF1FEC8DFF1FEC8DFF1FF48DFF1F91
:104FC400F48DFF1FFC8DFF1FFC8DFF1F048EFF1F40
:104FD400048EFF1F0C8EFF1F0C8EFF1F148EFF1FED
:104FE400148EFF1F1C8EFF1F1C8EFF1F248EFF1F9D
:104FF400248EFF1F2C8EFF1F2C8EFF1F348EFF1F4D
:10500400348EFF1F3C8EFF1F3C8EFF1F448EFF1FFC
:10501400448EFF1F4C8EFF1F4C8EFF1F548EFF1FAC
:10502400548EFF1F5C8EFF1F5C8EFF1F648EFF1F5C
:10503400648EFF1F6C8EFF1F6C8EFF1F748EFF1F0C
:10504400748EFF1F7C8EFF1F7C8EFF1F848EFF1FBC
:10505400848EFF1F8C8EFF1F8C8EFF1F948EFF1F6C
:10506400948EFF1F9C8EFF1F9C8EFF1FA48EFF1F1C
:10507400A48EFF1FAC8EFF1FAC8EFF1FB48EFF1FCC
:10508400B48EFF1FBC8EFF1FBC8EFF1FC48EFF1F7C
:10509400C48EFF1FCC8EFF1FCC8EFF1FD48EFF1F2C
:1050A400D48EFF1FDC8EFF1FDC8EFF1FE48EFF1FDC
:1050B400E48EFF1FEC8EFF1FEC8EFF1FF48EFF1F8C
:1050C400F48EFF1FFC8EFF1FFC8EFF1F048FFF1F3B
:1050D400048FFF1F0C8FFF1F0C8FFF1F148FFF1FE8
:1050E400148FFF1F1C8FFF1F1C8FFF1F248FFF1F98
:1050F400248FFF1F2C8FFF1F2C8FFF1F348FFF1F48
:10510400348FFF1F3C8FFF1F3C8FFF1F448FFF1FF7
:10511400448FFF1F4C8FFF1F4C8FFF1F548FFF1FA7
:10512400548FFF1F5C8FFF1F5C8FFF1F648FFF1F57
:10513400648FFF1F6C8FFF1F6C8FFF1F748FFF1F07
:10514400748FFF1F7C8FFF1F7C8FFF1F848FFF1FB7
:10515400848FFF1F8C8FFF1F8C8FFF1F948FFF1F67
:10516400948FFF1F9C8FFF1F9C8FFF1FA48FFF1F17
:10517400A48FFF1FAC8FFF1FAC8FFF1FB48FFF1FC7
:10518400B48FFF1FBC8FFF1FBC8FFF1FC48FFF1F77
:10519400C48FFF1FCC8FFF1FCC8FFF1FD48FFF1F27
:1051A400D48FFF1FDC8FFF1FDC8FFF1FE48FFF1FD7
:1051B400E48FFF1FEC8FFF1FEC8FFF1FF48FFF1F87
:1051C400F48FFF1FFC8FFF1FFC8FFF1F0490FF1F36
:1051D4000490FF1F0C90FF1F0C90FF1F1490FF1FE3
:1051E4001490FF1F1C90FF1F1C90FF1F2490FF1F93
:1051F4002490FF1F2C90FF1F2C90FF1F3490FF1F43
:105204003490FF1F3C90FF1F3C90FF1F4490FF1FF2
:105214004490FF1F4C90FF1F4C90FF1F5490FF1FA2
:105224005490FF1F5C90FF1F5C90FF1F6490FF1F52
:105234006490FF1F6C90FF1F6C90FF1F7490FF1F02
:105244007490FF1F7C90FF1F7C90FF1F8490FF1FB2
:0C5254008490FF1F00000200FFFFFFFF1E
:00000001FF
