:1000000000800020BD010000D527000099270000D6
:1000100099270000992700009927000099270000E0
:10002000992700009927000099270000D527000094
:10003000D527000099270000D52700008927000058
:10004000D5270000D5270000D5270000D5270000C0
:10005000D5270000D5270000D5270000D5270000B0
:10006000D5270000D5270000D5270000D5270000A0
:10007000D5270000D5270000D5270000D527000090
:10008000D5270000D5270000D5270000D527000080
:10009000D5270000D5270000D5270000D527000070
:1000A000D5270000D5270000D5270000D527000060
:1000B000D5270000D5270000D5270000D527000050
:1000C000D5270000D5270000D5270000D527000040
:1000D000D5270000D5270000D5270000D527000030
:1000E000D5270000D5270000D5270000D527000020
:1000F000D5270000792C0000D527000071310000C1
:10010000D52700008D350000D5270000D527000039
:10011000D5270000D5270000D5270000D5270000EF
:10012000D5270000D5270000D5270000D5270000DF
:10013000D5270000D5270000D5270000D5270000CF
:10014000D5270000D5270000D5270000D5270000BF
:10015000E1220000F9220000112300002923000001
:10016000D527000061180000D5270000D527000022
:10017000D5270000D5270000D5270000D52700008F
:10018000D5270000D5270000D5270000D52700007F
:10019000D5270000D5270000D5270000D52700006F
:1001A000D5270000D5270000D5270000D52700005F
:1001B000D5270000D5270000D527000010B56B4BD0
:1001C0004CF220521A804DF628121A8000BF00BF50
:1001D00002F004FB4FF01062654B1A60654A083369
:1001E0001A60654A04331A60A3F530432C3B1B6840
:1001F00013F4807F06D10022604B1A604FF4A8529E
:10020000043B1A605E4B1B7813F0080F04D05C4B64
:100210001A7842F008021A702A225A4B1A705A4B66
:100220005A4A9A420DD2131D594CE41A24F0030481
:1002300004340023104657495A581A500433A34235
:10024000FAD1554B554A9A4280F08C80131F54497D
:10025000C91A21F003011A1D1144002243F8042F8A
:100260008B42FBD17EE05A581A500433B3F5DE7F3F
:10027000F9D14C4B80214C4A03F8011B9342FBD12E
:100280004A4B4B4A1A600A224A4B1A702422A3F6A0
:10029000FF731A70A022013B1A7006331A7812F00D
:1002A000020FFBD0444B1A7812F0100FFBD1424BD7
:1002B0001A7802F00C02082AFAD103223F4B1A7076
:1002C000462201331A7001331A7812F0200FFBD046
:1002D000394B1A7812F0400FFBD04FF08272384B36
:1002E0001A60092204331A602022364B1A70063332
:1002F0001A7802F00C020C2AFAD1334A334B1A60F6
:10030000334A344B1A60002204331A600722083B38
:100310001A60314A03F551631A6062B601F062F95E
:10032000164B1B6813F0010F05D02C4800F0BCFFE2
:100330002B4A2C4B1A602C4B1B7813F0400F0AD021
:10034000284B1A68264B9A4205D1244800F0ACFF8E
:100350000022244B1A6005F065F902F045FA02F01C
:10036000BDF8FEE70023124820497CE70E20054037
:1003700030800440823F04000100002B14D0034071
:1003800002D0074000E00740A490FF1F6087FF1FD6
:10039000A790FF1F9C620000D894FF1FA890FF1F2A
:1003A000D394FF1F00E400E05FE400E008ED00E00C
:1003B0000082FF1F005006400640064004400640F1
:1003C0004480044000400640C01005000480044002
:1003D000BFD4010014E000E000002020BDC1A855FA
:1003E000A5C3945A1CE0034000F007400000000041
:1003F000FFFFFFFFFFFFFFFFFFFFFFFFFFFFFFFF0D
:10040000FFFFFFFFFFFFFFFFFFFFFFFFFEFFFFFFFD
:1004100010B5054C237833B9044B13B10448AFF33E
:1004200000800123237010BDA890FF1F0000000072
:100430009C62000008B5064B1BB106480649AFF3A5
:1004400000800648036813B1054B03B1984708BD07
:10045000000000009C620000AC90FF1FA490FF1FF2
:100460000000000008B50122034B1A7001F084F867
:10047000024B186008BD00BF3891FF1F3491FF1F69
:1004800010B5044602F020F8204610BDFFFFFFFF24
:100490002DE9F04F87B08E4B1B78002B00F00C81BC
:1004A0008C4BD3E90001CDE902018B4BD3E900234A
:1004B00004F0C0FD0022002304F00AFC06460F46AB
:1004C000DFF83CA2DAE90045844BD3E900010022C1
:1004D000834B04F0AFFD834BD3E9002304F0AAFD66
:1004E000814BD3E9002304F0A5FD22462B4604F0FE
:1004F000A1FD02460B462046294604F09BFD3246EC
:100500003B4604F0E5FBCDE90401784BD3E90067F5
:10051000204629466AA3D3E9002304F08BFD8046D8
:100520008946304639460022714B04F083FD64A3AE
:10053000D3E9002304F07EFD61A3D3E9002304F096
:1005400079FD02460B464046494604F0C1FB0022B5
:10055000684B04F06FFDDFF8B8B1DBE9002304F06D
:10056000B7FB80468946CBE90089DDE90401DDE976
:10057000022304F089FE02460B463046394604F059
:10058000A7FB00225A4B04F055FD4DA3D3E90023ED
:1005900004F050FD02460B462046294604F098FB25
:1005A00004460D46CAE9004540464946524BD3E948
:1005B000002304F0CFFF002836D020462946002231
:1005C000002304F0C7FF00282ED0204629464B4BBD
:1005D000D3E9002304F02EFD04460D4600224FF01F
:1005E000404304F0B7FF10B9CAE9004509E02046CE
:1005F000294635A3D3E9002304F01CFD404BC3E991
:1006000000013F4BD3E9000100223E4B04F0A2FF62
:1006100010B100222E4B1A7000F0AEFF3A4B18605A
:1006200000F0AAFF394B1860394BD3E9004520464A
:1006300029460022002304F08DFFB8B10026354F73
:10064000DFF8D890DFF8C8803B685B6838464946D9
:10065000012298470136D8E90045304604F084FC71
:1006600022462B4604F058FF0028EDD1294E0227E0
:100670000097304622462B4601F086FF3368264C11
:100680005B683046214601229847134BD3E900238B
:100690000097304601F078FF33685B6830462146AA
:1006A00001229847154BD3E900230097304601F00B
:1006B0006BFF304601F01AFF07B0BDE8F08F00BFB6
:1006C0007B14AE47E17A843F9A9999999999E93FC9
:1006D000CC90FF1F9087FF1F8887FF1FA887FF1FF1
:1006E0000000E0BF9887FF1F2891FF1F0091FF1FA8
:1006F0000000E03F000059406887FF1F7887FF1F18
:100700008087FF1F0000F0BF0891FF1F3491FF1F7B
:100710007087FF1FD892FF1F7C5F0000785F00008A
:1007200010B50820022100F00DFE0920002100F084
:1007300009FE09202049032200F06EFD0C2000F084
:1007400019FB2820012100F0FDFD0C2000F0BCFD6C
:100750000320012100F0F6FD0420012100F0F2FD4C
:100760000520012100F0EEFD0620012100F0EAFD48
:10077000032040F6FF7100F007FE042040F6FF71F1
:1007800000F002FE052040F6FF7100F0FDFD06209E
:1007900040F6FF7100F0F8FD084C2046082100F0FB
:1007A0008BF92046052100F09DF905480549064AC8
:1007B00001F072FE10BD00BF65040000C490FF1F71
:1007C000EC90FF1F91040000BF27090010B582B014
:1007D000594C204600F034F9584800F031F92046D1
:1007E00000F058F978B1204600F05AF94FF47A73C6
:1007F0000093002180221E2301F096FF04F0B4FB39
:100800004F4BC3E900014D4800F044F9A0B14B48FB
:1008100000F046F9C8230093002180220A2301F04A
:1008200083FF484C04F0A0FB0022474B04F02CFD52
:10083000206001F100436360444C204600F054F90D
:10084000204600F081F968B3414A137883F0010330
:100850001370A3B9032040F6FF7100F095FD04204A
:1008600040F6FF7100F090FD052040F6FF7100F0AA
:100870008BFD062040F6FF7100F086FD12E003209C
:10088000642100F081FD04204FF47A7100F07CFDBA
:1008900005204FF4FA6100F077FD062040F6FF7165
:1008A00000F072FD2B4B1B7813F0FF0F15D00022C8
:1008B00000232949C1E900230022284B2849C1E926
:1008C0000023284BD3E900232749C1E90023012253
:1008D000264B1A7000221F4B1A701D4B1B787BB9D8
:1008E00000F04AFE224B1B68C01AB0F5FA6F4FF0B9
:1008F000280034BF40F6FF71002100F045FD18E0EC
:10090000194BD3E9000100220F4B04F0DFF901F18C
:100910000043194604F028FE40F6FF7300934FF49D
:10092000FA710022134601F0FFFE0146282000F074
:100930002BFD02B010BD00BFD090FF1F0C91FF1F18
:100940008887FF1F7887FF1F00005940C490FF1F52
:100950003091FF1F3891FF1F0091FF1F000018C04A
:100960008087FF1F6887FF1F7087FF1FCC90FF1FC6
:100970003491FF1FFFFFFFFF38B519481721802270
:100980000C2300F03DF81748152180220C2300F0BD
:1009900037F8154800F088F8144BD3E90045204695
:1009A00029460DA3D3E9002304F044FB02460B467D
:1009B0002046294604F03EFB0D4BC3E900010D48DB
:1009C00000230370802343730B490C4A04F014FE88
:1009D00038BD00BFAFF30080182D4454FB210940FF
:1009E000D090FF1F0C91FF1FC490FF1FA087FF1F17
:1009F0002891FF1FEC90FF1F810400006087FF1FFC
:100A0000D0B5064617461C466423C36001700846ED
:100A1000002100F097FC204604F0A6FA02460B469F
:100A200000204FF0804103F077F804F09DFDB060A6
:100A3000BAB2328212B290FBF2F070613046D0BD91
:100A400010B50446007800F0C1F9636990FBF3F03B
:100A500004F08AFA02F0D0FF04F086FD80B2B4F907
:100A6000022003B29A4206BF238B01330023238363
:100A70006080B4F91820E3689A420ADDB4F90420D2
:100A800003B29A4205D000232383A0806083012310
:100A9000637010BD43780BB1002242701846704756
:100AA000B0F91A00704700BF002202600A2181805D
:100AB0008271C271704700BF38B50446CDB2C571AE
:100AC000284600F031FC0023A371284600F02CFCDE
:100AD00008B10323A371024B1B68236038BD00BF1C
:100AE000C891FF1F8180704738B50446C07900F077
:100AF0001BFC003018BF0120A37903F0F702A2719C
:100B0000C3F34001884206D00E4B1B68236082F07D
:100B10000202A27112E00B490D682168691AA588CA
:100B2000A9420BD303F00103984207D0054B1B6881
:100B3000236082F0010242F00802A271A079C0F3A2
:100B4000C00038BDC891FF1F807900F00900082857
:100B500014BF00200120704730B4394A3949136866
:100B600013F0800FFBD10B6813F0800FF7D172B632
:100B7000354B1B78002B5FD0344B1C6804331D6849
:100B8000043318680433196804331A6804331B6883
:100B90002C44204401440A441A44C2F34E0242F455
:100BA00000422B4B1A602C331C6804331D6804333D
:100BB00018680433196804331A6804331B682C441A
:100BC000204401440A441A44C2F34E0242F4004253
:100BD000204B1A6003F108131C6804331D680433AA
:100BE00018680433196804331A6804331B682C44EA
:100BF000204401440A441A44C2F34E0242F4004223
:100C0000154B1A602C331C6804331D6804331868B4
:100C10000433196804331A6804331B682C442044D5
:100C200001440A441A44C2F34E0242F400420B4B00
:100C30001A600022044B1A7062B630BC704700BFC5
:100C400024B0034024B00B403A91FF1F38B003405A
:100C50002CB0034030B003402CB00B4030B00B4000
:100C600060223A4B1A70E12201331A70384B1B781C
:100C7000082B10D1212203F1804303F56C331A6055
:100C8000132334490B6001F5FF2101F2FC710A6066
:100C9000314A13601FE00A2B0DD139222F4B1A6005
:100CA00013232C490B6001F5FF2101F2FC710A604E
:100CB000294A13600FE00C2B0CBF35225D22274B15
:100CC0001A60122323490B6001F5FF2101F2FC7128
:100CD0000A60214A1360224B1B7833B10123214A59
:100CE000136002F50022136005E000231D4A136023
:100CF00002F5002213601C4B1B78012B06D88023C1
:100D00001A4A136002F5002213601AE0042B06D879
:100D10008423164A136002F50022136011E0082BA9
:100D200006D88523114A136002F50022136008E0FB
:100D3000102B94BF862387230C4A136002F50022F0
:100D4000136001220A4B1A70704700BF0040074031
:100D5000B087FF1F0CB003400CB00B4008B003403D
:100D60003D91FF1F20B00340B187FF1F24B0034017
:100D70003A91FF1F08B50C2804D9102828BF10206D
:100D8000102307E00A2804D8092834BF08230A23BF
:100D900000E00C23DAB2101A0849087008490978F3
:100DA000994209D0064B1A70064B1B7813B10022EA
:100DB000054B1A60FFF754FF08BD00BF3991FF1FB4
:100DC000B087FF1F3A91FF1F24B003402DE9F8437D
:100DD0000D2813D9172802D80E38C0B20EE0A0F1A2
:100DE0001A03DBB2052B02D80938C0B206E0A0F125
:100DF0002203DBB2062B73D81838C0B23A4B1E5C04
:100E00003A4B1B780BB1FFF7A7FE16F0800F29D1E4
:100E100072B6374C374D4FF0010726602F7062B61F
:100E200072B6236813F0800F04D12B7813F0FF0FF4
:100E30000FD1F2E7304B186800222E4B1A7062B6C1
:100E40002E4B1B781841BDE8F8832B7813F0FF0F69
:100E5000E3D062B601F076FC72B6236813F0800F1F
:100E6000F3D0E7E772B606F040095FFA89F9244F3C
:100E7000244C06F03F06244D4FF00108B9F1000F55
:100E800004D03B6823F010033B6003E03B6843F071
:100E900010033B60266085F8008062B672B6236856
:100EA00013F0800F04D12B7813F0FF0F0FD1E5E77B
:100EB000164B18680022144B1A7062B60F4B1B7841
:100EC0001841BDE8F8832B7813F0FF0FD6D062B637
:100ED00001F038FC72B6236813F0800FF3D0E7E717
:100EE0000020BDE8F88300BF805F00003A91FF1F3B
:100EF00000B003403C91FF1F10B003403991FF1F29
:100F00000CB00B4000B00B403B91FF1F10B00B40EA
:100F1000094B1A6842F480521A60084B1B781BB1C7
:100F20008022074B1A7002E0C022054B1A7080F332
:100F30000C00044B188070472C8004403D91FF1F2B
:100F400021C00C4000C00C4010B5154B1C681C6043
:100F500014F4805F05D0134BDB6813B1114BDB68D1
:100F6000984714F4005F05D00E4B1B6913B10D4B6D
:100F70001B69984714F0200F05D00A4B1B6E13B164
:100F8000084B1B6E984714F0100F07D0054BD3F891
:100F900084301BB1034BD3F88430984710BD00BF99
:100FA000A09004404091FF1F10B5274B1C681C60A7
:100FB00014F4803F05D0254B1B6813B1234B1B68ED
:100FC000984714F4003F05D0204B5B6813B11F4BCA
:100FD0005B68984714F0010F05D01C4B1B6C13B1D4
:100FE0001A4B1B6C984714F0020F05D0174B5B6C23
:100FF00013B1164B5B6C984714F0080F05D0134BD8
:101000009B6C13B1114B9B6C984714F0040F05D0E7
:101010000E4BDB6C13B10D4BDB6C984714F4002FB7
:1010200005D00A4B5B6E13B1084B5B6E984714F406
:10103000802F07D0054BD3F880301BB1034BD3F87A
:101040008030984710BD00BFA0A004404091FF1F12
:1010500010B5384B1C681C6014F0080F05D0364BD7
:101060005B6A13B1344B5B6A984714F0100F05D0DC
:10107000314B9B6A13B1304B9B6A984714F0400F79
:1010800005D02D4BDB6A13B12B4BDB6A984714F06C
:10109000800F05D0284B1B6B13B1274B1B6B984758
:1010A00014F0200F05D0244B5B6B13B1224B5B6B0C
:1010B000984714F0010F05D01F4BDB6B13B11E4B8B
:1010C000DB6B984714F0020F05D01B4B9B6D13B1DF
:1010D000194B9B6D984714F0040F05D0164BDB6D30
:1010E00013B1154BDB6D984714F4007F05D0124BFC
:1010F000DB6E13B1104BDB6E984714F4807F05D084
:101100000D4B1B6F13B10C4B1B6F984714F4806F82
:1011100005D0094B5B6F13B1074B5B6F984714F415
:10112000006F05D0044B9B6F13B1034B9B6F984727
:1011300010BD00BFA0B004404091FF1F10B5264B6A
:101140001C681C6014F0010F05D0244B9B6813B180
:10115000224B9B68984714F0800F05D01F4B5B69AA
:1011600013B11E4B5B69984714F0100F05D01B4B51
:101170009B6913B1194B9B69984714F0040F05D074
:10118000164BDB6913B1154BDB69984714F0080F58
:1011900005D0124B1B6A13B1104B1B6A984714F011
:1011A000020F05D00D4B9B6B13B10C4B9B6B9847FB
:1011B00014F0200F05D0094B1B6D13B1074B1B6DAD
:1011C000984714F0400F05D0044B5B6D13B1034BEF
:1011D0005B6D984710BD00BFA0C004404091FF1F49
:1011E00010B50B4B1C681C6014F0020F05D0094BA6
:1011F0009B6E13B1074B9B6E984714F0010F05D0FF
:10120000044BDB6F13B1034BDB6F984710BD00BF7E
:10121000A0D004404091FF1F30B4212831D8042AC7
:101220002FD8DFE802F00709050B03000B2406E0C6
:101230000A2404E0082402E00C2400E00924124BF4
:1012400003EBC0035A68114B114DC3F89C51114D6B
:10125000C3F8A051104DC3F8A451104DC3F8A851C4
:101260000F4DC3F8AC5172B6136823F470231360AA
:101270000C4D45F8201043F0807343EA0444146099
:1012800062B630BC704700BF985F00000082FF1F4D
:10129000490F0000A90F0000511000003D1100008F
:1012A000E11100004091FF1F044B00221A60044925
:1012B0000A60044A106010221A60704714D003407C
:1012C00004D0034000D0034018B1102828BF1020DC
:1012D00000E00120014B1870704700BFB287FF1F6C
:1012E00021281ED80F4B53F8303093F8802212F08B
:1012F000FF0F08D019B1012283F880207047012226
:1013000083F800217047074B03EBC000436821B10D
:101310001A6842F003021A6070471A6822F002024B
:101320001A607047985F0000212806D8044B53F8D4
:10133000303093F80002C0B270470020704700BF01
:10134000985F000021281CD80E4B03EBC0035B689C
:10135000012908D10B4A52F8302082F880124FF44C
:10136000A2721A607047074A52F83020002082F8B3
:10137000800219B94FF480721A60704740F203126C
:101380001A607047985F000010B5044628280FD1F6
:101390005D4B1B780B2B03D8C3F10C03994003E082
:1013A0000C2B84BF0C3B19410846FFF7B1FD10BD63
:1013B000554B1B78012202FA03F0002908DC204675
:1013C0000021FFF78DFF20460121FFF7BBFF10BD75
:1013D0000A46884208D820460121FFF781FF2046AF
:1013E0000121FFF7AFFF10BDE01EC0B2012806D8F3
:1013F0004648006800FB011222FA03F310E0202C9B
:1014000001D0192C06D14248006800FB022222FAC2
:1014100003F305E03F48006800FB011222FA03F3E2
:10142000E01E1D2864D8DFE800F0474E402B6363C0
:101430001D2463636363636363636332390F1663FD
:101440005C63636363636355334A136040F24442F1
:10145000324B1A6010BD324A136040F24442314BA5
:101460001A6010BD304A136040F244422F4B1A609C
:1014700010BD2F4A136040F244422E4B1A6010BD3B
:101480002D4A136040F244422C4B1A6010BD2C4A86
:10149000136040F244422B4B1A6010BD2A4A13607D
:1014A00040F24442294B1A6010BD294A136040F2B1
:1014B0004442284B1A6010BD274A13604FF4517202
:1014C000264B1A6010BD264A13604FF45172254B0B
:1014D0001A6010BD244A13604FF45172234B1A60F6
:1014E00010BD234A13604FF45172224B1A6010BD95
:1014F00020467F29D4BF00210121FFF7F1FE2046BD
:101500000121FFF71FFF10BDB287FF1F08900340A6
:1015100008800B40088003401080034004B0044062
:101520001880034008B00440208003400CB0044001
:101530002880034010B004403080034010C00440B5
:101540003880034014C004404080034018C0044069
:10155000488003401CC00440109003403090044079
:10156000189003403490044010800B4048A0044081
:1015700018800B404CA0044072B60C4B1B680C4A00
:1015800012680C49096862B611F0806F02D0322BE4
:1015900088BF0132C3F5EA33BF330749A1FB030318
:1015A0009B094FF47A7000FB0230704718E000E0AE
:1015B000C891FF1F04ED00E08988888838B505468A
:1015C000FFF7DAFF044665B1FFF7D6FF001BB0F561
:1015D0007A7F03D3013D04D004F57A7401F0B2F8A8
:1015E000F2E738BD10B5254B4FF400021A604FF0FA
:1015F00080721A604FF000721A604FF080621A60B9
:101600004FF000621A6000201D4B18604EF6FF710B
:101610000433196028231B4A136008321360083210
:101620001360083213600832136008321360083206
:101630001360083213600922134C226004F58054B1
:1016400004342060043421600434236008342360AF
:10165000143C226004F5FE24043420600B48016031
:101660000B490B6008310B600A4B1A60FFF7F8FA60
:101670000420FFF7A3FF00F06BFC10BD08E100E0C1
:10168000048003400C8003400080034008800B402E
:101690000C800B4000800B4030B40E4B1B7843F0A5
:1016A00002020D4C04EBC20460600C480078002874
:1016B0000CBF8824C82444EA0141074D45F8321084
:1016C00080F00100054A107083F00103014A137095
:1016D00030BC70473492FF1F0080FF1FAD92FF1F88
:1016E00010B4431E032B11D872B60A4A52F82300D5
:1016F00050B14268074941F82320074A32F81340A5
:101700000188611A22F8131062B600E000205DF82B
:10171000044B70472492FF1FC494FF1F0138032815
:101720000DD872B6074B53F820302BB10020013092
:101730005B68002BFBD100E0002062B67047002000
:10174000704700BF7892FF1F38B572B601231B495E
:101750001B4C5A1812F8012C12F0080F24D09A00D2
:1017600054F832506DB9164B03EBC2010830486093
:10177000144943F83210144B1A78013A1A7062B6C1
:1017800038BD42F0010254F832506DB90C4B03EBF6
:10179000C201083048600D4943F832100A4B1A78EC
:1017A000013A1A7062B638BD0133052BD1D162B649
:1017B0000022054B1A7000F02FFC38BDD0600000ED
:1017C0000080FF1F88004000A292FF1FC800400059
:1017D00010B4431E032B37D8400140F010001C4AC0
:1017E000104472B61B4AD25C032A09D8DFE802F023
:1017F00019021B050830022216E00830042213E00B
:10180000154A52F823201AB9134A42F8231003E06C
:10181000124A52F823205160104A42F8231062B64F
:1018200012E0032200E005220A4CE25401F1080311
:10183000436000F00803002B0CBF8823C8230A88EC
:1018400043EA0243036062B65DF8044B704700BF91
:101850000080FF1FE091FF1F7892FF1F8892FF1FFB
:101860002DE9F84FA34CDFF8E092DFF8E0A2DFF8B3
:10187000E0B22578EDB215F0040F1DD09E4B1B7819
:1018800013F0FF0F16D09D4B1B7803F0FF022BB116
:10189000531EDBB2994A137003B900BE984B1B78F4
:1018A00003F0FF0233B1531EDBB2954A13700BB93C
:1018B00000F0F2FC0423237015F0080F00F0DC8226
:1018C00099F80030DBB21D0940F01D828D4D9E0855
:1018D00005EBC6035A6855F83630C3F38303013B62
:1018E0000C2B00F20C82DFE813F0C701C7010A02DB
:1018F0000A020A020A020A020A02E4010A020A02AF
:101900000A020D00804913680B6052684A607F4AE2
:1019100045F8362000227E490A607A490A618A61C8
:1019200001217C4A11709BB240F28162934218D827
:10193000B3F5D06F2ED2B3F5817F00F01E8106D8AB
:10194000802B00F0C980822B00F0CC8062E140F255
:101950000232934200F02681B3F5A06F00F05E8161
:1019600058E142F22102934200F0828107D8B3F598
:10197000086F00F0AB80B3F5106F11D04AE142F26E
:101980002122934200F0418142F22132934200F041
:1019900045813FE1604B5D68002D40F0188130E1EA
:1019A000594B9A78544B1A70564D05F180062B6AA4
:1019B00013F0800F03D0686A083800F02DFB08355B
:1019C000B542F4D1DFF88C8100263746534AB0582F
:1019D00028B1456800F020FB0DB12846F9E7002347
:1019E0004E4973504E4AB3504E4BF05828B145689B
:1019F00000F012FB0DB12846F9E700234949735066
:101A0000494AB35028F8023F484BFB5C023B032B8A
:101A10000AD8DFE803F0020602060022434BDA553B
:101A200002E00122414BDA5501370436102ECDD1A8
:101A300000223F4B1A7001253E4EDFF81C81314FCA
:101A400005EB080313F8013C06F8043B13F0080FFC
:101A50002DD000F0C1FA48B1A90007EB451200F102
:101A600008035360344A47F8312007E0AB000022F6
:101A700047F833202E4B1A7801321A7000F0ACFA76
:101A800058B1AB0043F0010307EBC30100F10802BA
:101A90004A601E4A47F8332009E0AB0043F00103D7
:101AA000002247F83320224B1A7801321A70AA001C
:101AB00042F00201002347F8313042F0030247F8B8
:101AC000323001351D4B9E42BAD116E20A4B1B78CB
:101AD0001B4D2B700127A6E0194D00232B706B7056
:101AE0000227A0E0084B9B88042B37D90F22154B07
:101AF0001A70BDE080200740AC92FF1F3592FF1F97
:101B0000AE92FF1F0080FF1F9892FF1FC800400089
:101B1000CC91FF1FAD92FF1FD46000002492FF1FE5
:101B2000D091FF1F7892FF1F8892FF1FE091FF1F47
:101B3000A292FF1FC420074088004000D420074025
:101B4000A492FF1FC0200740902007409420074028
:101B500098200740C294FF1FD06000009E4A0021D9
:101B6000117051709D4A12F8233013F0020F58D0B3
:101B7000994D01232B70022755E0994B9B8803F068
:101B80007F02042A02DC964A52881AB10F22934B34
:101B90001A706DE0914A12F8231021F0020102F848
:101BA0002310AAE18E4B9B8803F07F02042A02DCFB
:101BB0008B4A52881AB10F22884B1A7058E0874A14
:101BC00012F8231041F0020102F8231095E1844B32
:101BD0005E889F88834BA3F10C02114633F80C0CEE
:101BE000B04209D133F80A0CB84205D1360A032EA7
:101BF0000CBF2F78178916E00D690C330C32002DBD
:101C0000EBD10F22754B1A7032E0754B9A78764BF8
:101C10001A7072E10F22714B1A7029E000273D46BD
:101C200001E002276C4D6E4BDB889F4228BF1F46A8
:101C3000402F34BF3E46402628463146FFF72CFD54
:101C40003544BF1B03D13F2E00F25C8110E0402FD2
:101C500034BF3E46402628463146FFF71DFD354439
:101C6000BF1B01D13F2E03D9604B1D60604B1F800D
:101C700001238AF8003042E0594B198842F22103CF
:101C8000994212D15B4BD81D12F8011B03F8011FBA
:101C90008342F9D1584B1B68862B02D10F22574B38
:101CA0001A7000200146FFF7F7FC554B45F8363017
:101CB00025E04E4B1E68BEB14D4FB7F80080B8F11D
:101CC000400F34BF4546402530462946FFF7E4FC27
:101CD000C5EB08039BB23B800BB9402D01D13544C5
:101CE00000E00025414B1D603D4B1B88B3F5A06F04
:101CF00005D13B4B00225A709B788BF800300123B2
:101D00008AF80030B5E03F4E9F0806EBC708D8F8C8
:101D10000420A2F10800013DEDB213F0080F47D0F6
:101D200000F07AF9384B53F825304BB35A683649EE
:101D300041F8252003F10802C8F80420334A525D17
:101D4000032A12D8DFE802F002060A0E03212F4A06
:101D500051550AE002212D4A515506E005212B4A32
:101D6000515502E00421294A515518F0080F0CBFC3
:101D70008822C8221B8842EA034346F8373078E0BD
:101D8000224B5B5D032B0BD8DFE803F07373020675
:101D900000221E4B5A556CE001221C4B5A5568E03C
:101DA00018F0080F0CBF02220322184B5A5560E0AE
:101DB00056F837301B0C22F8083C002B51D000237A
:101DC00022F8063C42F8043C114B53F825300BBB7B
:101DD0000F4B43F8250021E0A492FF1FC0200740CD
:101DE0009892FF1FE0600000BC92FF1FCC91FF1F84
:101DF000A092FF1FCB94FF1FCC94FF1F3592FF1FB3
:101E0000C80040000080FF1F7892FF1FE091FF1F75
:101E10002492FF1F3F4B53F8253058603D4B43F849
:101E200025003D4B33F8151032F8082C0A4423F8EE
:101E3000152000F0D1F860B100F10803C8F80430B3
:101E400018F0080F354B364A08BF134646F83730AE
:101E50000FE0002346F83730324B1A7801321A70FF
:101E600007E018F0080F2D4B2D4A08BF134646F81F
:101E7000373008232370FCE415F0010F22D02A49E3
:101E800002230B700022294B1A70294B244818603A
:101E9000284C5C6098602848D8601A619A610D20CF
:101EA000264B1870FF23264803700838037018303B
:101EB0000270244A13709F22234B1A7001230B7067
:101EC000BDE8F88F15F0800F05D00D221B4B1A705E
:101ED0008022403B1A7015F0020F06D0184B1A787A
:101EE000D2B21A700222083B1A7015F0100F0ED0F1
:101EF0001022164B1A70BDE8F88F00200146FFF73C
:101F0000CBFBB5E628460021FFF7C6FBB0E6BDE8EF
:101F1000F88F00BFD091FF1FC494FF1FC80040007E
:101F200088004000A292FF1F942007403492FF1FB8
:101F30000080FF1FE491FF1F3892FF1FC020074061
:101F4000882007408C2007408420074080200740DD
:101F500008B501F07BFB00231B491A465A50C818EC
:101F600042600833882BF9D1184B1A6842F480225A
:101F70001A60154BC3F30721154A1170C3F30741CB
:101F8000143211701B0E04321370FF23343A137095
:101F900008321370783A13700123843213700021D1
:101FA0006C3211707C3A137070220A4B1A704FF425
:101FB0000072A3F241331A60102203F1C04303F50B
:101FC000C8231A7008BD00BF0080FF1F3480044082
:101FD0009C20074049E400E072B60D4B1A68B2FA43
:101FE00082F30B2B02D962B6002070474FF00041FC
:101FF000D94022EA010206490A6062B6054903EBAC
:10200000C303DB00C8180022CA504260704700BFFB
:10201000B487FF1F0084FF1F08B50F4BC31A0F4A78
:10202000A2FB03131B090B2B14D80D4A12783AB1EB
:102030000C4A127812F0FF0F02D0FFF785FB08BDA3
:1020400072B6094A4FF0004121FA03F311681943AF
:10205000116062B608BD00BF0084FF1F398EE338EF
:10206000A292FF1FAC92FF1FB487FF1F10B5134B46
:102070001B6853B9124B1B7813F0FF0F18D00320C5
:10208000FFF72EFB0D4B1860A8B10C4B1868438866
:102090005A1C03441C7A03889A4206D3FFF7BCFFFC
:1020A0000022064B1A60204610BD4280204610BD1B
:1020B0004FF0FF3010BD4FF0FF3010BDB892FF1F42
:1020C000AC92FF1F08B50D4B1B6883B90C4B1B78F6
:1020D00013F0FF0F08D00320FFF702FB074B186037
:1020E00028B94FF0FF3008BD4FF0FF3008BD034B5B
:1020F0001B685A881344187A08BD00BFB892FF1FA6
:10210000AC92FF1F044B9888044B1B681BB11A88C4
:102110005B88D31A18447047C494FF1FB892FF1FFE
:102120002DE9F04704460122374B1A700E4600296C
:1021300064D0DFF8E080DFF8E0909A46334FD8F8BB
:10214000003083BB99F8003013F0FF0F06D1002256
:102150002D4B1A704FF0FF30BDE8F0874DF2E905C6
:102160000420FFF7DBFA07280AD801238AF8003099
:10217000FFF732FFC8F80000A8B900238AF8003042
:10218000013D01D03B7833B10122204B1A704FF052
:10219000FF30BDE8F08700F0D5FA99F8003013F071
:1021A000FF0FDDD1D3E700233B70D8F800104A8839
:1021B000C2F14005AE4238BF354602F108030B4478
:1021C0002A444A80761B3DB1254414F8012B03F8BC
:1021D000012BAC42F9D100E025464B883F2B07D9B3
:1021E00040230B800420FFF7F3FA0023C8F80030E7
:1021F0000522074B1A700EB12C46A0E70020024BB7
:102200001870BDE8F08700BFAF92FF1FB492FF1FA8
:10221000AE92FF1FB092FF1FAC92FF1F00B583B0BC
:1022200002AB03F8010D18460121FFF779FF03B057
:102230005DF804FB10B5144B1B7813F0FF0F21D091
:102240000122124B1A70124B196851B10024114B24
:102250001C704B880B800420FFF7BAFA0C4B1C60F3
:102260000DE0FFF7B9FE014630B10022094B1A70AC
:102270000420FFF7ADFA02E00122064B1A7000229B
:10228000024B1A7010BD00BFAC92FF1FAF92FF1F30
:10229000B092FF1FAE92FF1F08B50E4B1B7813F0D4
:1022A000FF0F16D10C4B196841B14B880B800420ED
:1022B000FFF78EFA0022084B1A6008BDFFF78CFE6C
:1022C000014618B10420FFF783FA08BD0122034B31
:1022D0001A7008BDAF92FF1FB092FF1FAE92FF1F92
:1022E00008B50122024B1A60024B1B68984708BDD3
:1022F0000C710340C892FF1F08B50122024B1A60FF
:10230000024B5B68984708BD1C710340C892FF1FD1
:1023100008B50122024B1A60024B9B68984708BD22
:102320002C710340C892FF1F08B50122024B1A60AE
:10233000024BDB68984708BD3C710340C892FF1F01
:10234000054B1A6842F400021A600022034B1A601F
:102350000122034B1A7070473C8004400070034018
:10236000C492FF1F0122064B1A6003F588333C33E9
:102370001A6822F400021A600022024B1A70704799
:1023800000700340C492FF1F10B442781401164B32
:1023900023444360154B234483600369144C44F881
:1023A0002230836800221A60436819608368032220
:1023B0001A6043784433DBB2037303F1604303F5DF
:1023C0006443427B1A70027B53119B0003F160430C
:1023D00003F5614302F01F02012101FA02F21A60C3
:1023E0005DF8044B704700BF007103400871034063
:1023F000C892FF1F70B504460D46134B1B780BB9EE
:10240000FFF79EFF114B1B788BB1104B5B7843B1EC
:102410000E4B9B7843B10D4BDB789BB903231E46D3
:1024200007E001231E4604E002231E4601E00026C9
:102430003346637020462946FFF7A6FF0120034B71
:10244000985570BD002070BDC492FF1FC092FF1F41
:1024500010B5836800221A60037B5C1103F01F0330
:10246000012101FA03F30A4941F82430094B41786C
:102470005A541B7853B9074B5B783BB9054B9B7893
:1024800023B9044BDB780BB9FFF76CFF10BD00BF1D
:1024900080E100E0C092FF1F70B504460E4615466D
:1024A00003781BB1FFF7D4FF002323702661204679
:1024B0002946FFF79FFF10B10123237001E000239D
:1024C0002370207870BD00BF10B5044603780BB1AF
:1024D000FFF7BEFF0023237010BD00BF08B5FEF755
:1024E0001FF9FEF773F900F02DF9FAE700B583B094
:1024F000054B1B88ADF8043003685B6801A9022214
:10250000984703B05DF804FBA8600000F0B58BB0FD
:10251000164622B903681B68C9B298472FE0012A02
:1025200008BF0A2621B930228DF82520212417E082
:1025300021243746B1FBF6F506FB1515EDB2224610
:10254000092D94BF30353735EDB20DF1280E7244A8
:1025500002F8245CB1FBF7F111B1013CE4B2E9E708
:1025600033B1013CE4B20AAB23442D2203F8242CFE
:1025700003685B6801A92144C4F1220298470BB0AB
:10258000F0BD00BFFFFFFFFF2DE9F04F85B0814692
:1025900016461F469DF83880104619460022002333
:1025A00002F0BAFF28B107F100431F464FF0010ABD
:1025B00001E04FF0000AB8F1000F6ED04FF0000BB1
:1025C0000022414B3EA5D5E900451046194622465A
:1025D0002B4602F02FFD02460B460BF1010B5FFA72
:1025E0008BF18845F1D82AE03E46204629465246DE
:1025F0005B4602F01FFD04460D4602F0DDFFC0B24F
:10260000771CFFB204AB1E4400F1300306F8083C0F
:1026100002F0AAFC02460B462046294602F056FB71
:1026200004460D464745DFD101E04FF00108D9F8D7
:1026300000305B68484602A9424698473CE0304675
:10264000394602F045FB04460D4602F0B5FF06464A
:1026500002F07AFC02460B462046294602F036FB81
:1026600004460D46484631460A225346FFF74EFFC0
:1026700001902E238DF80830B8F1070F34BF434680
:102680000723002BD1D003F101085FFA88F8012657
:102690004FF0000ADFF834B0A7E730463946002291
:1026A000094B02F015FB02F087FF014648460A225B
:1026B0005346FFF72BFF0190019805B0BDE8F08F5E
:1026C0009A9999999999B93F0000E03F00002440F8
:1026D00008B5FFF717FD08BD08B5FFF7C7FC08BD33
:1026E00008B5FFF7EFFC08BD08B5FFF7A3FD08BD6F
:1026F00008B50846FFF792FD08BD00BF08B50846BB
:102700001146FFF70DFD08BD704700BF044B0022C6
:102710001A714FF47A7199601A73024A1A607047FD
:10272000D892FF1FB860000010B4401A019CE41A50
:1027300004FB00F4521A94FBF2F018445DF8044BC9
:10274000704700BF08B50F4B1B78CBB901220D4B6A
:102750001A70FFF7D7FC08B1FFF7D6FF00F028FA90
:1027600008B101F02DF800F09FFC08B101F0AEF8BF
:1027700000F0BCFE08B101F02FF90022014B1A70E5
:1027800008BD00BFE892FF1F024B1A6801321A60B1
:10279000704700BFC891FF1F08B50D4C236813F4A4
:1027A000802F01D0FFF75CF8236813F4806F01D00D
:1027B00000F062FA236813F4006F01D000F0D8FC37
:1027C000236813F4805FE9D000F0E0FEE6E700BF85
:1027D0003480044008B5FFF7DFFF00BF1022014B33
:1027E0001A80704700200540704700BF024A1368F6
:1027F0001844106018467047B887FF1FEFF3138323
:10280000ABB9EFF31083ABB9EFF3058323B10F2B13
:1028100005D9094A985C03E04FF4807000E000207D
:10282000EFF311833BB1834238BF184670474FF036
:10283000FF30704700207047F0E300E030B4002321
:10284000B0FBF2F402FB14041D46092C94BF303493
:102850003734E4B2CC54B0FBF2F008B10133EFE707
:102860000D4400226A70934207DD885CCC5C8C5476
:10287000C8540132013B9A42F7DB084630BC70472E
:10288000194B1A6842F480621A600023174A1370C9
:10289000174A1370174A1370174A1370174A1370A8
:1028A00040F21332164B1A604FF4517204331A601F
:1028B000C0F34432134B1A70C0F347125A7000F041
:1028C0001F00987204229A700221D9745A758822C6
:1028D0001A743C22DA7040220B4B1A704FF40052EB
:1028E000A3F229331A607047348004406C93FF1FB1
:1028F000EA92FF1F7493FF1F6D93FF1FE992FF1F62
:1029000040A0044000A006402DE400E0164B9B7858
:1029100003F0EC0300F00302134310F0040F18BFA0
:1029200043F01003104A937000F00F03042B04D1FE
:102930001346927942F040029A710B4B5A7902F099
:10294000EF0210F0100F18BF42F01002064B5A7140
:102950009B7903F0EF0310F0200F18BF43F0100332
:10296000014A9371704700BF00A0064010B5114B9B
:102970001B6813F4806F1CD00F4B1B7813F0FF0FF4
:1029800006D00D4CFFF7DEFE237813F0FF0FF9D1D0
:102990004FF40052094B1A600023094AD37040F2E9
:1029A000031208490A6004310A60074A1370074A93
:1029B000137010BD34800440E992FF1F84E100E0F1
:1029C00000A0064040A004406C93FF1FEA92FF1F46
:1029D00010B50446094A137813F0FF0FFBD12046C7
:1029E0000121FEF7AFFC20460021FEF779FC044BE5
:1029F00053F83420034B1A6010BD00BFE992FF1F4B
:102A0000985F00007093FF1F2DE9F04107461F4BB0
:102A10001B6813F4806F37D01D4B1B680BB101226C
:102A20001A701C4B1C780134402C28BF00241A4D0E
:102A30001A4EDFF86C8017E0FFF7E0FE40280FDC4D
:102A4000337913F0800F0FD02B780133402B28BF40
:102A5000002318F80320D2B2F271DBB22B7003E02E
:102A6000FF2801DDFFF76EFE2B78DBB29C42E3D03E
:102A7000FFB20B4B1F5501220A4B1A70E4B2054BF3
:102A80001C70BC22054BDA70BDE8F0813480044034
:102A90007093FF1F7493FF1F6D93FF1F00A00640EC
:102AA000EC92FF1FE992FF1F2DE9F84F0746284BD4
:102AB0001B6813F4806F49D0264B1B680BB10122B1
:102AC0001A7007EB010B5F453DD2DFF89890224E5C
:102AD000DFF88C80DFF890A099F800400134402C9A
:102AE00028BF00243578EDB2A54220D1BC2388F858
:102AF0000330FFF783FE402811DC98F8043013F010
:102B0000800F10D033780133402B28BF00231AF8F0
:102B10000320D2B288F80720DBB2337003E0FF282D
:102B200001DDFFF70FFE3378DBB29D42E1D017F8ED
:102B3000013B0AF804300122084B1A70E4B289F80C
:102B400000405F45C8D1BC22054BDA70BDE8F88F64
:102B5000348004407093FF1F6D93FF1FE992FF1FA5
:102B600000A006407493FF1FEC92FF1F10B5064BA8
:102B70001B7813F0FF0F06D0034CFFF7E3FD23781B
:102B800013F0FF0FF9D110BDE992FF1F064B1B7820
:102B9000DBB2064A1278D2B293422CBF3F3202F126
:102BA000FF32D01A704700BF7493FF1F6D93FF1F51
:102BB000054B1878C0B2054B1B78DBB2984238BF82
:102BC0004030C01A704700BF6C93FF1FEA92FF1F8E
:102BD0000A4B1A78D2B20A4B1B78DBB29A4209D060
:102BE0000133402B28BF0023064AD05CDBB2044AE5
:102BF000137070474FF0FF30704700BF6C93FF1F9A
:102C0000EA92FF1F2C93FF1F094B1A78D2B2094B8F
:102C10001B78DBB29A4207D00133402B28BF002338
:102C2000054AD05CC0B270474FF0FF30704700BF1C
:102C30006C93FF1FEA92FF1F2C93FF1F0A4B1B6828
:102C400013F4806F0FD0094BDA7802F0CB02DA7000
:102C500040225A74DA7842F03402DA70044B1A785F
:102C6000D2B2044B1A7070473480044000A0064072
:102C7000EA92FF1F6C93FF1F70B4364B1B7913F061
:102C8000300F25D072B6334B9B7D03F0FF022BB97A
:102C9000304BDA7940225A7462B619E062B62E4B94
:102CA0001978C9B22D4B1D78EDB22A4C2C4EE37920
:102CB000D8B24B1C402B28BF0023AB421CBFF054A2
:102CC0001946531E13F0FF02F1D1C9B2224B1970FD
:102CD000204BDA78D2B212F0800F27D01B7913F094
:102CE000800F23D01F4B1C78E4B21F4B1B78DBB244
:102CF0009C4210D017491D4D01E0A3420BD0013377
:102D0000402B28BF00230879E85CC0B2C871087D59
:102D1000C0B20728F1D9DBB213490B700D4B1B79F8
:102D200013F0800F02D07C210A4BD97012F0400FB3
:102D30000ED0084B1B7913F0400F09D000220C4B2A
:102D40001A700C4B1B6803B11A703C22014BDA70ED
:102D500070BC704700A006406C93FF1FEA92FF1FF3
:102D60002C93FF1F7493FF1F6D93FF1FEC92FF1FA7
:102D7000E992FF1F7093FF1F194B1A6842F400621B
:102D80001A600023174A1370174A1370174A1370FA
:102D9000174A1370174A137040F21332164B1A6019
:102DA0004FF4517204331A60C0F34432134B1A705B
:102DB000C0F347125A7000F01F00987204229A70F4
:102DC0000221D9745A7588221A743C22DA70402282
:102DD0000B4B1A704FF40042A3F22B331A6070476A
:102DE00034800440E093FF1F7693FF1FE893FF1F9A
:102DF000E193FF1F7593FF1F0CB0044000B0064025
:102E00002FE400E0164B9B7803F0EC0300F0030284
:102E1000134310F0040F18BF43F01003104A9370CF
:102E200000F00F03042B04D11346927942F04002C4
:102E30009A710B4B5A7902F0EF0210F0100F18BF85
:102E400042F01002064B5A719B7903F0EF0310F029
:102E5000200F18BF43F01003014A9371704700BF61
:102E600000B0064010B5114B1B6813F4006F1CD066
:102E70000F4B1B7813F0FF0F06D00D4CFFF762FCD1
:102E8000237813F0FF0FF9D14FF40042094B1A6079
:102E90000023094AD37040F2031208490A60043142
:102EA0000A60074A1370074A137010BD348004404B
:102EB0007593FF1F84E100E000B006400CB00440B1
:102EC000E093FF1F7693FF1F10B50446094A13785D
:102ED00013F0FF0FFBD120460121FEF733FA204605
:102EE0000021FEF7FDF9044B53F83420034B1A6020
:102EF00010BD00BF7593FF1F985F0000E493FF1F94
:102F00002DE9F04107461F4B1B6813F4006F37D0C3
:102F10001D4B1B680BB101221A701C4B1C7801342D
:102F2000282C28BF00241A4D1A4EDFF86C8017E0B9
:102F3000FFF764FC40280FDC337913F0800F0FD0CB
:102F40002B780133282B28BF002318F80320D2B296
:102F5000F271DBB22B7003E0FF2801DDFFF7F2FB1B
:102F60002B78DBB29C42E3D0FFB20B4B1F55012202
:102F70000A4B1A70E4B2054B1C70BC22054BDA7088
:102F8000BDE8F08134800440E493FF1FE893FF1F05
:102F9000E193FF1F00B006407893FF1F7593FF1F5A
:102FA0002DE9F84F0746284B1B6813F4006F49D0F2
:102FB000264B1B680BB101221A7007EB010B5F4512
:102FC0003DD2DFF89890224EDFF88C80DFF890A099
:102FD00099F800400134282C28BF00243578EDB240
:102FE000A54220D1BC2388F80330FFF707FC402816
:102FF00011DC98F8043013F0800F10D033780133CF
:10300000282B28BF00231AF80320D2B288F8072003
:10301000DBB2337003E0FF2801DDFFF793FB337869
:10302000DBB29D42E1D017F8013B0AF804300122DF
:10303000084B1A70E4B289F800405F45C8D1BC2241
:10304000054BDA70BDE8F88F34800440E493FF1F2D
:10305000E193FF1F7593FF1F00B00640E893FF1F29
:103060007893FF1F10B5064B1B7813F0FF0F06D0A7
:10307000034CFFF767FB237813F0FF0FF9D110BD66
:103080007593FF1F064B1B78DBB2064A1278D2B24B
:1030900093422CBF273202F1FF32D01A704700BF93
:1030A000E893FF1FE193FF1F054B1878C0B2054B53
:1030B0001B78DBB2984238BF4030C01A704700BF5F
:1030C000E093FF1F7693FF1F0A4B1A78D2B20A4B88
:1030D0001B78DBB29A4209D00133402B28BF002372
:1030E000064AD05CDBB2044A137070474FF0FF30E1
:1030F000704700BFE093FF1F7693FF1FA093FF1F51
:10310000094B1A78D2B2094B1B78DBB29A4207D02E
:103110000133402B28BF0023054AD05CC0B2704762
:103120004FF0FF30704700BFE093FF1F7693FF1F03
:10313000A093FF1F0A4B1B6813F4006F0FD0094BBD
:10314000DA7802F0CB02DA7040225A74DA7842F070
:103150003402DA70044B1A78D2B2044B1A707047FA
:103160003480044000B006407693FF1FE093FF1FB9
:1031700070B4364B1B7913F0300F25D072B6334B39
:103180009B7D03F0FF022BB9304BDA7940225A7451
:1031900062B619E062B62E4B1978C9B22D4B1D7874
:1031A000EDB22A4C2C4EE379D8B24B1C402B28BFF1
:1031B0000023AB421CBFF0541946531E13F0FF020C
:1031C000F1D1C9B2224B1970204BDA78D2B212F089
:1031D000800F27D01B7913F0800F23D01F4B1C7852
:1031E000E4B21F4B1B78DBB29C4210D017491D4D37
:1031F00001E0A3420BD00133282B28BF002308791C
:10320000E85CC0B2C871087DC0B20728F1D9DBB252
:1032100013490B700D4B1B7913F0800F02D07C21EA
:103220000A4BD97012F0400F0ED0084B1B7913F0E7
:10323000400F09D000220C4B1A700C4B1B6803B1D5
:103240001A703C22014BDA7070BC704700B0064027
:10325000E093FF1F7693FF1FA093FF1FE893FF1FCC
:10326000E193FF1F7893FF1F7593FF1FE493FF1FE8
:10327000174B1A6842F480521A600023154A1370E3
:10328000154A1370154A1370154A1370154A1370B6
:1032900040F21331144A11604FF45171043211603D
:1032A000C0F34431114A1170C0F34711517000F05E
:1032B0001F009072937013742C23D37040220C4B18
:1032C0001A704FF40032A3F22D331A60704700BF1A
:1032D000348004405494FF1FEA93FF1F5C94FF1F47
:1032E0005594FF1FE993FF1F08C0044000C006402B
:1032F00031E400E0164B9B7803F0EC0300F003028E
:10330000134310F0040F18BF43F01003104A9370DA
:1033100000F00F03042B04D11346927942F04002CF
:103320009A710B4B5A7902F0EF0210F0100F18BF90
:1033300042F01002064B5A719B7903F0EF0310F034
:10334000200F18BF43F01003014A9371704700BF6C
:1033500000C0064010B5114B1B6813F4805F1CD0F1
:103360000F4B1B7813F0FF0F06D00D4CFFF7EAF957
:10337000237813F0FF0FF9D14FF40032094B1A6094
:103380000023094AD37040F2031208490A6004314D
:103390000A60074A1370074A137010BD3480044056
:1033A000E993FF1F84E100E000C0064008C004402C
:1033B0005494FF1FEA93FF1F10B50446094A13787F
:1033C00013F0FF0FFBD120460121FDF7BBFF204684
:1033D0000021FDF785FF044B53F83420034B1A609E
:1033E00010BD00BFE993FF1F985F00005894FF1FB6
:1033F0002DE9F04107461F4B1B6813F4805F37D05F
:103400001D4B1B680BB101221A701C4B1C78013438
:10341000282C28BF00241A4D1A4EDFF86C8017E0C4
:10342000FFF7ECF940280FDC337913F0800F0FD051
:103430002B780133282B28BF002318F80320D2B2A1
:10344000F271DBB22B7003E0FF2801DDFFF77AF9A0
:103450002B78DBB29C42E3D0FFB20B4B1F5501220D
:103460000A4B1A70E4B2054B1C70AC22054BDA70A3
:10347000BDE8F081348004405894FF1F5C94FF1F26
:103480005594FF1F00C00640EC93FF1FE993FF1FF8
:1034900038B505460C4629B115F8010BFFF7A8FF12
:1034A000013CF9D138BD00BF10B5064B1B7813F0B5
:1034B000FF0F06D0034CFFF745F9237813F0FF0FF9
:1034C000F9D110BDE993FF1F064B1B78DBB2064A0A
:1034D0001278D2B293422CBF273202F1FF32D01AB7
:1034E000704700BF5C94FF1F5594FF1F054B187871
:1034F000C0B2054B1B78DBB2984238BF4030C01ACF
:10350000704700BF5494FF1FEA93FF1F0A4B1A78BD
:10351000D2B20A4B1B78DBB29A4209D00133402B5E
:1035200028BF0023064AD05CDBB2044A1370704700
:103530004FF0FF30704700BF5494FF1FEA93FF1F06
:103540001494FF1F094B1A78D2B2094B1B78DBB2D7
:103550009A4207D00133402B28BF0023054AD05C94
:10356000C0B270474FF0FF30704700BF5494FF1F48
:10357000EA93FF1F1494FF1F024B1A78D2B2024B3A
:103580001A707047EA93FF1F5494FF1F264B1B7954
:1035900013F0200F12D0244BDB79D9B2234B1B78C8
:1035A0000133402B28BF0023214A1278D2B29A421D
:1035B00004D0204AD154DBB21C4A13701A4BDB787A
:1035C000DBB213F0800F1CD0174A127912F0800F73
:1035D00017D0194A1178C9B2184A1278D2B291425A
:1035E00003D16C21104AD1700BE00132282A28BF88
:1035F00000221349885CC0B20B49C871D2B20F498E
:103600000A7013F0400F0ED0074B1B7913F0400FD8
:1036100009D000220B4B1A700B4B1B6803B11A70B8
:103620002C22014BDA70704700C006405494FF1FF3
:10363000EA93FF1F1494FF1F5C94FF1F5594FF1F14
:10364000EC93FF1FE993FF1F5894FF1F00B585B04F
:1036500072B61B4B70221A7041211A4A11700F2149
:10366000013A117080221A701A46137813F0800FF5
:10367000FBD0154B186862B6144B98429CBF00EB08
:103680008000400001A90A22FFF7D8F89DF8043015
:103690007BB908E001A9595C31B191800232013354
:1036A0000A2BF7D100E0002301335B00084A1370B6
:1036B00003E0074A53800123ECE705B05DF804FB03
:1036C0000000024007000240080002407F96980078
:1036D0004888FF1F08B503681B68C9B2984708BD32
:1036E00008B503681B68C9B2984708BD08B50368E8
:1036F0001B68C9B2984708BD08B503681B68C9B202
:10370000984708BD08B5044800EB5100B0FBF1F044
:10371000FFF7B6F808BD00BF001C4E0E10B51446EA
:10372000054800EB5100B0FBF1F0FFF7A9F8204687
:10373000FFF7ECF810BD00BF001C4E0E08B5FFF7F8
:1037400015F908BD08B50846FFF742F908BD00BFE6
:1037500008B5FFF72DFA08BD08B5FFF755FA08BD03
:1037600008B5FFF735FA08BD08B5FFF7FFF908BD42
:1037700008B5FFF763FA08BD08B5FFF707FA08BDFB
:1037800008B50846FFF740F9012008BD08B508460E
:10379000FFF73AF9012008BD10B514460846114656
:1037A000FFF782F9204610BD38B50D46084602F0F5
:1037B0001BFA044628462146FFF776F9204638BD15
:1037C000704700BF044B00221A714FF47A71996060
:1037D0001A73024A1A6070476094FF1F306100003C
:1037E00008B503681B68C9B2984708BD08B50368E7
:1037F0001B68C9B2984708BD08B503681B68C9B201
:10380000984708BD08B503681B68C9B2984708BD4A
:1038100008B5044800EB5100B0FBF1F0FFF7ACFA3B
:1038200008BD00BF001C4E0E10B51446054800EB45
:103830005100B0FBF1F0FFF79FFA2046FFF7E2FAE4
:1038400010BD00BF001C4E0E08B5FFF70BFB08BDF6
:1038500008B50846FFF738FB08BD00BF08B5FFF7FD
:1038600023FC08BD08B5FFF74BFC08BD08B5FFF702
:103870002BFC08BD08B5FFF7F5FB08BD08B5FFF741
:1038800059FC08BD08B5FFF7FDFB08BD08B50846A3
:10389000FFF736FB012008BD08B50846FFF730FBEF
:1038A000012008BD10B5144608461146FFF778FB05
:1038B000204610BD38B50D46084602F095F904467D
:1038C00028462146FFF76CFB204638BD704700BFF5
:1038D000044B00221A714FF47A7199601A73024AEC
:1038E0001A6070477094FF1F8061000008B503687C
:1038F0001B68C9B2984708BD08B503681B68C9B200
:10390000984708BD08B503681B68C9B2984708BD49
:1039100008B503681B68C9B2984708BD08B50448D4
:1039200000EB5100B0FBF1F0FFF7A2FC08BD00BFB7
:10393000000E270710B51446054800EB5100B0FBF8
:10394000F1F0FFF795FC2046FFF7D4FC10BD00BF57
:10395000000E270708B5FFF7FDFC08BD08B50846AF
:10396000FFF72AFD08BD00BF08B5FFF7BFFD08BD82
:1039700008B5FFF7E7FD08BD08B5FFF7C7FD08BDAF
:1039800008B5FFF791FD08BD08B5FFF7F5FD08BDC7
:1039900008B5FFF799FD08BD08B50846FFF728FDF3
:1039A000012008BD08B50846FFF722FD012008BD2B
:1039B00010B5144608461146FFF76AFD204610BDB3
:1039C00038B50D46084602F00FF904462846214650
:1039D000FFF75EFD204638BD704700BF044B002254
:1039E0001A714FF47A7199601A73024A1A6070471B
:1039F0008094FF1FD06100002DE9F84FC1F30A57F2
:103A0000A7F2FF36132E02460B4604460D468946A2
:103A10008A4680461CDC002E40DB3D4F374107EADA
:103A2000010C5CEA000C18D037A3D3E9002301F0A5
:103A30004FF90022002301F08DFD28B1002D42DB5B
:103A40002AEA07094FF0000840464946BDE8F88FCA
:103A5000332E06DDB6F5806F31D010461946BDE82D
:103A6000F88FA7F2134C4FF0FF3B2BFA0CFB1BEA2D
:103A7000000FF2D024A3D3E9002301F029F900229A
:103A8000002301F067FD0028DED0002D22DB28EAAC
:103A90000B08D14640464946BDE8F88F1AA3D3E942
:103AA000002301F015F90022002301F053FD002846
:103AB000CAD0002D1CDB4FF00008C146C4E701F05E
:103AC00007F9BDE8F88F4FF4801A4AFA06F606EBBC
:103AD000050AB5E7142E14D0C7F58667012303370E
:103AE00003FA07F717EB040828BF05EB030ACEE734
:103AF00025F00042074B224318BF99464FF00008BB
:103B0000A2E705F1010AC2E79C7500883CE4377E14
:103B1000FFFF0F000000F0BF2DE9F04FDFF8B8A263
:103B20008BB01D4680468946144600F071F99AF91B
:103B30000030013306460F4604D02046294600F0E7
:103B40006DFF20B9304639460BB0BDE8F08F4046D6
:103B5000494600F063FF834600282CD120462946C1
:103B60000022002301F0CEFC0028EBD0944B9AF900
:103B700000109448CDF820B000220126CDE906239C
:103B80004B1CCDE90289CDE90445009601900DD08A
:103B900002290BD0684600F069FF002800F09580EC
:103BA000089B1BB101F038FD089B0360DDE90601AD
:103BB0000BB0BDE8F08F002200234046494601F0DB
:103BC000A1FCF8B1204629460022002301F09AFC0E
:103BD000834600284DD07B4A9AF900300192CDE906
:103BE00004450121002200240025CDE90289CDE908
:103BF000064500910892002BCCD0714B0022CDE9F4
:103C00000623D3E73046394600F002FF83460028FA
:103C100060D0002200233046394601F073FC0028B2
:103C200090D04046494600F0F3FE00288AD0204656
:103C3000294600F0EDFE002884D09AF90030614A50
:103C40000192CDE904450421002200240025022B25
:103C5000CDE90289CDE906450091089200F0828005
:103C6000684600F003FF00287CD0089B002B9DD005
:103C700098E72046294600F0CBFE00283FF462AFCB
:103C8000204629460022002301F046FC00283FF48C
:103C900059AF4C4B9AF80010CDF820B001228DE8B6
:103CA0000C00CDE90289CDE904450022002934D178
:103CB0000023CDE90623684600F0D8FE0028D4D1C1
:103CC00001F0AAFC21230360CFE701F0A5FC21232A
:103CD000036065E74046494600F09AFE002898D008
:103CE0002046294600F094FE002892D030463946FE
:103CF00000F094FEB8B9334B9AF8006008900122A6
:103D0000CDE90289CDE904458DE80C00002E2ED1C5
:103D100000240025CDE90645CDE72B4B0229CDE94E
:103D20000623CDD0C7E7274A9AF90030CDF820B056
:103D300003218DE80600CDE90289CDE9044540461E
:103D400049460022F3B9214F4FF060460023CDE9E8
:103D5000066701F0E1FB002840D19AF90030022B00
:103D60007FF47EAF01F058FC222303607DE7002042
:103D7000002102460B4601F087FA022ECDE906012A
:103D80009ED098E7124F00260023CDE9066701F088
:103D9000C3FB0028E1D000220E4B2046294601F04B
:103DA00049F904460D4600F069FE22462B4601F013
:103DB000A9FB0028D1D1044B0022CDE90623CCE792
:103DC0000000F03F186200000000F0FFFFFFEF4727
:103DD0000000F07F0000E03F6088FF1F00220A4BD8
:103DE0002046294601F026F904460D4600F046FE1D
:103DF00022462B4601F086FB0028AED1034B4FF044
:103E00006042CDE90623A8E70000E03FFFFFEFC7CF
:103E10002DE9F04F23F0004B91B089460F465BEA45
:103E20000201CDE9022314461D46804606462ED0E7
:103E3000634B29F0004A9A4522DC1FD0604B9B451A
:103E40001EDC77D0002F78DB0022049264BB5C4B31
:103E50009B4500F091805B4B9B4565D0B5F1804F51
:103E600000F0F783584B9D421ED1002F1CDB4046CB
:103E7000494611B0BDE8F04F00F006BD0028DDD086
:103E80000AF1404A0AF5801A5AEA060A04D14D4955
:103E9000002011B0BDE8F08F4C4811B0BDE8F04FE4
:103EA00000F0E6BD002104914046494600F0ACFD1B
:103EB000E6B9BAF1000F04D0424B27F040429A42D3
:103EC00014D1002DC0F20584002FE2DA0AF1404A35
:103ED000DDF810B00AF5801A5BEA0A0B5ED0049A8E
:103EE000012AD6D101F100431946D2E7FB0F03F1B5
:103EF000FF3C049B53EA0C034ED0354B9B456DDDD4
:103F000003F104739B4540F3EC83324B9A4540F335
:103F10009A83002D40F39A8327A1D1E9000102463C
:103F20000B4601F087F8B4E7002DC0F24884404604
:103F30004946AEE7002C85D0A2E7274B9B4536DCEF
:103F4000A3F154739B4540F38B834FEA2B5340F20C
:103F50001342934240F34984C3F58663033324FA42
:103F600003F202FA03F3A3427FF46EAF02F0010200
:103F7000C2F10202049269E70AF1404303F580139B
:103F8000334384D0134B9A4540F39B83002DC0F2FA
:103F90005D83DDE902017CE74046494602460B4667
:103FA00000F094FE02460B4601F06EF971E7022321
:103FB00004934BE7AFF300809C7500883CE4377EA8
:103FC0000000F07F0000F03F0000E03F5062000082
:103FD0000000E041FFFFEF3FFFFF3F43BAF5801FC6
:103FE00080F2EB83AA4BCDF804C0002201F022F846
:103FF000DDF804C08A466FF034034FEA2A55A54A1B
:10400000CAF3130AA5F2FF354AF07F541D449245C6
:104010000F9544F4401440F3CD839F4B9A4540F3F1
:10402000FA83DDF83CA000250AF1010ACDF83CA096
:10403000A4F580142B46994ACDF804C0DB000E93FA
:104040001344D3E90067214632463B46CDE90A01D5
:1040500000F03CFE3246804689463B46DDE90A01D7
:1040600000F036FE02460B4600208D4901F00CF9A7
:10407000CDE90C01DDE90C234046494600F0DAFFAA
:10408000CDE906016110DDE906AB41F0005101F513
:1040900000214B190021CDE908AB0891DDE908ABFF
:1040A00000225046594614461D4600F0C3FF024602
:1040B0000B464046494600F009FE32468046894696
:1040C0003B462046294600F001FE02460B46DDE94C
:1040D0000A0100F0FBFD02460B465046594600F02F
:1040E000A9FF02460B464046494600F0EFFDDDE9D8
:1040F0000C2300F09FFF06460F46DDE9060102464D
:104100000B4600F097FF02460B4604460D4600F0B2
:1041100091FF4FA3D3E900238046894620462946D4
:1041200000F088FF4CA3D3E9002300F0D1FD224624
:104130002B4600F07FFF4AA3D3E9002300F0C8FD1F
:1041400022462B4600F076FF47A3D3E9002300F078
:10415000BFFD22462B4600F06DFF45A3D3E90023A7
:1041600000F0B6FD22462B4600F064FF42A3D3E9DF
:10417000002300F0ADFD02460B464046494600F0E4
:1041800059FFDDE9062304460D465046594600F026
:104190009FFD32463B4600F04DFF22462B4600F085
:1041A00097FD5246804689465B465046594600F088
:1041B00041FF00223B4BCDE90A0100F089FD424658
:1041C0004B4600F085FD08980D46044622462B46D6
:1041D0005046594600F02EFF224682468B462B461B
:1041E0003046394600F026FF002206460F4620469C
:1041F00029462C4B00F06AFDDDE90A2300F066FD3C
:1042000002460B464046494600F060FDDDE90623C4
:1042100000F010FF02460B463046394600F058FDCC
:104220008046894642464B465046594600F050FD6E
:10423000089813A3D3E9002304460D4600F0FAFEC4
:1042400011A3D3E90023CDE90601204629462BE03E
:10425000EF4E454A287ECA3F65DBC9934A86CD3F6B
:1042600001411DA96074D13F4D268F515555D53F51
:10427000FFAB6FDBB66DDB3F033333333333E33FE9
:10428000000000E009C7EE3FF5015B14E02F3EBEE1
:10429000000040438E98030079B60B004062000096
:1042A0000000F03F0000084000F0C4FE5246064601
:1042B0000F465B462046294600F008FD02460B46A5
:1042C0004046494600F002FD9FA3D3E9002300F0D9
:1042D000B1FE02460B463046394600F0F9FCDDF8E7
:1042E00038A0AB4B5344D3E9002300F0F1FC064661
:1042F0000F980F4600F038FEA64B5344D3E900ABAD
:1043000004460D4632463B46DDE9060100F0E0FC7E
:1043100052465B4600F0DCFC22462B4600F0D8FCFF
:10432000089822462B468046894600F0CFFC52462C
:104330005B4600F0CBFCDDE9062300F0C7FC02463B
:104340000B463046394600F0C1FCDDF804C0824619
:104350008B4604994B1E53EA0C030CBF8E4B8F4BBC
:104360000022CDE90823DDE90223CDE9042300235F
:104370000493DDE90445DDE902012B46224600F005
:10438000A5FC42464B4600F055FE524606460F46F7
:104390005B46DDE9020100F04DFE02460B46304669
:1043A000394600F095FC42464B4682468B462046F5
:1043B000294600F03FFE06460F463B46504659460A
:1043C000324600F085FC764B9942804689460D4680
:1043D00040F34A8101F13F4303F5E003034340F01A
:1043E000F6815BA3D3E900235046594600F070FCE8
:1043F0003246CDE902013B464046494600F066FCA4
:1044000002460B46DDE9020101F0A4F8002840F065
:10441000DE81CC464FEA2C53A3F2FE334FF48010DA
:1044200018412844C0F30A515E4AA1F2FF3342FA10
:1044300003FEC1F58261C0F3130420EA0E030331C9
:1044400044F4801040FA01F1002D0491BCBF4942B0
:10445000049100223046394600F038FC06460F46EB
:104460003246504659463B4600F032FC049A12054B
:104470000292002438A3D3E9002320460D4600F021
:10448000D9FD3246804689463B462046294600F003
:104490001DFC02460B465046594600F017FC30A35F
:1044A000D3E9002300F0C6FD2FA3D3E9002306467D
:1044B0000F462046294600F0BDFD02460B46304619
:1044C000394600F005FC06460F4632463B4640465C
:1044D000494600F0FDFB42464B4604460D4600F0BF
:1044E000F5FB02460B463046394600F0EFFB22460C
:1044F00082468B4620462B46294600F09BFD1CA396
:10450000D3E9002306460F4600F094FD1AA3D3E931
:10451000002300F0DBFB32463B4600F08BFD18A386
:10452000D3E9002300F0D4FB32463B4600F082FD85
:1045300015A3D3E9002300F0C9FB32463B4600F047
:1045400079FD31E0AFF30080FD033ADC09C7EE3FAF
:10455000FE822B654715973C00000000432EE63F86
:10456000EF39FAFE422EE63F396CA80C615C20BEA2
:10457000D0A4BE726937663EF16BD2C541BDBB3E69
:104580002CDE25AF6A56113F93BDBE166CC1663F47
:1045900030620000206200000000F0BF0000F03F29
:1045A000FFFF8F40FFFF0F00A3A3D3E9002300F01C
:1045B0008FFB32463B4600F03DFD02460B4620464F
:1045C000294600F083FB06460F4632463B4620460E
:1045D000294600F02FFD00228046894630463946A4
:1045E0004FF0804300F072FB02460B4640464946BE
:1045F00000F04AFE524606460F4620465B462946D4
:1046000000F018FD52465B4600F062FB02460B4686
:104610003046394600F05AFB22462B4600F056FB46
:1046200002460B460020924900F050FB029C0C44CD
:10463000B4F5801F0246C0F2F2802346DDE908018E
:1046400000F0F8FC25E4002DFFF666AC0020002108
:104650001FE44046494642464B4600F0EBFC18E456
:1046600000210491FFF7F2BB824B21F0004C9C45E6
:1046700040F3CA8001F17D5303F53C1303F5505319
:10468000034310D132463B46CDF804C000F01EFB78
:1046900002460B465046594600F048FFDDF804C07C
:1046A00000283FF4B7AEDDE9080165A3D3E9002394
:1046B00000F0C0FC62A3D3E9002300F0BBFCFFF7CD
:1046C000E8BB002DC2DA039B029803F10041FFF71B
:1046D000E0BB02460B460020654900F0D5FDFFF720
:1046E000F3BB654B9A45AEDD614B9A453FF711AC84
:1046F00000225F4BCDF804C000F0E8FA52A3D3E9E2
:10470000002304460D4600F095FC51A3D3E9002395
:1047100006460F462046294600F08CFC224682467B
:104720008B462B462046294600F084FC002280461A
:10473000894620462946514B00F07CFC02460B4638
:1047400045A1D1E9000100F0C1FA22462B4600F054
:1047500071FC02460B460020494900F0B7FA0246B8
:104760000B464046494600F065FC3DA3D3E90023D3
:1047700000F060FC02460B465046594600F0A6FA8F
:1047800004460D4622462B463046394600F0A0FA34
:10479000002032463B468046894600F097FA0246A2
:1047A0000B462046294600F091FADDF804C0824607
:1047B0008B46CEE500252B463DE400231DE4424612
:1047C0004B4600202A4900F05FFDFFF762BBDDE9A0
:1047D000080125A3D3E9002300F02CFC22A3D3E990
:1047E000002300F027FCFFF754BB002C7FF45AABEA
:1047F000C3F5826303334BFA03F202FA03F35B451A
:1048000013D00494FFF727BB1D4B9C453FF702AE26
:10481000049B02932DE64FF4802501230BE4049AB8
:1048200000F0BAF902460B4608E702F00102C2F1B5
:1048300002020492FFF70FBB3E5555555555C53F33
:1048400059F3F8C21F6EA501000000604715F73F3D
:1048500044DF5DF80BAE543E555555555555D53F83
:10486000FE822B654715F73F9C7500883CE4377E38
:104870000000F03FFFCB9040FEFFEF3F0000D03F35
:104880000000E03FAFF3008021F0004C2DE9F84339
:104890004FEA1C5CDFF86C814FEA0C5CC4450646AD
:1048A0000F460B46024600F08F8000296FDD0F1582
:1048B00078D0A7F2FF37C3F31303F90743F480134B
:1048C00060D4D10F4FF0000C01EB43037F10520076
:1048D000654616204FF400116C189C424FEAD276C0
:1048E0004FEA420202DC1B1B65188C44013806EBC0
:1048F00043034FEA5101EFD1804620264FF000419B
:1049000009E023D0D40F013E4FEA510104EB4303E9
:104910004FEA42021ED0AB4201EB0804F1DD04F085
:104920000049B9F1004F04EB010809D0A9465B1B0F
:10493000944288BF03F1FF33121B08444D46E1E760
:10494000B8F1000FF2DB05F10109F0E79442E6D976
:104950001D46D7E71A4304D0431C41D000F00103A1
:10496000184446084FEA6C031CF0010F03F17F5313
:1049700003F5001318BF46F0004603EB075130461D
:10498000BDE8F883D10F01EB4303520099E721F012
:104990000043034322D051BB0F46D30A153F5205B3
:1049A000002BFAD013F480111DD15B00D80201F165
:1049B0000101FAD5C1F10100C1F1200422FA04F489
:1049C000234307448A4074E702460B4600F032FB5B
:1049D00032463B4600F07CF9BDE8F883BDE8F88339
:1049E0000CF1010CBEE7202401200021E6E702467D
:1049F0000B4600F06BF902460B4600F045FCBDE8A3
:104A0000F88300BF0000F07F21F00041704700BF35
:104A100041F0004101F58010C00F704731F00043B4
:104A200010B408D00F4AA3F5801494420AD8042089
:104A30005DF8044B704700280CBF022003205DF88E
:104A4000044B7047B3F5801F01D20320F7E7064AF5
:104A5000934201D00020F2E7D0F1010038BF0020DE
:104A6000EDE700BFFFFFDF7F0000F07F0020704711
:104A700000200149704700BF0000F87F2DE9F04396
:104A8000C1F30A57A7F2FF36132E83B002460B4636
:104A9000894684464FEAD17832DC002E4DDB3B4913
:104AA000314101EA030010432FD0490801EA030C09
:104AB0005CEA020C0DD04FF48029132E23EA010189
:104AC00049FA06F641EA060914BF4FF0000C4FF010
:104AD000004C2F4B03EBC8084F46D8E900896246CB
:104AE0003B464046494600F0F3F8CDE90001424616
:104AF0004B46DDE9000100F0E9F803B0BDE8F083C2
:104B0000332E07DDB6F5806F3DD01046194603B051
:104B1000BDE8F083A7F213474FF0FF31F94001429F
:104B2000F3D049080142D4D04FF0804C20EA010173
:104B30004CFA07F741EA070CCBE721F000410143AB
:104B4000E3D0C3F31301124C0143484204EBC80401
:104B5000D4E900450843000B590C490400F4002037
:104B600040EA01032046294600F0B2F8CDE90001F1
:104B70002B462246DDE9000100F0A8F821F00043B1
:104B800043EAC871C3E700F0A3F8C0E7FFFF0F00D6
:104B900058620000FFFFFFFFC1F30A532DE9F04107
:104BA000904606460F460A461BBB21F000430343CE
:104BB00034D03B4B002200F03DFA3A4B9845064674
:104BC0000F463BDBC1F30A53363B0A46434440F2EF
:104BD000FE718B4216DD32463B462DA1D1E9000124
:104BE00000F066F82AA3D3E9002300F023FABDE819
:104BF000F08140F2FF74A34227D0434440F2FE719B
:104C00008B42E8DC002B0BDD22F0FF4222F4E002B5
:104C100042EA035730463946BDE8F081BDE8F081ED
:104C200013F1350F17DA4CF25033984532463B46B4
:104C300020DC19A1D1E9000100F03AF816A3D3E96C
:104C4000002300F0F7F9BDE8F08102460B4600F0C2
:104C50003FF8BDE8F08122F0FF4222F4E002363353
:104C600042EA03573046394600220F4B00F0E2F982
:104C7000BDE8F08106A1D1E9000100F019F804A314
:104C8000D3E9002300F0D6F9BDE8F081AFF300804E
:104C90009C7500883CE4377E59F3F8C21F6EA5016D
:104CA00000005043B03CFFFF0000903CAFF3008099
:104CB00030B403F0004321F0004243EA020130BC6B
:104CC000704700BF81F0004102E000BF83F0004365
:104CD00030B54FEA41044FEA430594EA050F08BF97
:104CE00090EA020F1FBF54EA000C55EA020C7FEA5B
:104CF000645C7FEA655C00F0E2804FEA5454D4EBD8
:104D00005555B8BF6D420CDD2C4480EA020281EAA1
:104D1000030382EA000083EA010180EA020281EAD9
:104D20000303362D88BF30BD11F0004F4FEA01312B
:104D30004FF4801C4CEA113102D0404261EB41013A
:104D400013F0004F4FEA03334CEA133302D05242C0
:104D500063EB430394EA050F00F0A780A4F101047C
:104D6000D5F1200E0DDB02FA0EFC22FA05F28018B6
:104D700041F1000103FA0EF2801843FA05F359419C
:104D80000EE0A5F120050EF1200E012A03FA0EFC1B
:104D900028BF4CF0020C43FA05F3C01851EBE37145
:104DA00001F0004507D54FF0000EDCF1000C7EEB62
:104DB00000006EEB0101B1F5801F1BD3B1F5001FA0
:104DC0000CD349085FEA30004FEA3C0C04F10104BF
:104DD0004FEA445212F5800F80F09A80BCF1004FE8
:104DE00008BF5FEA500C50F1000041EB045141EA6A
:104DF000050130BD5FEA4C0C404141EB010111F46B
:104E0000801FA4F10104E9D191F0000F04BF014615
:104E10000020B1FA81F308BF2033A3F10B03B3F1F3
:104E200020020CDA0C3208DD02F1140CC2F10C0283
:104E300001FA0CF021FA02F10CE002F11402D8BFE1
:104E4000C2F1200C01FA02F120FA0CFCDCBF41EAAD
:104E50000C019040E41AA2BF01EB0451294330BD7C
:104E60006FEA04041F3C1CDA0C340EDC04F1140459
:104E7000C4F1200220FA04F001FA02F340EA030030
:104E800021FA04F345EA030130BDC4F10C04C4F176
:104E9000200220FA02F001FA04F340EA0300294656
:104EA00030BD21FA04F0294630BD94F0000F83F4A0
:104EB000801306BF81F480110134013D4EE77FEA83
:104EC000645C18BF7FEA655C29D094EA050F08BFCF
:104ED00090EA020F05D054EA000C04BF19461046B0
:104EE00030BD91EA030F1EBF0021002030BD5FEAF4
:104EF000545C05D14000494128BF41F0004130BD1C
:104F000014F580043CBF01F5801130BD01F000456F
:104F100045F0FE4141F470014FF0000030BD7FEAE2
:104F2000645C1ABF194610467FEA655C1CBF0B46DD
:104F3000024650EA013406BF52EA033591EA030FF4
:104F400041F4002130BD00BF90F0000F04BF0021EC
:104F5000704730B54FF4806404F132044FF000051F
:104F60004FF0000150E700BF90F0000F04BF002198
:104F7000704730B54FF4806404F1320410F00045FE
:104F800048BF40424FF000013EE700BF42004FEAF9
:104F9000E2014FEA31014FEA02701FBF12F07F4376
:104FA00093F07F4F81F06051704792F0000F14BF73
:104FB00093F07F4F704730B54FF4607401F00045B7
:104FC00021F0004120E700BF50EA010208BF70470E
:104FD00030B54FF000050AE050EA010208BF704703
:104FE00030B511F0004502D5404261EB41014FF46C
:104FF000806404F132045FEA915C3FF4DCAE4FF070
:1050000003025FEADC0C18BF03325FEADC0C18BF56
:10501000033202EBDC02C2F1200300FA03FC20FAA7
:1050200002F001FA03FE40EA0E0021FA02F11444F4
:10503000C1E600BF70B54FF0FF0C4CF4E06C1CEA09
:1050400011541DBF1CEA135594EA0C0F95EA0C0F7E
:1050500000F0DEF82C4481EA030621EA4C5123EAF1
:105060004C5350EA013518BF52EA033541F4801120
:1050700043F4801338D0A0FB02CE4FF00005E1FBD3
:1050800002E506F00042E0FB03E54FF00006E1FB1D
:1050900003569CF0000F18BF4EF0010EA4F1FF0460
:1050A000B6F5007F64F5407404D25FEA4E0E6D41A0
:1050B00046EB060642EAC62141EA55514FEAC520B1
:1050C00040EA5E504FEACE2EB4F1FD0C88BFBCF52D
:1050D000E06F1ED8BEF1004F08BF5FEA500E50F1DE
:1050E000000041EB045170BD06F0004646EA0101A4
:1050F00040EA020081EA0301B4EB5C04C2BFD4EBD6
:105100000C0541EA045170BD41F480114FF0000ECE
:10511000013C00F3AB8014F1360FDEBF002001F03C
:10512000004170BDC4F10004203C35DA0C341BDCB6
:1051300004F11404C4F1200500FA05F320FA04F088
:1051400001FA05F240EA020001F0004221F00041BC
:1051500010EBD37021FA04F642EB06015EEA430E2F
:1051600008BF20EAD37070BDC4F10C04C4F120055F
:1051700000FA04F320FA05F001FA04F240EA020012
:1051800001F0004110EBD37041F100015EEA430EE3
:1051900008BF20EAD37070BDC4F1200500FA05F203
:1051A0004EEA020E20FA04F301FA05F243EA020382
:1051B00021FA04F001F0004121FA04F220EA020091
:1051C00000EBD3705EEA430E08BF20EAD37070BDD7
:1051D00094F0000F0FD101F00046400041EB0101B7
:1051E00011F4801F08BF013CF7D041EA060195F099
:1051F000000F18BF704703F00046520043EB030353
:1052000013F4801F08BF013DF7D043EA060370473F
:1052100094EA0C0F0CEA135518BF95EA0C0F0CD04A
:1052200050EA410618BF52EA4306D1D181EA030190
:1052300001F000414FF0000070BD50EA410606BF8A
:105240001046194652EA430619D094EA0C0F02D1CF
:1052500050EA013613D195EA0C0F05D152EA033614
:105260001CBF104619460AD181EA030101F0004132
:1052700041F0FE4141F470014FF0000070BD41F07B
:10528000FE4141F4780170BD70B54FF0FF0C4CF455
:10529000E06C1CEA11541DBF1CEA135594EA0C0F74
:1052A00095EA0C0F00F0A7F8A4EB050481EA030EC1
:1052B00052EA03354FEA013100F088804FEA0333A8
:1052C0004FF0805545EA131343EA12634FEA022276
:1052D00045EA111545EA10654FEA00260EF0004137
:1052E0009D4208BF964244F1FD0404F5407402D289
:1052F0005B084FEA3202B61A65EB03055B084FEA1A
:1053000032024FF480104FF4002CB6EB020E75EB16
:10531000030E22BFB61A754640EA0C005B084FEA3E
:105320003202B6EB020E75EB030E22BFB61A7546BB
:1053300040EA5C005B084FEA3202B6EB020E75EB06
:10534000030E22BFB61A754640EA9C005B084FEA7E
:105350003202B6EB020E75EB030E22BFB61A75468B
:1053600040EADC0055EA060E18D04FEA051545EA7A
:1053700016754FEA06164FEAC30343EA52734FEA23
:10538000C2025FEA1C1CC0D111F4801F0BD141EA9C
:1053900000014FF000004FF0004CB6E711F4801F01
:1053A00004BF01430020B4F1FD0C88BFBCF5E06FE1
:1053B0003FF6AFAEB5EB030C04BFB6EB020C5FEAF1
:1053C000500C50F1000041EB045170BD0EF0004E46
:1053D0004EEA113114EB5C04C2BFD4EB0C0541EA78
:1053E000045170BD41F480114FF0000E013C90E675
:1053F00045EA060E8DE60CEA135594EA0C0F08BF39
:1054000095EA0C0F3FF43BAF94EA0C0F0AD150EA37
:1054100001347FF434AF95EA0C0F7FF425AF1046CA
:1054200019462CE795EA0C0F06D152EA03353FF4F2
:10543000FDAE1046194622E750EA410618BF52EA6F
:1054400043067FF4C5AE50EA41047FF40DAF52EA43
:1054500043057FF4EBAE12E74FF0FF3C06E000BFE0
:105460004FF0010C02E000BF4FF0010C4DF804CDED
:105470004FEA410C7FEA6C5C4FEA430C18BF7FEAAD
:105480006C5C1BD001B050EA410C0CBF52EA430CDB
:1054900091EA030F02BF90EA020F0020704710F15B
:1054A000000F91EA030F58BF994208BF90422CBFEA
:1054B000D8176FEAE37040F0010070474FEA410CE3
:1054C0007FEA6C5C02D150EA013C07D14FEA430C01
:1054D0007FEA6C5CD6D152EA033CD3D05DF8040B72
:1054E000704700BF8446104662468C4619466346A4
:1054F00000E000BF01B5FFF7B7FF002848BF10F17B
:10550000000F01BD4DF808EDFFF7F4FF0CBF0120BF
:1055100000205DF808FB00BF4DF808EDFFF7EAFF3B
:1055200034BF012000205DF808FB00BF4DF808EDF6
:10553000FFF7E0FF94BF012000205DF808FB00BFEB
:105540004DF808EDFFF7CEFF94BF012000205DF875
:1055500008FB00BF4DF808EDFFF7C4FF34BF012082
:1055600000205DF808FB00BF4FEA410212F500126F
:1055700015D211D56FF47873B3EB625212D94FEA9A
:10558000C12343F0004343EA505311F0004F23FA84
:1055900002F018BF404270474FF00000704750EAD9
:1055A000013005D111F0004008BF6FF00040704796
:1055B0004FF00000704700BF4A0011D212F50012F0
:1055C00011D20DD56FF47873B3EB62520ED44FEA5B
:1055D000C12343F0004343EA505323FA02F07047DB
:1055E0004FF00000704750EA013002D14FF0FF3019
:1055F00070474FF00000704703460846194600F018
:1056000001B800BF10B40C461346014622460220E2
:105610005DF8044B00F018BB014B1868704700BFE1
:10562000908CFF1F70B50F4E0F4D761BB61007D034
:10563000043D0024013455F8043F9847A642F9D1AF
:105640000A4E0B4D761B00F013FEB61008D0043D39
:105650000024013455F8043F9847A642F9D170BDA3
:1056600070BD00BF7C6200007C6200009862000098
:105670007C620000024B0146186800F003B800BFCE
:10568000908CFF1F2DE9F04F01F10B05162D83B013
:10569000064627D935F0070527D4A94225D8304634
:1056A00000F08CFAB5F5FC7F26D2C14F4FEAD50C3D
:1056B00007EBCC03DC689C4200F0D2816368E268AF
:1056C000A16823F00303234430465D68CA6045F0B7
:1056D000010591605D6000F073FA0834204603B064
:1056E000BDE8F08F1025A942D9D900240C2320460B
:1056F000336003B0BDE8F08F5FEA552C00F08A807C
:10570000BCF1040F00F260814FEA951C0CF1380CDB
:105710004FEA4C01A64F07EB8101CC68A14205D1AD
:105720000CE0002B7ADAE468A14207D0626822F02C
:105730000302531B0F2BF4DD0CF1FF3C0CF1010CA9
:105740009B4B3C6903F1080E744500F07E81616853
:1057500021F003014A1B0F2A00F36481002AC3F8D9
:1057600014E0C3F810E06ADAB1F5007F80F03A8106
:10577000C90803EBC1004FEAA1085A688168A1601B
:105780004FF0010909FA08F848EA0202E0605A609D
:105790008460CC604FEAAC030120984090425BD813
:1057A000024206D12CF0030C400002420CF1040C22
:1057B000FAD007EBCC084446E146E3689C4207D1A7
:1057C00045E1002A80F25681DB689C4200F03F816F
:1057D000596821F003014A1B0F2AF2DD1C46D3F859
:1057E0000CC054F8088F591945F0010942F0010521
:1057F000C3F804903046C8F80CC0CCF80880796132
:105800003961C1F80CE0C1F808E04D608A5000F041
:10581000D7F963E77E214FF03F0C7BE72244E36832
:105820005068A16840F00105CB6030469960556032
:1058300000F0C6F90834204603B0BDE8F08F2144DB
:1058400030464B6843F001034B6000F0B9F908346F
:10585000204603B0BDE8F08FBC68636823F00309FD
:10586000A94504D3C5EB09030F2B00F39180514BDD
:10587000514A19681368013305EB010A04EB090B5F
:1058800000F061810AF5805A0AF10F0A2AF47F6A52
:105890002AF00F0A30465146019200F093F9B0F118
:1058A000FF3F8046019A00F00081834500F2FA80B4
:1058B000DFF810C1DCF80030C3455344CCF80030A9
:1058C00000F04A8112683C4901321BBFCBEB080B48
:1058D0005B44C1F80080CCF8003018F0070300F0FA
:1058E0001381C3F10802C3F5805390440833C244C6
:1058F000CAF30B0ACAEB030A51463046CDF804C07E
:1059000000F060F9431CDDF804C000F03581C8EBFD
:105910000002524442F00102DCF80030C7F808806F
:105920005344BC42C8F80420CCF80030DFF894A0FF
:1059300015D0B9F10F0F40F2EA806168A9F10C02AD
:1059400022F0070201F0010EA118052042EA0E0E16
:105950000F2AC4F804E04860886000F21181174AF9
:10596000BC6811688B4288BF1360154A11688B426E
:1059700088BF1360626822F003029542C5EB020300
:1059800001D80F2B04DC304600F01AF90024A5E6FC
:10599000621943F0010345F0010565603046BA60C5
:1059A000536000F00DF90834204603B0BDE8F08FD5
:1059B000948CFF1F9894FF1FA090FF1F9494FF1FCB
:1059C0009094FF1F9C94FF1FBCF1140F61D9BCF190
:1059D000540F00F28F804FEA153C0CF16E0C4FEA29
:1059E0004C0197E64B0A042B58D9142B00F2AE80D9
:1059F00003F15B02500007EB8000DFF8BC81836895
:105A0000834200F08A805A6822F00302914202D257
:105A10009B689842F7D1D9687A68E160A3608C608E
:105A2000DC60B7E6611942F0010745F001056560E9
:105A3000304659611961C1F80CE0C1F808E04F60C7
:105A40008A50083400F0BCF848E65A68A2E609F12A
:105A5000010919F0030F04F108047FF4AEAE2DE044
:105A600004F108036469A34208BF0CF1020C3FF47F
:105A700067AE23E619441C464868DB6854F8082FD3
:105A800040F001054D603046D3609A6000F098F810
:105A900024E60CF15B0C4FEA4C013BE68A093832F4
:105AA0005000A8E7BC423FF403AFBC68626822F034
:105AB000030262E7D8F8008098457BD11CF0030F01
:105AC000A8F108030CF1FF3CF4D17B6823EA000342
:105AD0007B60400098423FF6BFAE00283FF4BCAE6A
