:1000000000800020BD01000081200000452000008C
:10001000452000004520000045200000452000004C
:100020004520000045200000452000008120000000
:1000300081200000452000008120000035200000C4
:10004000812000008120000081200000812000002C
:10005000812000008120000081200000812000001C
:10006000812000008120000081200000812000000C
:1000700081200000812000008120000081200000FC
:1000800081200000812000008120000081200000EC
:1000900081200000812000008120000081200000DC
:1000A000A9100000812000008120000081200000B4
:1000B00081200000812000008120000081200000BC
:1000C00081200000812000008120000081200000AC
:1000D000812000008120000081200000812000009C
:1000E000812000008120000081200000812000008C
:1000F00081200000493D00008120000041420000B5
:10010000812000005D460000812000008120000069
:10011000812000008120000081200000812000005B
:10012000812000008120000081200000812000004B
:10013000812000008120000081200000812000003B
:10014000812000008120000081200000812000002B
:10015000812000008120000081200000812000001B
:1001600081200000352A000081200000812000004D
:1001700081200000812000008120000081200000FB
:1001800081200000812000008120000081200000EB
:1001900081200000812000008120000081200000DB
:1001A00081200000812000008120000081200000CB
:1001B0008120000081200000F536000010B56B4B57
:1001C0004CF220521A804DF628121A8000BF00BF50
:1001D00001F05AFF4FF01062654B1A60654A083310
:1001E0001A60654A04331A60A3F530432C3B1B6840
:1001F00013F4807F06D10022604B1A604FF4A8529E
:10020000043B1A605E4B1B7813F0080F04D05C4B64
:100210001A7842F008021A702A225A4B1A705A4B66
:100220005A4A9A420DD2131D594CE41A24F0030481
:1002300004340023104657495A581A500433A34235
:10024000FAD1554B554A9A4280F08C80131F54497D
:10025000C91A21F003011A1D1144002243F8042F8A
:100260008B42FBD17EE05A581A500433B3F5DE7F3F
:10027000F9D14C4B80214C4A03F8011B9342FBD12E
:100280004A4B4B4A1A600A224A4B1A702422A3F6A0
:10029000FF731A70A022013B1A7006331A7812F00D
:1002A000020FFBD0444B1A7812F0100FFBD1424BD7
:1002B0001A7802F00C02082AFAD103223F4B1A7076
:1002C000462201331A7001331A7812F0200FFBD046
:1002D000394B1A7812F0400FFBD04FF08272384B36
:1002E0001A60092204331A602022364B1A70063332
:1002F0001A7802F00C020C2AFAD1334A334B1A60F6
:10030000334A344B1A60002204331A600722083B38
:100310001A60314A03F551631A6062B602F04CFA72
:10032000164B1B6813F0010F05D02C4802F0A6F8FD
:100330002B4A2C4B1A602C4B1B7813F0400F0AD021
:10034000284B1A68264B9A4205D1244802F096F8A9
:100350000022244B1A6006F0ADF901F09BFE03F079
:100360007FFAFEE70023124820497CE70E20054073
:1003700030800440823F04000100002B14D0034071
:1003800002D0074000E007409C9CFF1F6093FF1FC6
:100390009F9CFF1F40180200E8B0FF1F9C9CFF1F9E
:1003A000E3B0FF1F00E400E05FE400E008ED00E0E0
:1003B000008EFF1F005006400640064004400640E5
:1003C0004480044000400640C01005000480044002
:1003D000BFD4010014E000E00000202061F2A65527
:1003E000A5C3945A1CE0034000F007400000000041
:1003F000FFFFFFFFFFFFFFFFFFFFFFFFFFFFFFFF0D
:10040000FFFFFFFFFFFFFFFFFFFFFFFFFEFFFFFFFD
:1004100010B5054C237833B9044B13B10448AFF33E
:1004200000800123237010BD9C9CFF1F0000000072
:100430004018020008B5064B1BB106480649AFF349
:1004400000800648036813B1054B03B1984708BD07
:100450000000000040180200A09CFF1F9C9CFF1F92
:100460000000000008B5064B1A680648064B53F812
:10047000221000F055FD054B1A68054B1A6008BDA7
:10048000D49CFF1FFC9CFF1F6493FF1FC4ADFF1F84
:10049000B09DFF1F08B5064B1A680648064B53F877
:1004A000221000F03DFD054B1A68054B1A6008BD8F
:1004B000A493FF1F249DFF1F6493FF1FC4ADFF1F64
:1004C000CC9DFF1F0F4B036041720261002303723A
:1004D000C36039B11946026942F823100133427AE8
:1004E0009A42F8DC084B1A680AB9186004E05369AC
:1004F0000BB11A46FBE75061002343618380C38040
:10050000704700BF10700000BCAEFF1F10B50C207C
:1005100001F0A6FC0C2001F0C1FF0820022101F02F
:10052000FBFF0920002101F0F7FF1420002101F05A
:10053000F3FF1720002101F0EFFF164C20460821A1
:1005400001F096FA2046052101F0A8FA142012497C
:10055000032201F033FF09201049032201F02EFF8E
:100560000F48082102F0A6FF0E4B4FF400429A619B
:10057000DA610320012101F0CFFF0420012101F005
:10058000CBFF0520012101F0C7FF0620012101F06A
:10059000C3FF10BDD89CFF1F650400009504000038
:1005A0000082FF1F789DFF1F38B504460D4610F0EE
:1005B000010F4FF0060014BF0946002101F0CEFFE5
:1005C00014F0020F4FF0050014BF2946002101F07E
:1005D000C5FF14F0040F4FF0040014BF294600219A
:1005E00001F0BCFF14F0080F4FF0030014BF2946C0
:1005F000002101F0B3FF38BD10B5464C204601F094
:10060000FBF9454801F0F8F9204601F01FFA58B10E
:10061000204601F021FA414B18600022404B1A702D
:10062000404B1A68404B1A603B4801F00FFA58B132
:10063000394801F011FA3D4B18600122384B1A700D
:10064000384B1A68384B1A60394C204601F028FAAA
:10065000204601F055FA20B13648374BD96800F0F2
:100660005FFC304B1A68304B1B68D31AB3F57A7FA6
:100670002CD90320012101F04FFF0420012101F0BA
:100680004BFF0520012101F047FF0620012101F069
:1006900043FF244B1A68294B1B68D31A312B94BF94
:1006A000274B284B4FF400521A604FF480521A60C7
:1006B0001C4B1A68244B1B68D31A312B94BF234B55
:1006C000234B10221A6080221A6010BD144B1B7835
:1006D0007BB9144B1A68194B1B68D31A312B0F4B7B
:1006E000186894BF40F6FF714FF48061FFF75CFF1C
:1006F00010BD0C4B1A68144B1B68D31A312B0B4BD3
:10070000186894BF40F6FF714FF48061FFF74CFF0B
:1007100010BD00BF4C9DFF1FE09CFF1FD49CFF1F1E
:10072000C89DFF1FC4ADFF1FB49DFF1FA493FF1FF3
:10073000D89CFF1FFC9CFF1F6493FF1FB09DFF1FF1
:1007400004F00F4008F00F40CC9DFF1FC4F00F4095
:10075000C8F00F402DE9F0412D4801F081F92D48F6
:1007600017210F220C2301F027F92B4815210F2206
:100770000C2301F021F9294F384600210A46FFF7E2
:10078000A1FE274D3D60002487F82640DFF8B080A9
:10079000404621462246FFF795FEC8F8005088F8EB
:1007A0002640204D2846042105F12802FFF78AFE45
:1007B0001D4B2B604FF48033AB61EB612B626B629E
:1007C0001A4E3046012106F11802FFF77BFE184B46
:1007D0003360304600F038F91648C0F800804560B4
:1007E000047201224272C46002F056FF1248076090
:1007F000456004724472C46002F04EFF0F48056009
:10080000466004724472C46002F046FFBDE8F081A5
:10081000D89CFF1F4C9DFF1FE09CFF1FFC9CFF1FEF
:10082000C0140200789DFF1FA0140200B89CFF1F97
:10083000B0140200D09DFF1FB89DFF1F689DFF1FD1
:10084000249DFF1F10B5044602F0F0FF204610BDA6
:1008500008B503480349044A05F016FF08BD00BF68
:10086000E09DFF1F450800006093FF1F08B5034887
:100870000349044A05F008FF08BD00BFE89DFF1FBB
:10088000450800006093FF1F10B400F580740368F2
:1008900031FB03F231FB13F302F30F0203F30F03F7
:1008A000C2EA034340F8043B8442F0D15DF8044BB4
:1008B000704700BF70B400F58076B2F5803F11D16B
:1008C0000023C258CC5892FA14F2C250C21854688D
:1008D000CD186D6894FA15F454600833B3F5807F31
:1008E000EFD112E051F8043B32FB03F532FB13F376
:1008F00005F30F0503F30F03C5EA0343046893FAF6
:1009000014F440F8044B8642ECD170BC704700BF31
:100910002DE9F04180460546002426466EB9404642
:10092000214602F095FE0646A8B1A969B1F5803FBF
:1009300011D00430FFF7A8FF0DE04046214602F039
:100940007BFE074638B1301D391DAA69FFF7B2FF9B
:10095000384602F03BFE01340435042CDED13EB1B2
:1009600040463146002202F051FE304602F02EFE93
:10097000BDE8F08108B5002102F05EFE0246A0B19C
:1009800072B60A4B186810B91A6062B608BD084BF7
:100990001B681BB9064B1A6062B608BD03490B60A1
:1009A000034B1A6062B602F011FE08BD009EFF1FE5
:1009B000F09DFF1F38B51C4B1A68126819791B4B44
:1009C00019701B4B9A4206D2A3F5807404F580730C
:1009D00004F5007402E0174B03F58074164A1068A2
:1009E00098B1021D47F6FF7532F9021B294409111F
:1009F00023F8021B9C42F7D802F0E8FD0F4B1A685F
:100A00000D490A6000221A6005E040F2FF7223F8E7
:100A1000022B9C42FBD80A4B1B781BB14FF0804243
:100A2000084B1A6038BD00BFF49DFF1F1F800040B7
:100A3000208BFF1F208AFF1F009EFF1FF09DFF1FBE
:100A4000FC9DFF1F08E200E070B54F48012102F055
:100A50008FFE4E4B1A6842F480521A60802203F5D2
:100A6000032303F6F5731A700024494E01253480E0
:100A7000284601F08DFE0834A4B223B2B3F5006F0E
:100A8000F5D1444B1B6813F4800F16D0424B1A6803
:100A900048F6A2731A409A420FD1404B1A6840F2AE
:100AA0004F539A4209D13E4B1B68012B05D13D4B58
:100AB0001A6840F201139A4217D0364B1A6842F472
:100AC00080021A600122A3F59033303B1A6040F295
:100AD0004F52083B1A60043B48F6A3721A60324A30
:100AE0001A6040F2011210331A60274C23681A680A
:100AF00000222E4919602368022119715A710120C0
:100B00009871D87119725A729A72DA721A736FF0F8
:100B1000010159734FF0FF319973D97319691C4959
:100B200019611A755A75D98A4FF48071D9821A766B
:100B30005A769A76DA76D88BD983998B062199835F
:100B4000237903F1804303F504331A70B0221A703D
:100B500002F0BAFD164B18702279164B1A702279E2
:100B600002F110011448154B43F8210053119B006A
:100B700003F1604303F5614302F01F02012101FA12
:100B800002F21A6070BD00BFF49DFF1F2C8004406C
:100B900000C00C403C8004400060034004600340FF
:100BA0000C60034010600340A28F0100208AFF1FE9
:100BB000FC9DFF1F1B800040B5090000008EFF1F39
:100BC00008B503480349044A05F05EFD08BD00BFAF
:100BD000F49DFF1F450800006093FF1F08B5034800
:100BE0000349044A05F050FD08BD00BF049EFF1FE5
:100BF000450800006093FF1F08B503480349044AF5
:100C000005F042FD08BD00BF0C9EFF1F4508000017
:100C10006093FF1F08B503480349044A05F034FDFB
:100C200008BD00BF149EFF1F450800006093FF1F12
:100C30002DE9F047064690F8263013F0FF0F00F03C
:100C40006A8102F067FC0746002800F06481011DFC
:100C5000B369B48C96F82620D2B2032A00F09480AF
:100C600004D8012A0BD0022A37D030E1822A6FD073
:100C7000832A00F0F580812A40F029811FE00A468E
:100C800003F18005A54853F8041B5FFA81FE30F894
:100C90001EE0A2F800E0C1F3072E30F81EE0A2F833
:100CA00002E0C1F3074E30F81EE0A2F804E0090E9E
:100CB00030F81110D1800832AB42E4D10FE10022AC
:100CC0009D588D5288182D0C45800432B2F5807FD6
:100CD000F6D103F5807580220AE10A4603F140054A
:100CE000A1468E4853F8041BCCB230F814C0C1F3AF
:100CF000072430F81480C1F3074430F814E0090EDB
:100D000030F811400FFA8CF101FA89F94FEA6909BC
:100D1000A2F80090A2F802C00FFA88FC61444910C2
:100D20009180A2F806800FFA8EF18C444FEA6C0C89
:100D3000A2F808C0A2F80AE001FA84F149109181F2
:100D4000D4811032AB4200F0CC801FFA84F9C9E79D
:100D50000A4603F18005A64653F8044BA0B2240CC2
:100D600001B201FA8EFE4FEA6E0EA2F800E050804A
:100D700001FA84F149109180D4800832AB4200F02E
:100D8000B2801FFA84FEE7E70A4603F120052046F9
:100D9000DFF888E153F8041BCCB23EF814A0C1F38D
:100DA00007243EF81490C1F307443EF81480090E5E
:100DB0003EF8114000B20FFA8AF100EB400C8C446F
:100DC0004FEAAC0CA2F800C000EB010C4FEA6C0C2F
:100DD000A2F802C001EB410C604480109080A2F8A0
:100DE00006A00FFA89F084444FEAAC0CA2F808C0C0
:100DF00001EB000C4FEA6C0CA2F80AC000EB400CAF
:100E0000614489109181A2F80E900FFA88F18C4408
:100E10004FEAAC0CA2F810C000EB010C4FEA6C0CCE
:100E2000A2F812C001EB410C604480109082A2F83D
:100E3000168020B284444FEAAC0CA2F818C001EB33
:100E4000000C4FEA6C0CA2F81AC000EB4000014401
:100E500089109183D4832032AB4246D0A0B299E767
:100E60000A4603F14005204653F8044B1FFA84FC60
:100E7000240C00B20FFA8CF100EB400E8E444FEAC6
:100E8000AE0EA2F800E000EB010E4FEA6E0EA2F8E3
:100E900002E001EB410E704480109080A2F806C081
:100EA00020B286444FEAAE0EA2F808E001EB000E35
:100EB0004FEA6E0EA2F80AE000EB400001448910F0
:100EC0009181D4811032AB4211D0A0B2CCE7384628
:100ED00002F07CFB002386F82630BDE8F0878022F4
:100EE00006E0402204E0402202E0202200E020222E
:100EF000B484B561336A9A4239BFC2EB03033362EB
:100F0000002386F8263030463946002202F07EFB68
:100F1000384602F05BFBBDE8F08700BF9412020088
:100F2000002380F8263083840A1D0B688261C26129
:100F300023F07F4202621B0E80F82630704700BF0C
:100F40000B4B1B7813B90B4B1B7873B10A4B1B78F7
:100F5000202B03D90123037100207047581C064A37
:100F60001070064AD154012070470020704700BF1E
:100F7000869EFF1F489EFF1F879EFF1F249EFF1F08
:100F8000704700BF024B1878024B1B78C01A70479D
:100F9000859EFF1F849EFF1F074B1B78074A127810
:100FA0009A4205D9591C044A1170054AD05C704711
:100FB0004FF0FF30704700BF849EFF1F859EFF1FCC
:100FC0004C9EFF1F054B1B78054A12789A4286BF3C
:100FD000044AD05C4FF0FF30704700BF849EFF1F73
:100FE000859EFF1F4C9EFF1F08B5104BDB7813F04A
:100FF000200F0CD1122001F029FA0D4B1B689BB178
:1010000000210C4A11700C4A1078984708BD0B4A11
:1010100013780133DBB21370012B02D8084B1B7815
:1010200013B9122001F012FA08BD00BF006006409B
:10103000209EFF1F849EFF1F859EFF1F709EFF1F27
:10104000489EFF1F38B514460D4B1B7813B90D4B46
:101050001B7893B10C4B1D78C5F12103A34202D23A
:10106000012202711C4609482844224600F050FD26
:101070002544054B1D70204638BD002038BD00BFFB
:10108000869EFF1F489EFF1F879EFF1F249EFF1FF7
:10109000002202714FF47A7181600273014A02608A
:1010A000704700BFD014020008B53D4BDB78DBB2BF
:1010B00013F0100F06D01021394AD17013F0400FF1
:1010C00003D108BD13F0400F2CD013F0040F1BD038
:1010D0000023344A1370344A1370344B1B681BB11D
:1010E0009847314B1B782BB901222F4B1A700022E5
:1010F0002F4B1A702A4BD0229A702D4A12781A71EF
:1011000001222C4B1A7009E00122264B1A70002292
:10111000294B1A70224BC0229A701B790222204B55
:10112000DA7008BD1E4A927812F0100F1CD013F02E
:10113000010F14D11F4B1B781B4A12789A4207D912
:10114000591C1C4A11701A4AD25C154B1A7102E0E4
:101150000022134B1A71D022114B9A701BE0104BD6
:10116000C0229A701B7916E00022144B1A701220CC
:101170001349032201F022F9094B1B79DAB20E4B15
:101180001B781F2B07D80749097821B1581C0A4939
:1011900008700C49CA540222014BDA7008BD00BF26
:1011A000006006401C9EFF1F879EFF1F6C9EFF1F56
:1011B000249EFF1F889EFF1F859EFF1F709EFF1F9E
:1011C000E90F00004C9EFF1F08B50248FFF760FFC3
:1011D00008BD00BF749EFF1F0368BBB100290BDD73
:1011E00072B6036893F805221144FF29A8BFFF21B6
:1011F00083F8051262B6704772B6036893F8052249
:10120000114421EAE17183F8051262B6704700BF0C
:1012100003684BB172B6036893F80422013A83F86D
:10122000042262B600230360704700BF10B4036855
:1012300053B1D3F800228A421CD093F80422013A19
:1012400083F80422002303600C4B03F6386493F800
:10125000062252B1D3F800228A4206D1036093F8E5
:101260000422013283F8042204E003F50273A3424E
:10127000EDD3002318465DF8044B7047A89EFF1F6E
:1012800070B50D461646364B1B78002B28D072B62B
:10129000334B1B7813F0010F07D0324B1968324AD9
:1012A00012680A4031490A601A602D4B1B7813F00E
:1012B000020F07D02E4B19682B4A52680A402B495F
:1012C0004A601A60264B1B7813F0040F07D0294B95
:1012D0001968254A92680A4024498A601A6062B6F1
:1012E000254BDA68254B9A4209D0234B244A1A60D1
:1012F000224ADA6002F180421A61224A1A602946C3
:10130000FFF794FF044628B92846314600F066F9F5
:10131000054600E00125124B1B78C3B113F0010F05
:1013200003D0124B1A68184B1A600D4B1B7813F040
:10133000020F03D00D4B5A68144B1A60084B1B78F0
:1013400013F0040F03D0094B9A68114B1A602CB1AB
:10135000304621464FF4007200F0DAFB284670BD9B
:10136000A49EFF1F80E100E08C9EFF1F989EFF1F40
:1013700084E100E088E100E000C00240000001B824
:1013800001401F0000001F8000E100E004E100E0D8
:1013900008E100E010B40C4BFF24002003F6386194
:1013A00093F8042232B993F80522A24202D232B154
:1013B0001446184603F502738B42F1D300E0184639
:1013C0005DF8044B704700BFA89EFF1F2DE9F04158
:1013D00004460D4617463F4B1B78002B28D072B6AB
:1013E0003C4B1B7813F0010F07D03B4B19683B4A6D
:1013F00012680A403A490A601A60364B1B7813F0AB
:10140000020F07D0374B1968344A52680A403449F2
:101410004A601A602F4B1B7813F0040F07D0324B31
:1014200019682E4A92680A402D498A601A6062B68D
:101430002E4BD9682E4B994209D02C4B2D4A1A605D
:101440002B4ADA6002F180421A612B4A1A60204668
:101450002946FFF7EBFE0646E0B92046FFF79AFF64
:101460008046A0B106462846414600F0B7F880B154
:10147000C4F80080C8F80052012388F8043217B974
:1014800088F8063206E0052388F8063202E00026D6
:1014900000E000260F4B1B78C3B113F0010F03D0FF
:1014A0000F4B1A68154B1A600A4B1B7813F0020F8A
:1014B00003D00B4B5A68124B1A60064B1B7813F083
:1014C000040F03D0064B9A680E4B1A603046BDE8F5
:1014D000F08100BFA49EFF1F80E100E08C9EFF1FF3
:1014E000989EFF1F84E100E088E100E000C0024018
:1014F000000001B801401F0000001F8000E100E073
:1015000004E100E008E100E01B4B1B68012283F8C6
:1015100000211A4B4FF00042DA62020A5A631A465F
:10152000D36A002BFCDA154B9A6B4FF00042DA625B
:101530000A0C42F080525A631A46D36A002BFCDA36
:101540000E4B9A6B4FF00042DA6289B241F0805143
:1015500059631A46D36A002BFCDA084B9A6B4FF09A
:101560000042DA62C0B258631A46D36A002BFCDA32
:10157000024B9B6B704700BFE0ACFF1F00C00240F6
:1015800030B40921094A4FF00045FF24D562546365
:10159000D36A002BFCDA906B10F0800F03D04B1E47
:1015A00013F0FF01F2D1C0B230BC704700C002405E
:1015B000084B1B68012283F88020074B4FF0004244
:1015C000DA62FF225A631A46D36A002BFCDA024B16
:1015D0009B6B7047E0ACFF1F00C0024070B5034634
:1015E0000D46324A1278012A98BF430245F2FF1095
:1015F0001946FFF789FFFFF7C3FF18B1FFF7D8FFC0
:10160000002070BD2A4A4FF00044FF20D46250638E
:10161000D36A002BFCDA936BDBB2FE2B05D0FF2BD9
:10162000F4D0FFF7C5FF002070BD05F5FF76204B15
:10163000204A5A635A63B54213D2A81C05F50075B7
:101640001A461C4CD36A13F0F00FFBD05463936B13
:10165000190A00F8021C00F8013C0230A842F1D13E
:1016600000E02E46124AD36A13F0F00FFBD0104B65
:101670009B6B1A0A327073700D4AD36A13F0F00F25
:10168000FBD00B4B9A6B0C4A1268012182F8801038
:101690004FF00042DA62FF225A631A46D36A002BE7
:1016A000FCDA034B9B6B012070BD00BFE4ACFF1F55
:1016B00000C00240FFFF0010E0ACFF1F30B583B058
:1016C000044600230193174B1968C569164B1B7814
:1016D000102B0AD101A801EB15210122FFF776FE9C
:1016E000B0B1EDB230F815300AE001A801EBD51128
:1016F0000122FFF76BFE68B105F07F0550F8253039
:10170000E3610A4A1468A3428CBF0024012402E06A
:10171000002400E0002401A8FFF77AFD204603B072
:1017200030BD00BF24ADFF1F28ADFF1F2CADFF1F34
:1017300010B582B002AB03F8011D02685468194667
:101740000122A04702B010BD90F82530012B1CBF2C
:10175000012303710020704790F82530012B07D832
:1017600003694069C01A0028B8BF6FF00040704795
:1017700000207047704700BF002202714FF47A7159
:101780008160027303490160042180F8251080F80C
:1017900026207047F0140200044A0260042280F8F8
:1017A0002520002280F82620704700BFF014020098
:1017B0002DE9F04F83B00646884690F82530012B7E
:1017C00000F2B08003694169C91A8A4234BF914668
:1017D0008946B9F1000F00F0A780564A127802F14D
:1017E0000901012000FA01F101390B40F1698C1E59
:1017F0009440514A1068044404EB5324C3F3080591
:10180000002D45D0002202A840F8042D2146FFF704
:10181000DDFD014658B3C5F5007BCB450DD94046EB
:1018200029444A4600F074F933694B44336101A8F6
:101830000121FFF7D1FC4D461AE0404629445A46A3
:1018400000F066F933695B44336101A84FF0FF3162
:10185000FFF7C2FC01A8FFF7DBFC0134354B1B7816
:10186000012202FA03F3013B1C420BD104E00025E4
:1018700001A8FFF7CDFC58E03046FFF71FFF08B97D
:101880005D4652E0CB4501D2D84403E05D464CE0D2
:101890004FF0000BCBEB09075D46CBEB080BDFF8F5
:1018A00094A00BEB050800230193B7F5007F13D23A
:1018B00001A821461A46FFF789FD014628B3404694
:1018C0003A4600F025F933693B44336101A8012110
:1018D000FFF782FC4D4618E001A821464246FFF77B
:1018E000CFFC90B1336903F50073336105F50075E2
:1018F00001A8FFF78DFC01349AF80030012202FAAA
:1019000003F3013B1C4208D103E001A8FFF780FC70
:101910000BE03046FFF7D2FE38B1A7F50077A945B6
:10192000BFD802E0002500E00025284603B0BDE84E
:10193000F08F00BFECACFF1FE8ACFF1F00B583B019
:101940000DF107010122FFF733FF01280CBF9DF8BD
:1019500007004FF0FF3003B05DF804FB70B582B0B4
:1019600004460669C5690DF107010122FFF720FF52
:10197000012803BF2661E5619DF807004FF0FF30A5
:1019800002B070BD10B5054C2046FFF7F5FE2046AD
:101990000349044A04F078FE10BD00BFF0ACFF1FFD
:1019A000991700006093FF1F014A024B1A607047AD
:1019B0000320003830ADFF1FD0B5064617461C4641
:1019C0006423C36001700846002100F0A5FD204695
:1019D00004F032FB02460B4600204FF0804103F03A
:1019E00003F904F029FEB060BAB2328212B290FB61
:1019F000F2F070613046D0BD10B50446007800F0BA
:101A00005BFA636990FBF3F004F016FB03F05CF8FB
:101A100004F012FE80B2B4F9022003B29A4206BF6B
:101A2000238B0133002323836080B4F91820E368FB
:101A30009A420ADDB4F9042003B29A4205D0002389
:101A40002383A08060830123637010BD43780BB1B2
:101A50000022427018467047B0F91A00704700BF64
:101A6000002202600A2181808271C271704700BF2A
:101A700038B50446CDB2C571284600F03FFD0023BD
:101A8000A371284600F03AFD08B10323A371024B6D
:101A90001B68236038BD00BFC4ADFF1F8180704745
:101AA00038B50446C07900F029FD003018BF012088
:101AB000A37903F0F702A271C3F34001884206D074
:101AC0000E4B1B68236082F00202A27112E00B49E8
:101AD0000D682168691AA588A9420BD303F0010398
:101AE000984207D0054B1B68236082F0010242F048
:101AF0000802A271A079C0F3C00038BDC4ADFF1FB9
:101B0000807900F00900082814BF002001207047E8
:101B1000844641EA000313F003036DD1403A41D3F8
:101B200051F8043B40F8043B51F8043B40F8043BB7
:101B300051F8043B40F8043B51F8043B40F8043BA7
:101B400051F8043B40F8043B51F8043B40F8043B97
:101B500051F8043B40F8043B51F8043B40F8043B87
:101B600051F8043B40F8043B51F8043B40F8043B77
:101B700051F8043B40F8043B51F8043B40F8043B67
:101B800051F8043B40F8043B51F8043B40F8043B57
:101B900051F8043B40F8043B51F8043B40F8043B47
:101BA000403ABDD2303211D351F8043B40F8043BE7
:101BB00051F8043B40F8043B51F8043B40F8043B27
:101BC00051F8043B40F8043B103AEDD20C3205D3F7
:101BD00051F8043B40F8043B043AF9D2043208D0EF
:101BE000D2071CBF11F8013B00F8013B01D30B8861
:101BF00003806046704700BF082A13D38B078DD03F
:101C000010F003038AD0C3F10403D21ADB071CBF10
:101C100011F8013B00F8013B80D331F8023B20F87A
:101C2000023B7BE7043AD9D3013A11F8013B00F8B3
:101C3000013BF9D20B7803704B7843708B7883703B
:101C40006046704730B4394A3949136813F0800F41
:101C5000FBD10B6813F0800FF7D172B6354B1B78B0
:101C6000002B5FD0344B1C6804331D6804331868A4
:101C70000433196804331A6804331B682C44204465
:101C800001440A441A44C2F34E0242F400422B4B70
:101C90001A602C331C6804331D680433186804333D
:101CA000196804331A6804331B682C442044014427
:101CB0000A441A44C2F34E0242F40042204B1A6016
:101CC00003F108131C6804331D68043318680433D7
:101CD000196804331A6804331B682C4420440144F7
:101CE0000A441A44C2F34E0242F40042154B1A60F1
:101CF0002C331C6804331D680433186804331968D6
:101D000004331A6804331B682C44204401440A44F9
:101D10001A44C2F34E0242F400420B4B1A600022F6
:101D2000044B1A7062B630BC704700BF24B0034049
:101D300024B00B4035ADFF1F38B003402CB003403A
:101D400030B003402CB00B4030B00B4060223A4B17
:101D50001A70E12201331A70384B1B78082B10D10E
:101D6000212203F1804303F56C331A6013233449B5
:101D70000B6001F5FF2101F2FC710A60314A13602A
:101D80001FE00A2B0DD139222F4B1A6013232C4947
:101D90000B6001F5FF2101F2FC710A60294A136012
:101DA0000FE00C2B0CBF35225D22274B1A6012234B
:101DB00023490B6001F5FF2101F2FC710A60214A01
:101DC0001360224B1B7833B10123214A136002F5C3
:101DD0000022136005E000231D4A136002F5002273
:101DE00013601C4B1B78012B06D880231A4A136002
:101DF00002F5002213601AE0042B06D88423164A49
:101E0000136002F50022136011E0082B06D8852329
:101E1000114A136002F50022136008E0102B94BFF2
:101E2000862387230C4A136002F5002213600122E7
:101E30000A4B1A70704700BF00400740A893FF1F6D
:101E40000CB003400CB00B4008B0034038ADFF1F8E
:101E500020B00340A993FF1F24B0034035ADFF1FFE
:101E600008B50C2804D9102828BF1020102307E03B
:101E70000A2804D8092834BF08230A2300E00C23C9
:101E8000DAB2101A0849087008490978994209D04D
:101E9000064B1A70064B1B7813B10022054B1A60D3
:101EA000FFF754FF08BD00BF34ADFF1FA893FF1F0D
:101EB00035ADFF1F24B003402DE9F8430D2813D999
:101EC000172802D80E38C0B20EE0A0F11A03DBB218
:101ED000052B02D80938C0B206E0A0F12203DBB21C
:101EE000062B73D81838C0B23A4B1E5C3A4B1B789D
:101EF0000BB1FFF7A7FE16F0800F29D172B6374C51
:101F0000374D4FF0010726602F7062B672B6236816
:101F100013F0800F04D12B7813F0FF0F0FD1F2E7ED
:101F2000304B186800222E4B1A7062B62E4B1B786D
:101F30001841BDE8F8832B7813F0FF0FE3D062B6A9
:101F400001F0C2FC72B6236813F0800FF3D0E7E70C
:101F500072B606F040095FFA89F9244F244C06F066
:101F60003F06244D4FF00108B9F1000F04D03B6843
:101F700023F010033B6003E03B6843F010033B6039
:101F8000266085F8008062B672B6236813F0800F71
:101F900004D12B7813F0FF0F0FD1E5E7164B18682B
:101FA0000022144B1A7062B60F4B1B781841BDE823
:101FB000F8832B7813F0FF0FD6D062B601F084FCC3
:101FC00072B6236813F0800FF3D0E7E70020BDE876
:101FD000F88300BF0815020035ADFF1F00B00340B5
:101FE00037ADFF1F10B0034034ADFF1F0CB00B40E6
:101FF00000B00B4036ADFF1F10B00B40094B1A6804
:1020000042F480521A60084B1B781BB18022074BA8
:102010001A7002E0C022054B1A7080F30C00044BCA
:10202000188070472C80044038ADFF1F21C00C4041
:1020300000C00C40024B1A6801321A60704700BFA2
:10204000C4ADFF1F08B50D4C236813F4802F01D0D9
:1020500000F0F0FC236813F4806F01D001F074FEEF
:10206000236813F4006F01D002F0EAF8236813F438
:10207000805FE9D002F0F2FAE6E700BF3480044066
:1020800008B5FFF7DFFF00BF1022014B1A80704731
:1020900000200540704700BF024A136818441060D2
:1020A00018467047AC93FF1FFEE700BFEFF31383A2
:1020B000ABB9EFF31083ABB9EFF3058323B10F2B6B
:1020C00005D9094A985C03E04FF4807000E00020D5
:1020D000EFF311833BB1834238BF184670474FF08E
:1020E000FF30704700207047F0E300E010B5154B5B
:1020F0001C681C6014F4805F05D0134BDB6813B1BF
:10210000114BDB68984714F4005F05D00E4B1B6938
:1021100013B10D4B1B69984714F0200F05D00A4BE3
:102120001B6E13B1084B1B6E984714F0100F07D0AD
:10213000054BD3F884301BB1034BD3F88430984758
:1021400010BD00BFA09004403CADFF1F10B5274B51
:102150001C681C6014F4803F05D0254B1B6813B12C
:10216000234B1B68984714F4003F05D0204B5B6855
:1021700013B11F4B5B68984714F0010F05D01C4B3F
:102180001B6C13B11A4B1B6C984714F0020F05D04F
:10219000174B5B6C13B1164B5B6C984714F0080F30
:1021A00005D0134B9B6C13B1114B9B6C984714F0EB
:1021B000040F05D00E4BDB6C13B10D4BDB6C984755
:1021C00014F4002F05D00A4B5B6E13B1084B5B6E05
:1021D000984714F4802F07D0054BD3F880301BB1FB
:1021E000034BD3F88030984710BD00BFA0A0044037
:1021F0003CADFF1F10B5384B1C681C6014F0080F75
:1022000005D0364B5B6A13B1344B5B6A984714F0C8
:10221000100F05D0314B9B6A13B1304B9B6A984726
:1022200014F0400F05D02D4BDB6A13B12B4BDB6A4A
:10223000984714F0800F05D0284B1B6B13B1274B28
:102240001B6B984714F0200F05D0244B5B6B13B128
:10225000224B5B6B984714F0010F05D01F4BDB6BD3
:1022600013B11E4BDB6B984714F0020F05D01B4BCC
:102270009B6D13B1194B9B6D984714F0040F05D05B
:10228000164BDB6D13B1154BDB6D984714F4007FD3
:1022900005D0124BDB6E13B1104BDB6E984714F474
:1022A000807F05D00D4B1B6F13B10C4B1B6F9847F4
:1022B00014F4806F05D0094B5B6F13B1074B5B6F54
:1022C000984714F4006F05D0044B9B6F13B1034B78
:1022D0009B6F984710BD00BFA0B004403CADFF1FEE
:1022E00010B5264B1C681C6014F0010F05D0244B60
:1022F0009B6813B1224B9B68984714F0800F05D060
:102300001F4B5B6913B11E4B5B69984714F0100FAC
:1023100005D01B4B9B6913B1194B9B69984714F06F
:10232000040F05D0164BDB6913B1154BDB699847D9
:1023300014F0080F05D0124B1B6A13B1104B1B6A27
:10234000984714F0020F05D00D4B9B6B13B10C4B4B
:102350009B6B984714F0200F05D0094B1B6D13B1F0
:10236000074B1B6D984714F0400F05D0044B5B6D75
:1023700013B1034B5B6D984710BD00BFA0C0044074
:102380003CADFF1F10B50B4B1C681C6014F0020F16
:1023900005D0094B9B6E13B1074B9B6E984714F009
:1023A000010F05D0044BDB6F13B1034BDB6F984774
:1023B00010BD00BFA0D004403CADFF1F30B42128A9
:1023C00031D8042A2FD8DFE802F00709050B0300F3
:1023D0000B2406E00A2404E0082402E00C2400E0B8
:1023E0000924124B03EBC0035A68114B114DC3F87B
:1023F0009C51114DC3F8A051104DC3F8A451104D7C
:10240000C3F8A8510F4DC3F8AC5172B6136823F44A
:10241000702313600C4D45F8201043F0807343EA9D
:102420000444146062B630BC704700BF201502003F
:10243000008EFF1FED2000004D210000F52100005F
:10244000E1220000852300003CADFF1F094B03EB98
:10245000C0035A6872B6136823F0877323F480337D
:1024600043F0807313600022034B43F8202062B6D0
:10247000704700BF201502003CADFF1F044B002237
:102480001A6004490A60044A106010221A607047FA
:1024900014D0034004D0034000D0034018B11028EA
:1024A00028BF102000E00120014B1870704700BFCA
:1024B000B093FF1F21281ED80F4B53F8303093F8EC
:1024C000802212F0FF0F08D019B1012283F880207A
:1024D0007047012283F800217047074B03EBC000CF
:1024E000436821B11A6842F003021A6070471A6803
:1024F00022F002021A60704720150200212806D837
:10250000044B53F8303093F80002C0B270470020FB
:10251000704700BF2015020021281CD80E4B03EB8A
:10252000C0035B68012908D10B4A52F8302082F8B9
:1025300080124FF4A2721A607047074A52F8302096
:10254000002082F8800219B94FF480721A60704737
:1025500040F203121A6070472015020010B50446BD
:1025600028280FD15D4B1B780B2B03D8C3F10C032C
:10257000994003E00C2B84BF0C3B19410846FFF740
:102580003DFD10BD554B1B78012202FA03F00029D6
:1025900008DC20460021FFF78DFF20460121FFF7D0
:1025A000BBFF10BD0A46884208D820460121FFF72C
:1025B00081FF20460121FFF7AFFF10BDE01EC0B232
:1025C000012806D84648006800FB011222FA03F3EE
:1025D00010E0202C01D0192C06D14248006800FBE5
:1025E000022222FA03F305E03F48006800FB0112D3
:1025F00022FA03F3E01E1D2864D8DFE800F0474EFE
:10260000402B63631D2463636363636363636332AB
:10261000390F16635C63636363636355334A136006
:1026200040F24442324B1A6010BD324A136040F20D
:102630004442314B1A6010BD304A136040F24442AC
:102640002F4B1A6010BD2F4A136040F244422E4BAC
:102650001A6010BD2D4A136040F244422C4B1A60A0
:1026600010BD2C4A136040F244422B4B1A6010BD3F
:102670002A4A136040F24442294B1A6010BD294A8D
:10268000136040F24442284B1A6010BD274A136081
:102690004FF45172264B1A6010BD264A13604FF456
:1026A0005172254B1A6010BD244A13604FF45172C9
:1026B000234B1A6010BD234A13604FF45172224B12
:1026C0001A6010BD20467F29D4BF00210121FFF7E9
:1026D000F1FE20460121FFF71FFF10BDB093FF1F41
:1026E0000890034008800B4008800340108003409E
:1026F00004B004401880034008B004402080034028
:102700000CB004402880034010B0044030800340E7
:1027100010C004403880034014C00440408003408F
:1027200018C00440488003401CC00440109003407F
:1027300030900440189003403490044010800B40C7
:1027400048A0044018800B404CA0044072B60C4BCB
:102750001B680C4A12680C49096862B611F0806F58
:1027600002D0322B88BF0132C3F5EA33BF330749A9
:10277000A1FB03039B094FF47A7000FB0230704702
:1027800018E000E0C4ADFF1F04ED00E089888888F0
:1027900038B50546FFF7DAFF044665B1FFF7D6FF07
:1027A000001BB0F57A7F03D3013D04D004F57A74A1
:1027B00001F08AF8F2E738BD10B5254B4FF400025E
:1027C0001A604FF080721A604FF000721A604FF07A
:1027D00080621A604FF000621A6000201D4B186082
:1027E0004EF6FF710433196028231B4A1360083228
:1027F0001360083213600832136008321360083225
:10280000136008321360083213600922134C2260EF
:1028100004F58054043420600434216004342360BF
:1028200008342360143C226004F5FE240434206044
:102830000B4801600B490B6008310B600A4B1A60B2
:10284000FFF784FA0420FFF7A3FF00F06BFC10BD34
:1028500008E100E0048003400C8003400080034056
:1028600008800B400C800B4000800B4030B40E4BB6
:102870001B7843F002020D4C04EBC20460600C486C
:10288000007800280CBF8824C82444EA0141074D81
:1028900045F8321080F00100054A107083F0010302
:1028A000014A137030BC704730AEFF1F0080FF1F1D
:1028B000A9AEFF1F10B4431E032B11D872B60A4AEB
:1028C00052F8230050B14268074941F82320074AD3
:1028D00032F813400188611A22F8131062B600E042
:1028E00000205DF8044B704720AEFF1FD4B0FF1FDF
:1028F000013803280DD872B6074B53F820302BB19E
:10290000002001305B68002BFBD100E0002062B6A4
:1029100070470020704700BF74AEFF1F38B572B615
:1029200001231B491B4C5A1812F8012C12F0080FF6
:1029300024D09A0054F832506DB9164B03EBC20103
:1029400008304860144943F83210144B1A78013AA1
:102950001A7062B638BD42F0010254F832506DB9B7
:102960000C4B03EBC201083048600D4943F83210AC
:102970000A4B1A78013A1A7062B638BD0133052B3A
:10298000D1D162B60022054B1A7000F02FFC38BD81
:10299000501602000080FF1F880040009EAEFF1FFF
:1029A000C800400010B4431E032B37D8400140F04C
:1029B00010001C4A104472B61B4AD25C032A09D884
:1029C000DFE802F019021B050830022216E0083089
:1029D000042213E0154A52F823201AB9134A42F888
:1029E000231003E0124A52F823205160104A42F8A3
:1029F000231062B612E0032200E005220A4CE254E2
:102A000001F10803436000F00803002B0CBF88238A
:102A1000C8230A8843EA0243036062B65DF8044BA8
:102A2000704700BF0080FF1FDCADFF1F74AEFF1FAB
:102A300084AEFF1F2DE9F84FA34CDFF8E092DFF8DA
:102A4000E0A2DFF8E0B22578EDB215F0040F1DD05A
:102A50009E4B1B7813F0FF0F16D09D4B1B7803F095
:102A6000FF022BB1531EDBB2994A137003B900BEAB
:102A7000984B1B7803F0FF0233B1531EDBB2954A2B
:102A800013700BB900F0F2FC0423237015F0080F4B
:102A900000F0DC8299F80030DBB21D0940F01D82A5
:102AA0008D4D9E0805EBC6035A6855F83630C3F3C2
:102AB0008303013B0C2B00F20C82DFE813F0C7010B
:102AC000C7010A020A020A020A020A020A02E40111
:102AD0000A020A020A020D00804913680B6052685C
:102AE0004A607F4A45F8362000227E490A607A49CA
:102AF0000A618A6101217C4A11709BB240F28162B5
:102B0000934218D8B3F5D06F2ED2B3F5817F00F081
:102B10001E8106D8802B00F0C980822B00F0CC806B
:102B200062E140F20232934200F02681B3F5A06FD9
:102B300000F05E8158E142F22102934200F082816E
:102B400007D8B3F5086F00F0AB80B3F5106F11D064
:102B50004AE142F22122934200F0418142F22132C5
:102B6000934200F045813FE1604B5D68002D40F0ED
:102B7000188130E1594B9A78544B1A70564D05F133
:102B800080062B6A13F0800F03D0686A083800F0C3
:102B90002DFB0835B542F4D1DFF88C81002637468D
:102BA000534AB05828B1456800F020FB0DB12846C3
:102BB000F9E700234E4973504E4AB3504E4BF0583C
:102BC00028B1456800F012FB0DB12846F9E7002353
:102BD00049497350494AB35028F8023F484BFB5CBF
:102BE000023B032B0AD8DFE803F0020602060022AC
:102BF000434BDA5502E00122414BDA5501370436E6
:102C0000102ECDD100223F4B1A7001253E4EDFF829
:102C10001C81314F05EB080313F8013C06F8043B17
:102C200013F0080F2DD000F0C1FA48B1A90007EB4E
:102C3000451200F108035360344A47F8312007E099
:102C4000AB00002247F833202E4B1A7801321A705D
:102C500000F0ACFA58B1AB0043F0010307EBC3013D
:102C600000F108024A601E4A47F8332009E0AB0031
:102C700043F00103002247F83320224B1A78013237
:102C80001A70AA0042F00201002347F8313042F0E6
:102C9000030247F8323001351D4B9E42BAD116E28D
:102CA0000A4B1B781B4D2B700127A6E0194D002302
:102CB0002B706B700227A0E0084B9B88042B37D940
:102CC0000F22154B1A70BDE080200740A8AEFF1FF1
:102CD00031AEFF1FAAAEFF1F0080FF1F94AEFF1F83
:102CE000C8004000C8ADFF1FA9AEFF1F5416020068
:102CF00020AEFF1FCCADFF1F74AEFF1F84AEFF1FC1
:102D0000DCADFF1F9EAEFF1FC420074088004000BF
:102D1000D4200740A0AEFF1FC020074090200740EE
:102D20009420074098200740D2B0FF1F50160200A1
:102D30009E4A0021117051709D4A12F8233013F001
:102D4000020F58D0994D01232B70022755E0994B63
:102D50009B8803F07F02042A02DC964A52881AB14B
:102D60000F22934B1A706DE0914A12F8231021F054
:102D7000020102F82310AAE18E4B9B8803F07F0228
:102D8000042A02DC8B4A52881AB10F22884B1A702F
:102D900058E0874A12F8231041F0020102F823108C
:102DA00095E1844B5E889F88834BA3F10C0211460A
:102DB00033F80C0CB04209D133F80A0CB84205D1F3
:102DC000360A032E0CBF2F78178916E00D690C33D5
:102DD0000C32002DEBD10F22754B1A7032E0754B7F
:102DE0009A78764B1A7072E10F22714B1A7029E0B3
:102DF00000273D4601E002276C4D6E4BDB889F4269
:102E000028BF1F46402F34BF3E4640262846314645
:102E1000FFF72CFD3544BF1B03D13F2E00F25C8130
:102E200010E0402F34BF3E46402628463146FFF78B
:102E30001DFD3544BF1B01D13F2E03D9604B1D60E2
:102E4000604B1F8001238AF8003042E0594B1988FB
:102E500042F22103994212D15B4BD81D12F8011B9B
:102E600003F8011F8342F9D1584B1B68862B02D10E
:102E70000F22574B1A7000200146FFF7F7FC554B05
:102E800045F8363025E04E4B1E68BEB14D4FB7F8C1
:102E90000080B8F1400F34BF4546402530462946F2
:102EA000FFF7E4FCC5EB08039BB23B800BB9402D58
:102EB00001D1354400E00025414B1D603D4B1B888E
:102EC000B3F5A06F05D13B4B00225A709B788BF86D
:102ED000003001238AF80030B5E03F4E9F0806EB32
:102EE000C708D8F80420A2F10800013DEDB213F0A4
:102EF000080F47D000F07AF9384B53F825304BB320
:102F00005A68364941F8252003F10802C8F8042020
:102F1000334A525D032A12D8DFE802F002060A0E95
:102F200003212F4A51550AE002212D4A515506E04E
:102F300005212B4A515502E00421294A515518F028
:102F4000080F0CBF8822C8221B8842EA034346F8B8
:102F5000373078E0224B5B5D032B0BD8DFE803F0C2
:102F60007373020600221E4B5A556CE001221C4B63
:102F70005A5568E018F0080F0CBF02220322184BC4
:102F80005A5560E056F837301B0C22F8083C002BED
:102F900051D0002322F8063C42F8043C114B53F870
:102FA00025300BBB0F4B43F8250021E0A0AEFF1FDF
:102FB000C020074094AEFF1F60160200B8AEFF1F8E
:102FC000C8ADFF1F9CAEFF1FDBB0FF1FDCB0FF1FB3
:102FD00031AEFF1FC80040000080FF1F74AEFF1F0E
:102FE000DCADFF1F20AEFF1F3F4B53F8253058606C
:102FF0003D4B43F825003D4B33F8151032F8082CB3
:103000000A4423F8152000F0D1F860B100F108035C
:10301000C8F8043018F0080F354B364A08BF13467D
:1030200046F837300FE0002346F83730324B1A7835
:1030300001321A7007E018F0080F2D4B2D4A08BF17
:10304000134646F8373008232370FCE415F0010FCF
:1030500022D02A4902230B700022294B1A70294BD7
:1030600024481860284C5C6098602848D8601A6131
:103070009A610D20264B1870FF23264803700838EC
:10308000037018300270244A13709F22234B1A7069
:1030900001230B70BDE8F88F15F0800F05D00D22CD
:1030A0001B4B1A708022403B1A7015F0020F06D09D
:1030B000184B1A78D2B21A700222083B1A7015F017
:1030C000100F0ED01022164B1A70BDE8F88F00209A
:1030D0000146FFF7CBFBB5E628460021FFF7C6FB0C
:1030E000B0E6BDE8F88F00BFCCADFF1FD4B0FF1F26
:1030F000C8004000880040009EAEFF1F942007409B
:1031000030AEFF1F0080FF1FE0ADFF1F34AEFF1F7A
:10311000C0200740882007408C20074084200740BB
:103120008020074008B501F0F9FA00231B491A4630
:103130005A50C81842600833882BF9D1184B1A68C6
:1031400042F480221A60154BC3F30721154A11700F
:10315000C3F30741143211701B0E04321370FF23A6
:10316000343A137008321370783A137001238432A2
:10317000137000216C3211707C3A137070220A4B6C
:103180001A704FF40072A3F241331A60102203F157
:10319000C04303F5C8231A7008BD00BF0080FF1F9D
:1031A000348004409C20074049E400E072B60D4B97
:1031B0001A68B2FA82F30B2B02D962B6002070476C
:1031C0004FF00041D94022EA010206490A6062B686
:1031D000054903EBC303DB00C8180022CA50426054
:1031E000704700BFB493FF1F0090FF1F08B50F4B3F
:1031F000C31A0F4AA2FB03131B090B2B14D80D4A49
:1032000012783AB10C4A127812F0FF0F02D0FFF791
:1032100085FB08BD72B6094A4FF0004121FA03F35D
:1032200011681943116062B608BD00BF0090FF1F0E
:10323000398EE3389EAEFF1FA8AEFF1FB493FF1F69
:1032400010B5134B1B6853B9124B1B7813F0FF0FCB
:1032500018D00320FFF72EFB0D4B1860A8B10C4BC4
:10326000186843885A1C03441C7A03889A4206D380
:10327000FFF7BCFF0022064B1A60204610BD4280BB
:10328000204610BD4FF0FF3010BD4FF0FF3010BD95
:10329000B4AEFF1FA8AEFF1F08B50D4B1B6883B966
:1032A0000C4B1B7813F0FF0F08D00320FFF702FB35
:1032B000074B186028B94FF0FF3008BD4FF0FF30C2
:1032C00008BD034B1B685A881344187A08BD00BF19
:1032D000B4AEFF1FA8AEFF1F044B9888044B1B68B9
:1032E0001BB11A885B88D31A18447047D4B0FF1FEB
:1032F000B4AEFF1F2DE9F04704460122374B1A7088
:103300000E46002964D0DFF8E080DFF8E0909A46AE
:10331000334FD8F8003083BB99F8003013F0FF0F1B
:1033200006D100222D4B1A704FF0FF30BDE8F08718
:103330004DF2E9050420FFF7DBFA07280AD801233C
:103340008AF80030FFF732FFC8F80000A8B9002360
:103350008AF80030013D01D03B7833B10122204B87
:103360001A704FF0FF30BDE8F08700F0ADFA99F821
:10337000003013F0FF0FDDD1D3E700233B70D8F806
:1033800000104A88C2F14005AE4238BF354602F10E
:1033900008030B442A444A80761B3DB1254414F8A7
:1033A000012B03F8012BAC42F9D100E025464B88F4
:1033B0003F2B07D940230B800420FFF7F3FA0023AB
:1033C000C8F800300522074B1A700EB12C46A0E752
:1033D0000020024B1870BDE8F08700BFABAEFF1FA6
:1033E000B0AEFF1FAAAEFF1FACAEFF1FA8AEFF1FFF
:1033F00000B583B002AB03F8010D18460121FFF7B9
:1034000079FF03B05DF804FB10B5144B1B7813F083
:10341000FF0F21D00122124B1A70124B196851B1C3
:103420000024114B1C704B880B800420FFF7BAFA64
:103430000C4B1C600DE0FFF7B9FE014630B10022D5
:10344000094B1A700420FFF7ADFA02E00122064B87
:103450001A700022024B1A7010BD00BFA8AEFF1FE9
:10346000ABAEFF1FACAEFF1FAAAEFF1F08B50E4BE1
:103470001B7813F0FF0F16D10C4B196841B14B8824
:103480000B800420FFF78EFA0022084B1A6008BD5B
:10349000FFF78CFE014618B10420FFF783FA08BD40
:1034A0000122034B1A7008BDABAEFF1FACAEFF1F6D
:1034B000AAAEFF1FF0B4C02928BFC02172B6134BBB
:1034C0001860134B00221A605A609A60DA601A6121
:1034D0005A61C1B113460E4C01275A0903F01F0669
:1034E00007FA06F654F82250354344F822500133C7
:1034F0008B42F2D10022134684186370013302F527
:1035000082728B42F8D162B6F0BC7047C4AEFF1F26
:10351000CCAEFF1F10B472B6234B1B688BB9224B85
:103520005B6883B9204B9B687BB91F4BDB6873B921
:103530001D4B1B696BB91C4B5B6963B962B60020FC
:103540002EE0194A08E0194A06E0194A04E0194A2F
:1035500002E0194A00E0194AB3FA83F14FF0004043
:10356000C84023EA00031360154803780133DBB237
:10357000037062B60C48121A9210C1EB421202EBB1
:10358000821241F67C7101EB82020E4909688818AB
:1035900001248C540C4A12789A423CBF0A4A137098
:1035A0005DF8044B704700BFCCAEFF1FD0AEFF1FCD
:1035B000D4AEFF1FD8AEFF1FDCAEFF1FE0AEFF1F73
:1035C000C9AEFF1FC4AEFF1FC0AEFF1F427872B668
:1035D0000378012B02D9013B037011E05111094B13
:1035E000D24302F01F024FF0004020FA02F253F8DB
:1035F0002100104343F82100034B1A78013A1A7056
:1036000062B67047CCAEFF1FC9AEFF1F30B4C368AF
:1036100083B1187A90420AD158685C7A006950F8F0
:10362000245025B940F82410087801300870DB6870
:10363000002BEED130BC7047437A8B4206D9036928
:1036400053F82100002243F82120704700207047E2
:1036500038B5437A8B4218D9036953F821400022C8
:1036600043F821209CB12378012B12D9FFF752FF98
:10367000054628B10430211D4FF48072FEF748FA48
:103680002378013B2370284638BD002038BD2046F2
:1036900038BD204638BD00BF4368427A5B7A9A4203
:1036A00010D872B60368DA680AB9D86004E0D36843
:1036B0000BB11A46FBE7D06002680123137242681F
:1036C000137262B6704700BF084B1B785BB9D022FB
:1036D000074B1A704FF08042A3F256331A60012054
:1036E000024B187070470020704700BFC8AEFF1F24
:1036F0005EE400E0F8B5184B1A6842F080721A6078
:10370000164B1A6842F001021A6004331F68144B0A
:103710001C689CB1134D237A6BB12E6823681B681B
:10372000204698472B689B1B1B099AB2A280E18810
:103730008B4288BFE2806469002CECD1094B1B6886
:10374000DF1B3F09BBB2084A1380084A1288974220
:1037500084BF064A1380F8BDFCED00E0001000E0D5
:10376000BCAEFF1F041000E0E4AEFF1FCAAEFF1F97
:1037700030B472B699B902688AB103790F2B0ED8AA
:1037800027490988194111F0010F08D003F100738E
:1037900003F59063B2EB431F01D162B63EE0204BCC
:1037A0001D882946002341FA03F212F0010F2DD1A2
:1037B000012202FA03F42543194A158062B6DAB2EF
:1037C000027118490C6844F002040C6004390C685A
:1037D00044F002040C60822413490C601A310A7010
:1037E00004310A7006390A7007310A7003F1007358
:1037F00003F590635B01036000221A605A609A60CF
:10380000DA601A615A619A61DA6107E00133102BBC
:10381000C9D162B6002303601023037130BC704726
:10382000E6AEFF1F408004400080004003790F2B6C
:1038300010D8094A137072B6084B0279012101FAB7
:1038400002F2198821EA02021A8062B6102303717B
:1038500000230360704700BF1A800040E6AEFF1FE0
:1038600008B5FCF753FEFCF7C7FE00F02DF8FAE7A9
:1038700008B5FFF731FD08BD08B5FFF7E1FC08BD4D
:1038800008B5FFF709FD08BD08B5FFF7BDFD08BD88
:1038900008B50846FFF7ACFD08BD00BF08B50846EF
:1038A0001146FFF727FD08BD704700BF044B0022FB
:1038B0001A714FF47A7199601A73024A1A6070474C
:1038C000E8AEFF1F3816020008B50F4B1B78CBB9C6
:1038D00001220D4B1A70FFF7FFFC08B1FFF7E4FF60
:1038E00000F0CEF908B100F0D3FF00F045FC08B1BC
:1038F00001F054F800F062FE08B101F0D5F80022A2
:10390000014B1A7008BD00BFF8AEFF1F30B4002392
:10391000B0FBF2F402FB14041D46092C94BF3034B2
:103920003734E4B2CC54B0FBF2F008B10133EFE726
:103930000D4400226A70934207DD885CCC5C8C5495
:10394000C8540132013B9A42F7DB084630BC70474D
:10395000194B1A6842F480621A600023174A1370E8
:10396000174A1370174A1370174A1370174A1370C7
:1039700040F21332164B1A604FF4517204331A603E
:10398000C0F34432134B1A70C0F347125A7000F060
:103990001F00987204229A700221D9745A758822E5
:1039A0001A743C22DA7040220B4B1A704FF400520A
:1039B000A3F229331A607047348004407CAFFF1FA4
:1039C000FAAEFF1F84AFFF1F7DAFFF1FF9AEFF1FD1
:1039D00040A0044000A006402DE400E0164B9B7878
:1039E00003F0EC0300F00302134310F0040F18BFC0
:1039F00043F01003104A937000F00F03042B04D11E
:103A00001346927942F040029A710B4B5A7902F0B8
:103A1000EF0210F0100F18BF42F01002064B5A715F
:103A20009B7903F0EF0310F0200F18BF43F0100351
:103A3000014A9371704700BF00A0064010B5114BBA
:103A40001B6813F4806F1CD00F4B1B7813F0FF0F13
:103A500006D00D4CFFF738FF237813F0FF0FF9D194
:103A60004FF40052094B1A600023094AD37040F208
:103A7000031208490A6004310A60074A1370074AB2
:103A8000137010BD34800440F9AEFF1F84E100E0E4
:103A900000A0064040A004407CAFFF1FFAAEFF1F0D
:103AA00010B50446094A137813F0FF0FFBD12046E6
:103AB0000121FEF731FD20460021FEF7FBFC044BFF
:103AC00053F83420034B1A6010BD00BFF9AEFF1F3E
:103AD0002015020080AFFF1F2DE9F04107461F4B64
:103AE0001B6813F4806F37D01D4B1B680BB101228C
:103AF0001A701C4B1C780134402C28BF00241A4D2E
:103B00001A4EDFF86C8017E0FEF7D0FA40280FDC81
:103B1000337913F0800F0FD02B780133402B28BF5F
:103B2000002318F80320D2B2F271DBB22B7003E04D
:103B3000FF2801DDFFF7C8FE2B78DBB29C42E3D003
:103B4000FFB20B4B1F5501220A4B1A70E4B2054B12
:103B50001C70BC22054BDA70BDE8F0813480044053
:103B600080AFFF1F84AFFF1F7DAFFF1F00A0064087
:103B7000FCAEFF1FF9AEFF1F2DE9F84F0746284B9B
:103B80001B6813F4806F49D0264B1B680BB10122D0
:103B90001A7007EB010B5F453DD2DFF89890224E7B
:103BA000DFF88C80DFF890A099F800400134402CB9
:103BB00028BF00243578EDB2A54220D1BC2388F877
:103BC0000330FEF773FA402811DC98F8043013F044
:103BD000800F10D033780133402B28BF00231AF810
:103BE0000320D2B288F80720DBB2337003E0FF284D
:103BF00001DDFFF769FE3378DBB29D42E1D017F8B3
:103C0000013B0AF804300122084B1A70E4B289F82B
:103C100000405F45C8D1BC22054BDA70BDE8F88F83
:103C20003480044080AFFF1F7DAFFF1FF9AEFF1F40
:103C300000A0064084AFFF1FFCAEFF1F10B5064B6F
:103C40001B7813F0FF0F06D0034CFFF73DFE2378DF
:103C500013F0FF0FF9D110BDF9AEFF1F064B1B7813
:103C6000DBB2064A1278D2B293422CBF3F3202F145
:103C7000FF32D01A704700BF84AFFF1F7DAFFF1F18
:103C8000054B1878C0B2054B1B78DBB2984238BFA1
:103C90004030C01A704700BF7CAFFF1FFAAEFF1F55
:103CA0000A4B1A78D2B20A4B1B78DBB29A4209D07F
:103CB0000133402B28BF0023064AD05CDBB2044A04
:103CC000137070474FF0FF30704700BF7CAFFF1F8D
:103CD000FAAEFF1F3CAFFF1F094B1A78D2B2094B57
:103CE0001B78DBB29A4207D00133402B28BF002358
:103CF000054AD05CC0B270474FF0FF30704700BF3C
:103D00007CAFFF1FFAAEFF1F3CAFFF1F0A4B1B68C3
:103D100013F4806F0FD0094BDA7802F0CB02DA701F
:103D200040225A74DA7842F03402DA70044B1A787E
:103D3000D2B2044B1A7070473480044000A0064091
:103D4000FAAEFF1F7CAFFF1F70B4364B1B7913F028
:103D5000300F25D072B6334B9B7D03F0FF022BB999
:103D6000304BDA7940225A7462B619E062B62E4BB3
:103D70001978C9B22D4B1D78EDB22A4C2C4EE3793F
:103D8000D8B24B1C402B28BF0023AB421CBFF054C1
:103D90001946531E13F0FF02F1D1C9B2224B19701C
:103DA000204BDA78D2B212F0800F27D01B7913F0B3
:103DB000800F23D01F4B1C78E4B21F4B1B78DBB263
:103DC0009C4210D017491D4D01E0A3420BD0013396
:103DD000402B28BF00230879E85CC0B2C871087D79
:103DE000C0B20728F1D9DBB213490B700D4B1B7918
:103DF00013F0800F02D07C210A4BD97012F0400FD3
:103E00000ED0084B1B7913F0400F09D000220C4B49
:103E10001A700C4B1B6803B11A703C22014BDA700C
:103E200070BC704700A006407CAFFF1FFAAEFF1FBA
:103E30003CAFFF1F84AFFF1F7DAFFF1FFCAEFF1F16
:103E4000F9AEFF1F80AFFF1F194B1A6842F40062E2
:103E50001A600023174A1370174A1370174A137019
:103E6000174A1370174A137040F21332164B1A6038
:103E70004FF4517204331A60C0F34432134B1A707A
:103E8000C0F347125A7000F01F00987204229A7013
:103E90000221D9745A7588221A743C22DA704022A1
:103EA0000B4B1A704FF40042A3F22B331A60704789
:103EB00034800440F0AFFF1F86AFFF1FF8AFFF1F35
:103EC000F1AFFF1F85AFFF1F0CB0044000B00640EC
:103ED0002FE400E0164B9B7803F0EC0300F00302A4
:103EE000134310F0040F18BF43F01003104A9370EF
:103EF00000F00F03042B04D11346927942F04002E4
:103F00009A710B4B5A7902F0EF0210F0100F18BFA4
:103F100042F01002064B5A719B7903F0EF0310F048
:103F2000200F18BF43F01003014A9371704700BF80
:103F300000B0064010B5114B1B6813F4006F1CD085
:103F40000F4B1B7813F0FF0F06D00D4CFFF7BCFC96
:103F5000237813F0FF0FF9D14FF40042094B1A6098
:103F60000023094AD37040F2031208490A60043161
:103F70000A60074A1370074A137010BD348004406A
:103F800085AFFF1F84E100E000B006400CB00440A4
:103F9000F0AFFF1F86AFFF1F10B50446094A137824
:103FA00013F0FF0FFBD120460121FEF7B5FA2046A2
:103FB0000021FEF77FFA044B53F83420034B1A60BC
:103FC00010BD00BF85AFFF1F20150200F4AFFF1F1B
:103FD0002DE9F04107461F4B1B6813F4006F37D0E3
:103FE0001D4B1B680BB101221A701C4B1C7801344D
:103FF000282C28BF00241A4D1A4EDFF86C8017E0D9
:10400000FEF754F840280FDC337913F0800F0FD0FF
:104010002B780133282B28BF002318F80320D2B2B5
:10402000F271DBB22B7003E0FF2801DDFFF74CFCDF
:104030002B78DBB29C42E3D0FFB20B4B1F55012221
:104040000A4B1A70E4B2054B1C70BC22054BDA70A7
:10405000BDE8F08134800440F4AFFF1FF8AFFF1FCC
:10406000F1AFFF1F00B0064088AFFF1F85AFFF1FF5
:104070002DE9F84F0746284B1B6813F4006F49D011
:10408000264B1B680BB101221A7007EB010B5F4531
:104090003DD2DFF89890224EDFF88C80DFF890A0B8
:1040A00099F800400134282C28BF00243578EDB25F
:1040B000A54220D1BC2388F80330FDF7F7FF402844
:1040C00011DC98F8043013F0800F10D033780133EE
:1040D000282B28BF00231AF80320D2B288F8072023
:1040E000DBB2337003E0FF2801DDFFF7EDFB33782F
:1040F000DBB29D42E1D017F8013B0AF804300122FF
:10410000084B1A70E4B289F800405F45C8D1BC2260
:10411000054BDA70BDE8F88F34800440F4AFFF1F20
:10412000F1AFFF1F85AFFF1F00B00640F8AFFF1FC4
:1041300088AFFF1F10B5064B1B7813F0FF0F06D09A
:10414000034CFFF7C1FB237813F0FF0FF9D110BD2B
:1041500085AFFF1F064B1B78DBB2064A1278D2B23E
:1041600093422CBF273202F1FF32D01A704700BFB2
:10417000F8AFFF1FF1AFFF1F054B1878C0B2054B1A
:104180001B78DBB2984238BF4030C01A704700BF7E
:10419000F0AFFF1F86AFFF1F0A4B1A78D2B20A4B4F
:1041A0001B78DBB29A4209D00133402B28BF002391
:1041B000064AD05CDBB2044A137070474FF0FF3000
:1041C000704700BFF0AFFF1F86AFFF1FB0AFFF1FEC
:1041D000094B1A78D2B2094B1B78DBB29A4207D04E
:1041E0000133402B28BF0023054AD05CC0B2704782
:1041F0004FF0FF30704700BFF0AFFF1F86AFFF1FCB
:10420000B0AFFF1F0A4B1B6813F4006F0FD0094BB0
:10421000DA7802F0CB02DA7040225A74DA7842F08F
:104220003402DA70044B1A78D2B2044B1A70704719
:104230003480044000B0064086AFFF1FF0AFFF1F80
:1042400070B4364B1B7913F0300F25D072B6334B58
:104250009B7D03F0FF022BB9304BDA7940225A7470
:1042600062B619E062B62E4B1978C9B22D4B1D7893
:10427000EDB22A4C2C4EE379D8B24B1C402B28BF10
:104280000023AB421CBFF0541946531E13F0FF022B
:10429000F1D1C9B2224B1970204BDA78D2B212F0A8
:1042A000800F27D01B7913F0800F23D01F4B1C7871
:1042B000E4B21F4B1B78DBB29C4210D017491D4D56
:1042C00001E0A3420BD00133282B28BF002308793B
:1042D000E85CC0B2C871087DC0B20728F1D9DBB272
:1042E00013490B700D4B1B7913F0800F02D07C210A
:1042F0000A4BD97012F0400F0ED0084B1B7913F007
:10430000400F09D000220C4B1A700C4B1B6803B1F4
:104310001A703C22014BDA7070BC704700B0064046
:10432000F0AFFF1F86AFFF1FB0AFFF1FF8AFFF1F3B
:10433000F1AFFF1F88AFFF1F85AFFF1FF4AFFF1F57
:10434000174B1A6842F480521A600023154A137002
:10435000154A1370154A1370154A1370154A1370D5
:1043600040F21331144A11604FF45171043211605C
:10437000C0F34431114A1170C0F34711517000F07D
:104380001F009072937013742C23D37040220C4B37
:104390001A704FF40032A3F22D331A60704700BF39
:1043A0003480044064B0FF1FFAAFFF1F6CB0FF1FE2
:1043B00065B0FF1FF9AFFF1F08C0044000C00640F2
:1043C00031E400E0164B9B7803F0EC0300F00302AD
:1043D000134310F0040F18BF43F01003104A9370FA
:1043E00000F00F03042B04D11346927942F04002EF
:1043F0009A710B4B5A7902F0EF0210F0100F18BFB0
:1044000042F01002064B5A719B7903F0EF0310F053
:10441000200F18BF43F01003014A9371704700BF8B
:1044200000C0064010B5114B1B6813F4805F1CD010
:104430000F4B1B7813F0FF0F06D00D4CFFF744FA1B
:10444000237813F0FF0FF9D14FF40032094B1A60B3
:104450000023094AD37040F2031208490A6004316C
:104460000A60074A1370074A137010BD3480044075
:10447000F9AFFF1F84E100E000C0064008C004401F
:1044800064B0FF1FFAAFFF1F10B50446094A137846
:1044900013F0FF0FFBD120460121FEF73DF8204627
:1044A0000021FEF707F8044B53F83420034B1A6041
:1044B00010BD00BFF9AFFF1F2015020068B0FF1F3D
:1044C0002DE9F04107461F4B1B6813F4805F37D07E
:1044D0001D4B1B680BB101221A701C4B1C78013458
:1044E000282C28BF00241A4D1A4EDFF86C8017E0E4
:1044F000FDF7DCFD40280FDC337913F0800F0FD07F
:104500002B780133282B28BF002318F80320D2B2C0
:10451000F271DBB22B7003E0FF2801DDFFF7D4F965
:104520002B78DBB29C42E3D0FFB20B4B1F5501222C
:104530000A4B1A70E4B2054B1C70AC22054BDA70C2
:10454000BDE8F0813480044068B0FF1F6CB0FF1FED
:1045500065B0FF1F00C00640FCAFFF1FF9AFFF1F93
:1045600038B505460C4629B115F8010BFFF7A8FF31
:10457000013CF9D138BD00BF10B5064B1B7813F0D4
:10458000FF0F06D0034CFFF79FF9237813F0FF0FBE
:10459000F9D110BDF9AFFF1F064B1B78DBB2064AFD
:1045A0001278D2B293422CBF273202F1FF32D01AD6
:1045B000704700BF6CB0FF1F65B0FF1F054B187838
:1045C000C0B2054B1B78DBB2984238BF4030C01AEE
:1045D000704700BF64B0FF1FFAAFFF1F0A4B1A7885
:1045E000D2B20A4B1B78DBB29A4209D00133402B7E
:1045F00028BF0023064AD05CDBB2044A1370704720
:104600004FF0FF30704700BF64B0FF1FFAAFFF1FCD
:1046100024B0FF1F094B1A78D2B2094B1B78DBB2CA
:104620009A4207D00133402B28BF0023054AD05CB3
:10463000C0B270474FF0FF30704700BF64B0FF1F3B
:10464000FAAFFF1F24B0FF1F024B1A78D2B2024B01
:104650001A707047FAAFFF1F64B0FF1F264B1B791B
:1046600013F0200F12D0244BDB79D9B2234B1B78E7
:104670000133402B28BF0023214A1278D2B29A423C
:1046800004D0204AD154DBB21C4A13701A4BDB7899
:10469000DBB213F0800F1CD0174A127912F0800F92
:1046A00017D0194A1178C9B2184A1278D2B2914279
:1046B00003D16C21104AD1700BE00132282A28BFA7
:1046C00000221349885CC0B20B49C871D2B20F49AD
:1046D0000A7013F0400F0ED0074B1B7913F0400FF8
:1046E00009D000220B4B1A700B4B1B6803B11A70D8
:1046F0002C22014BDA70704700C0064064B0FF1FE7
:10470000FAAFFF1F24B0FF1F6CB0FF1F65B0FF1F83
:10471000FCAFFF1FF9AFFF1F68B0FF1F00B585B0EA
:1047200072B61B4B70221A7041211A4A11700F2168
:10473000013A117080221A701A46137813F0800F14
:10474000FBD0154B186862B6144B98429CBF00EB27
:104750008000400001A90A22FFF7D8F89DF8043034
:104760007BB908E001A9595C31B191800232013373
:104770000A2BF7D100E0002301335B00084A1370D5
:1047800003E0074A53800123ECE705B05DF804FB22
:104790000000024007000240080002407F96980097
:1047A0004494FF1F08B503681B68C9B2984708BD49
:1047B00008B503681B68C9B2984708BD08B5036807
:1047C0001B68C9B2984708BD08B503681B68C9B221
:1047D000984708BD08B5044800EB5100B0FBF1F064
:1047E000FFF7B6F808BD00BF001C4E0E10B514460A
:1047F000054800EB5100B0FBF1F0FFF7A9F82046A7
:10480000FFF7ECF810BD00BF001C4E0E08B5FFF717
:1048100015F908BD08B50846FFF742F908BD00BF05
:1048200008B5FFF72DFA08BD08B5FFF755FA08BD22
:1048300008B5FFF735FA08BD08B5FFF7FFF908BD61
:1048400008B5FFF763FA08BD08B5FFF707FA08BD1A
:1048500008B50846FFF740F9012008BD08B508462D
:10486000FFF73AF9012008BD10B514460846114675
:10487000FFF782F9204610BD38B50D46084602F014
:10488000FBF9044628462146FFF776F9204638BD55
:10489000704700BF044B00221A714FF47A7199607F
:1048A0001A73024A1A60704770B0FF1FB0160200F8
:1048B00008B503681B68C9B2984708BD08B5036806
:1048C0001B68C9B2984708BD08B503681B68C9B220
:1048D000984708BD08B503681B68C9B2984708BD6A
:1048E00008B5044800EB5100B0FBF1F0FFF7ACFA5B
:1048F00008BD00BF001C4E0E10B51446054800EB65
:104900005100B0FBF1F0FFF79FFA2046FFF7E2FA03
:1049100010BD00BF001C4E0E08B5FFF70BFB08BD15
:1049200008B50846FFF738FB08BD00BF08B5FFF71C
:1049300023FC08BD08B5FFF74BFC08BD08B5FFF721
:104940002BFC08BD08B5FFF7F5FB08BD08B5FFF760
:1049500059FC08BD08B5FFF7FDFB08BD08B50846C2
:10496000FFF736FB012008BD08B50846FFF730FB0E
:10497000012008BD10B5144608461146FFF778FB24
:10498000204610BD38B50D46084602F075F90446BC
:1049900028462146FFF76CFB204638BD704700BF14
:1049A000044B00221A714FF47A7199601A73024A0B
:1049B0001A60704780B0FF1F0017020008B5036837
:1049C0001B68C9B2984708BD08B503681B68C9B21F
:1049D000984708BD08B503681B68C9B2984708BD69
:1049E00008B503681B68C9B2984708BD08B50448F4
:1049F00000EB5100B0FBF1F0FFF7A2FC08BD00BFD7
:104A0000000E270710B51446054800EB5100B0FB17
:104A1000F1F0FFF795FC2046FFF7D4FC10BD00BF76
:104A2000000E270708B5FFF7FDFC08BD08B50846CE
:104A3000FFF72AFD08BD00BF08B5FFF7BFFD08BDA1
:104A400008B5FFF7E7FD08BD08B5FFF7C7FD08BDCE
:104A500008B5FFF791FD08BD08B5FFF7F5FD08BDE6
:104A600008B5FFF799FD08BD08B50846FFF728FD12
:104A7000012008BD08B50846FFF722FD012008BD4A
:104A800010B5144608461146FFF76AFD204610BDD2
:104A900038B50D46084602F0EFF804462846214690
:104AA000FFF75EFD204638BD704700BF044B002273
:104AB0001A714FF47A7199601A73024A1A6070473A
:104AC00090B0FF1F501702002DE9F84FC1F30A57AD
:104AD000A7F2FF36132E02460B4604460D468946C2
:104AE0008A4680461CDC002E40DB3D4F374107EAFA
:104AF000010C5CEA000C18D037A3D3E9002301F0C5
:104B00004FF90022002301F08DFD28B1002D42DB7A
:104B10002AEA07094FF0000840464946BDE8F88FE9
:104B2000332E06DDB6F5806F31D010461946BDE84C
:104B3000F88FA7F2134C4FF0FF3B2BFA0CFB1BEA4C
:104B4000000FF2D024A3D3E9002301F029F90022B9
:104B5000002301F067FD0028DED0002D22DB28EACB
:104B60000B08D14640464946BDE8F88F1AA3D3E961
:104B7000002301F015F90022002301F053FD002865
:104B8000CAD0002D1CDB4FF00008C146C4E701F07D
:104B900007F9BDE8F88F4FF4801A4AFA06F606EBDB
:104BA000050AB5E7142E14D0C7F58667012303372D
:104BB00003FA07F717EB040828BF05EB030ACEE753
:104BC00025F00042074B224318BF99464FF00008DA
:104BD000A2E705F1010AC2E79C7500883CE4377E34
:104BE000FFFF0F000000F0BF2DE9F04FDFF8B8A283
:104BF0008BB01D4680468946144600F071F99AF93B
:104C00000030013306460F4604D02046294600F006
:104C10006DFF20B9304639460BB0BDE8F08F4046F5
:104C2000494600F063FF834600282CD120462946E0
:104C30000022002301F0CEFC0028EBD0944B9AF91F
:104C400000109448CDF820B000220126CDE90623BB
:104C50004B1CCDE90289CDE90445009601900DD0A9
:104C600002290BD0684600F069FF002800F095800B
:104C7000089B1BB101F018FD089B0360DDE90601EC
:104C80000BB0BDE8F08F002200234046494601F0FA
:104C9000A1FCF8B1204629460022002301F09AFC2D
:104CA000834600284DD07B4A9AF900300192CDE925
:104CB00004450121002200240025CDE90289CDE927
:104CC000064500910892002BCCD0714B0022CDE913
:104CD0000623D3E73046394600F002FF834600281A
:104CE00060D0002200233046394601F073FC0028D2
:104CF00090D04046494600F0F3FE00288AD0204676
:104D0000294600F0EDFE002884D09AF90030614A6F
:104D10000192CDE904450421002200240025022B44
:104D2000CDE90289CDE906450091089200F0828024
:104D3000684600F003FF00287CD0089B002B9DD024
:104D400098E72046294600F0CBFE00283FF462AFEA
:104D5000204629460022002301F046FC00283FF4AB
:104D600059AF4C4B9AF80010CDF820B001228DE8D5
:104D70000C00CDE90289CDE904450022002934D197
:104D80000023CDE90623684600F0D8FE0028D4D1E0
:104D900001F08AFC21230360CFE701F085FC212389
:104DA000036065E74046494600F09AFE002898D027
:104DB0002046294600F094FE002892D0304639461D
:104DC00000F094FEB8B9334B9AF8006008900122C5
:104DD000CDE90289CDE904458DE80C00002E2ED1E5
:104DE00000240025CDE90645CDE72B4B0229CDE96E
:104DF0000623CDD0C7E7274A9AF90030CDF820B076
:104E000003218DE80600CDE90289CDE9044540463D
:104E100049460022F3B9214F4FF060460023CDE907
:104E2000066701F0E1FB002840D19AF90030022B1F
:104E30007FF47EAF01F038FC222303607DE7002081
:104E4000002102460B4601F087FA022ECDE9060149
:104E50009ED098E7124F00260023CDE9066701F0A7
:104E6000C3FB0028E1D000220E4B2046294601F06A
:104E700049F904460D4600F069FE22462B4601F032
:104E8000A9FB0028D1D1044B0022CDE90623CCE7B1
:104E90000000F03F981702000000F0FFFFFFEF470F
:104EA0000000F07F0000E03F5C94FF1F00220A4BEF
:104EB0002046294601F026F904460D4600F046FE3C
:104EC00022462B4601F086FB0028AED1034B4FF063
:104ED0006042CDE90623A8E70000E03FFFFFEFC7EF
:104EE0002DE9F04F23F0004B91B089460F465BEA65
:104EF0000201CDE9022314461D46804606462ED007
:104F0000634B29F0004A9A4522DC1FD0604B9B4539
:104F10001EDC77D0002F78DB0022049264BB5C4B50
:104F20009B4500F091805B4B9B4565D0B5F1804F70
:104F300000F0F783584B9D421ED1002F1CDB4046EA
:104F4000494611B0BDE8F04F00F006BD0028DDD0A5
:104F50000AF1404A0AF5801A5AEA060A04D14D4974
:104F6000002011B0BDE8F08F4C4811B0BDE8F04F03
:104F700000F0E6BD002104914046494600F0ACFD3A
:104F8000E6B9BAF1000F04D0424B27F040429A42F2
:104F900014D1002DC0F20584002FE2DA0AF1404A54
:104FA000DDF810B00AF5801A5BEA0A0B5ED0049AAD
:104FB000012AD6D101F100431946D2E7FB0F03F1D4
:104FC000FF3C049B53EA0C034ED0354B9B456DDDF3
:104FD00003F104739B4540F3EC83324B9A4540F355
:104FE0009A83002D40F39A8327A1D1E9000102465C
:104FF0000B4601F087F8B4E7002DC0F24884404624
:105000004946AEE7002C85D0A2E7274B9B4536DC0E
:10501000A3F154739B4540F38B834FEA2B5340F22B
:105020001342934240F34984C3F58663033324FA61
:1050300003F202FA03F3A3427FF46EAF02F001021F
:10504000C2F10202049269E70AF1404303F58013BA
:10505000334384D0134B9A4540F39B83002DC0F219
:105060005D83DDE902017CE74046494602460B4686
:1050700000F094FE02460B4601F06EF971E7022340
:1050800004934BE7AFF300809C7500883CE4377EC7
:105090000000F07F0000F03F0000E03FD01702006A
:1050A0000000E041FFFFEF3FFFFF3F43BAF5801FE5
:1050B00080F2EB83AA4BCDF804C0002201F022F865
:1050C000DDF804C08A466FF034034FEA2A55A54A3A
:1050D000CAF3130AA5F2FF354AF07F541D449245E6
:1050E0000F9544F4401440F3CD839F4B9A4540F311
:1050F000FA83DDF83CA000250AF1010ACDF83CA0B6
:10510000A4F580142B46994ACDF804C0DB000E9319
:105110001344D3E90067214632463B46CDE90A01F4
:1051200000F03CFE3246804689463B46DDE90A01F6
:1051300000F036FE02460B4600208D4901F00CF9C6
:10514000CDE90C01DDE90C234046494600F0DAFFC9
:10515000CDE906016110DDE906AB41F0005101F532
:1051600000214B190021CDE908AB0891DDE908AB1E
:1051700000225046594614461D4600F0C3FF024621
:105180000B464046494600F009FE324680468946B5
:105190003B462046294600F001FE02460B46DDE96B
:1051A0000A0100F0FBFD02460B465046594600F04E
:1051B000A9FF02460B464046494600F0EFFDDDE9F7
:1051C0000C2300F09FFF06460F46DDE9060102466C
:1051D0000B4600F097FF02460B4604460D4600F0D2
:1051E00091FF4FA3D3E900238046894620462946F4
:1051F00000F088FF4CA3D3E9002300F0D1FD224644
:105200002B4600F07FFF4AA3D3E9002300F0C8FD3E
:1052100022462B4600F076FF47A3D3E9002300F097
:10522000BFFD22462B4600F06DFF45A3D3E90023C6
:1052300000F0B6FD22462B4600F064FF42A3D3E9FE
:10524000002300F0ADFD02460B464046494600F003
:1052500059FFDDE9062304460D465046594600F045
:105260009FFD32463B4600F04DFF22462B4600F0A4
:1052700097FD5246804689465B465046594600F0A7
:1052800041FF00223B4BCDE90A0100F089FD424677
:105290004B4600F085FD08980D46044622462B46F5
:1052A0005046594600F02EFF224682468B462B463A
:1052B0003046394600F026FF002206460F462046BB
:1052C00029462C4B00F06AFDDDE90A2300F066FD5B
:1052D00002460B464046494600F060FDDDE90623E4
:1052E00000F010FF02460B463046394600F058FDEC
:1052F0008046894642464B465046594600F050FD8E
:10530000089813A3D3E9002304460D4600F0FAFEE3
:1053100011A3D3E90023CDE90601204629462BE05D
:10532000EF4E454A287ECA3F65DBC9934A86CD3F8A
:1053300001411DA96074D13F4D268F515555D53F70
:10534000FFAB6FDBB66DDB3F033333333333E33F08
:10535000000000E009C7EE3FF5015B14E02F3EBE00
:10536000000040438E98030079B60B00C01702007E
:105370000000F03F0000084000F0C4FE5246064620
:105380000F465B462046294600F008FD02460B46C4
:105390004046494600F002FD9FA3D3E9002300F0F8
:1053A000B1FE02460B463046394600F0F9FCDDF806
:1053B00038A0AB4B5344D3E9002300F0F1FC064680
:1053C0000F980F4600F038FEA64B5344D3E900ABCC
:1053D00004460D4632463B46DDE9060100F0E0FC9E
:1053E00052465B4600F0DCFC22462B4600F0D8FC1F
:1053F000089822462B468046894600F0CFFC52464C
:105400005B4600F0CBFCDDE9062300F0C7FC02465A
:105410000B463046394600F0C1FCDDF804C0824638
:105420008B4604994B1E53EA0C030CBF8E4B8F4BDB
:105430000022CDE90823DDE90223CDE9042300237E
:105440000493DDE90445DDE902012B46224600F024
:10545000A5FC42464B4600F055FE524606460F4616
:105460005B46DDE9020100F04DFE02460B46304688
:10547000394600F095FC42464B4682468B46204614
:10548000294600F03FFE06460F463B465046594629
:10549000324600F085FC764B9942804689460D469F
:1054A00040F34A8101F13F4303F5E003034340F039
:1054B000F6815BA3D3E900235046594600F070FC07
:1054C0003246CDE902013B464046494600F066FCC3
:1054D00002460B46DDE9020101F0A4F8002840F085
:1054E000DE81CC464FEA2C53A3F2FE334FF48010FA
:1054F00018412844C0F30A515E4AA1F2FF3342FA30
:1055000003FEC1F58261C0F3130420EA0E030331E8
:1055100044F4801040FA01F1002D0491BCBF4942CF
:10552000049100223046394600F038FC06460F460A
:105530003246504659463B4600F032FC049A12056A
:105540000292002438A3D3E9002320460D4600F040
:10555000D9FD3246804689463B462046294600F022
:105560001DFC02460B465046594600F017FC30A37E
:10557000D3E9002300F0C6FD2FA3D3E9002306469C
:105580000F462046294600F0BDFD02460B46304638
:10559000394600F005FC06460F4632463B4640467B
:1055A000494600F0FDFB42464B4604460D4600F0DE
:1055B000F5FB02460B463046394600F0EFFB22462B
:1055C00082468B4620462B46294600F09BFD1CA3B5
:1055D000D3E9002306460F4600F094FD1AA3D3E951
:1055E000002300F0DBFB32463B4600F08BFD18A3A6
:1055F000D3E9002300F0D4FB32463B4600F082FDA5
:1056000015A3D3E9002300F0C9FB32463B4600F066
:1056100079FD31E0AFF30080FD033ADC09C7EE3FCE
:10562000FE822B654715973C00000000432EE63FA5
:10563000EF39FAFE422EE63F396CA80C615C20BEC1
:10564000D0A4BE726937663EF16BD2C541BDBB3E88
:105650002CDE25AF6A56113F93BDBE166CC1663F66
:10566000B0170200A01702000000F0BF0000F03FDA
:10567000FFFF8F40FFFF0F00A3A3D3E9002300F03B
:105680008FFB32463B4600F03DFD02460B4620466E
:10569000294600F083FB06460F4632463B4620462D
:1056A000294600F02FFD00228046894630463946C3
:1056B0004FF0804300F072FB02460B4640464946DD
:1056C00000F04AFE524606460F4620465B462946F3
:1056D00000F018FD52465B4600F062FB02460B46A6
:1056E0003046394600F05AFB22462B4600F056FB66
:1056F00002460B460020924900F050FB029C0C44ED
:10570000B4F5801F0246C0F2F2802346DDE90801AD
:1057100000F0F8FC25E4002DFFF666AC0020002127
:105720001FE44046494642464B4600F0EBFC18E475
:1057300000210491FFF7F2BB824B21F0004C9C4505
:1057400040F3CA8001F17D5303F53C1303F5505338
:10575000034310D132463B46CDF804C000F01EFB97
:1057600002460B465046594600F048FFDDF804C09B
:1057700000283FF4B7AEDDE9080165A3D3E90023B3
:1057800000F0C0FC62A3D3E9002300F0BBFCFFF7EC
:10579000E8BB002DC2DA039B029803F10041FFF73A
:1057A000E0BB02460B460020654900F0D5FDFFF73F
:1057B000F3BB654B9A45AEDD614B9A453FF711ACA3
:1057C00000225F4BCDF804C000F0E8FA52A3D3E901
:1057D000002304460D4600F095FC51A3D3E90023B5
:1057E00006460F462046294600F08CFC224682469B
:1057F0008B462B462046294600F084FC002280463A
:10580000894620462946514B00F07CFC02460B4657
:1058100045A1D1E9000100F0C1FA22462B4600F073
:1058200071FC02460B460020494900F0B7FA0246D7
:105830000B464046494600F065FC3DA3D3E90023F2
:1058400000F060FC02460B465046594600F0A6FAAE
:1058500004460D4622462B463046394600F0A0FA53
:10586000002032463B468046894600F097FA0246C1
:105870000B462046294600F091FADDF804C0824626
:105880008B46CEE500252B463DE400231DE4424631
:105890004B4600202A4900F05FFDFFF762BBDDE9BF
:1058A000080125A3D3E9002300F02CFC22A3D3E9AF
:1058B000002300F027FCFFF754BB002C7FF45AAB09
:1058C000C3F5826303334BFA03F202FA03F35B4539
:1058D00013D00494FFF727BB1D4B9C453FF702AE46
:1058E000049B02932DE64FF4802501230BE4049AD8
:1058F00000F0BAF902460B4608E702F00102C2F1D5
:1059000002020492FFF70FBB3E5555555555C53F52
:1059100059F3F8C21F6EA501000000604715F73F5C
:1059200044DF5DF80BAE543E555555555555D53FA2
:10593000FE822B654715F73F9C7500883CE4377E57
:105940000000F03FFFCB9040FEFFEF3F0000D03F54
:105950000000E03FAFF3008021F0004C2DE9F84358
:105960004FEA1C5CDFF86C814FEA0C5CC4450646CC
:105970000F460B46024600F08F8000296FDD0F15A1
:1059800078D0A7F2FF37C3F31303F90743F480136A
:1059900060D4D10F4FF0000C01EB43037F10520095
:1059A000654616204FF400116C189C424FEAD276DF
:1059B0004FEA420202DC1B1B65188C44013806EBDF
:1059C00043034FEA5101EFD1804620264FF00041BA
:1059D00009E023D0D40F013E4FEA510104EB430309
:1059E0004FEA42021ED0AB4201EB0804F1DD04F0A5
:1059F0000049B9F1004F04EB010809D0A9465B1B2F
:105A0000944288BF03F1FF33121B08444D46E1E77F
:105A1000B8F1000FF2DB05F10109F0E79442E6D995
:105A20001D46D7E71A4304D0431C41D000F00103C0
:105A3000184446084FEA6C031CF0010F03F17F5332
:105A400003F5001318BF46F0004603EB075130463C
:105A5000BDE8F883D10F01EB4303520099E721F031
:105A60000043034322D051BB0F46D30A153F5205D2
:105A7000002BFAD013F480111DD15B00D80201F184
:105A80000101FAD5C1F10100C1F1200422FA04F4A8
:105A9000234307448A4074E702460B4600F032FB7A
:105AA00032463B4600F07CF9BDE8F883BDE8F88358
:105AB0000CF1010CBEE7202401200021E6E702469C
:105AC0000B4600F06BF902460B4600F045FCBDE8C2
:105AD000F88300BF0000F07F21F00041704700BF55
